:020000040800F2
:10000000506200204D0200080F1700088B140008F2
:100010000D17000843040008B91D00080000000087
:10002000000000000000000000000000651700084C
:10003000750400080000000011170008C519000829
:1000400067020008670200086702000867020008EC
:1000500067020008670200086702000867020008DC
:1000600067020008670200086702000867020008CC
:1000700067020008670200086702000867020008BC
:1000800067020008670200086702000867020008AC
:10009000670200086702000867020008670200089C
:1000A000670200086702000867020008670200088C
:1000B000670200086702000867020008670200087C
:1000C000670200086702000867020008670200086C
:1000D00067020008891D0008951D0008A11D000881
:1000E000670200086702000867020008670200084C
:1000F000670200086702000867020008670200083C
:10010000670200086702000867020008670200082B
:100110009D1A0008A91A0008670200086702000873
:10012000670200086702000867020008670200080B
:1001300067020008670200086702000867020008FB
:1001400067020008670200086702000867020008EB
:10015000670200086702000867020008AD1D00087A
:1001600067020008670200086702000867020008CB
:10017000670200086702000867020008000000002C
:1001800067020008670200086702000867020008AB
:10019000670200086702000867020008670200089B
:1001A00000000000000000006702000800F002F8F4
:1001B00000F03CF80AA090E8000C82448344AAF1C5
:1001C0000107DA4501D100F031F8AFF2090EBAE8C3
:1001D0000F0013F0010F18BFFB1A43F0010318477B
:1001E0004C1C00006C1C0000103A24BF78C878C179
:1001F000FAD8520724BF30C830C144BF04680C602D
:10020000704700000023002400250026103A28BF74
:1002100078C1FBD8520728BF30C148BF0B60704778
:100220001FB501F0F1FD1FBD10B510BD00F0CFF8F6
:100230001146FFF7F5FF01F0D0FD00F0EDF803B433
:10024000FFF7F2FF03BC00F0F5F800000948804713
:1002500009480047FEE7FEE7FEE7FEE7FEE7FEE7A8
:10026000FEE7FEE7FEE7FEE704480549054A064BC0
:10027000704700005D1A0008AD0100085002002020
:1002800050620020502200205022002053EA020C2D
:1002900000F069802DE9F04B4FF00006002B1FBFE6
:1002A000B3FA83F503FA05F424FA05F65E4012BFAB
:1002B0001643B2FA82F502FA05F4C5F120051EBF15
:1002C00022FA05FC44EA0C04203556EA044C4FEAB5
:1002D000144418BF641C4FF000084FF0000990420E
:1002E00071EB030C39D3002919BFB1FA81F701FA78
:1002F00007F6B0FA80F700FA07F6C7F120071EBF2D
:1003000020FA07FC46EA0C062037B6FBF4FCA7EB04
:100310000507103F07F01F0BCBF120060CFA0BFB73
:100320002CFA06F644BFB3460026202FA4BF5E4633
:100330004FF0000B5BEA060C08BF4FF0010B19EB06
:100340000B09ABFB027C48EB0608C01B06FB02CC8A
:100350000BFB03CC71EB0C01C1E70B460246414697
:100360004846BDE8F08B13B54FF000004FF0000198
:10037000AFF30080BDE81C4070474FF0000200B5AD
:10038000134694469646203922BFA0E80C50A0E8B8
:100390000C50B1F12001BFF4F7AF090728BFA0E866
:1003A0000C5048BF0CC05DF804EB890028BF40F832
:1003B000042B08BF704748BF20F8022B11F0804F74
:1003C00018BF00F8012B704770477047704775469B
:1003D00000F02CF8AE4605006946534620F00700B1
:1003E000854618B020B5FFF73FFFBDE820404FF02D
:1003F00000064FF000074FF000084FF0000B21F00F
:100400000701AC46ACE8C009ACE8C009ACE8C009DB
:10041000ACE8C0098D46704710B50446AFF30080C4
:100420002046BDE81040FFF70ABF000000487047B3
:10043000F001002001491820ABBEFEE726000200B3
:100440007047FEE710B5322000F07AF8012010BDA9
:1004500010B5322000F074F8012010BD10B5322024
:1004600000F06EF8012010BD10B5322000F068F8E1
:10047000012010BD7047000072B600BF01F0F6FA0F
:10048000642000F05DF8F9E72DE9F0410446876D3E
:1004900000F090F9064694F835000025022806D0B1
:1004A0008020606584F834500120BDE8F081206828
:1004B000016821F0160101602068416921F0800186
:1004C0004161206C08B9A06C20B12068016821F05E
:1004D000080101602068016821F0010101600CE061
:1004E00000F068F9801B052807D9202060650320EB
:1004F00084F8350084F83450D7E720680068C007D6
:10050000EED194F85C103F208840B860012084F858
:10051000350084F834500020C7E790F835100229E0
:1005200003D08021416501207047052180F83510F6
:100530000068016821F0010101600020704700009F
:1005400070B5044600F036F90546601C02D0044838
:100550000078044400F02EF9401BA042FAD370BD8D
:100560001C0000202DE9F84FDFF8F8A1002201243B
:1005700003254FF00F090AF1040BAAF1040E00BF86
:100580000B6804FA02F63340B34270D10F7907F0DA
:100590000307012F01D0022F16D187684FEA4208C6
:1005A00005FA08FC27EA0C07D1F80CC00CFA08FC85
:1005B0004CEA070CC0F808C04768B7430E79C6F389
:1005C000001696403E4346600E79F643B6070AD0C1
:1005D000C7684FEA420C05FA0CF6B7438E6806FA74
:1005E0000CF63E43C6600E7906F00306022E10D1CB
:1005F000D60800EB8608D8F8206057074FEAD76C7A
:1006000009FA0CF7BE430F6907FA0CF73743C8F82D
:10061000207006684FEA420C05FA0CF7BE430F79CA
:1006200007F0030707FA0CF7374307604E6816F424
:10063000403F1CD04C4E376847F4804737603668DF
:1006400022F0030706F480460096484E07EB060C9E
:10065000DCF8086897073F0F09FA07F826EA08064A
:10066000DFF80C81404503D14FF0000841E072E013
:10067000DFF80081404502D14FF0010839E0DFF892
:10068000F880404502D14FF0020832E0DFF8EC80FC
:10069000404502D14FF003082BE0DFF8E4804045ED
:1006A00002D14FF0040824E0DFF8D880404502D1A1
:1006B0004FF005081DE0DFF8D080404502D14FF033
:1006C000060816E0DFF8C480404502D14FF0070865
:1006D0000FE0DFF8BC80404502D14FF0080808E089
:1006E000DFF8B080404502D14FF0090801E04FF03B
:1006F0000A0808FA07F848EA0608CCF80888DAF881
:1007000000605746D1F804C09E435FEACC2C00D568
:100710001E433E60DBF800605F46D1F804C09E4394
:100720005FEA8C2C00D51E433E60DEF80060774601
:10073000D1F804C09E435FEA8C3C00D51E433E6066
:10074000084F083F3E68D1F804C09E435FEACC3CA6
:1007500000D51E433E60521C102AFFF411AFBDE8C5
:10076000F88F0000083C014044380240003001404E
:10077000000002400004024000080240000C024059
:10078000001002400014024000180240001C024009
:100790000020024000240240426921EA02030A408C
:1007A00043EA0241816170470AB1816170470904DF
:1007B000FBE7000001488068704700001C00002033
:1007C0000248816802781144816070471C00002053
:1007D0000B4810B5016841F400710160016841F4F3
:1007E00080610160016841F480710160032000F0C4
:1007F0006FF80F2000F006F800F024F8002010BD7C
:10080000003C024070B50D4D04464FF47A712878D3
:10081000B1FBF0F00A490968B1FBF0F000F00AFB07
:1008200048B9102C07D200222146501E00F030F8A3
:1008300000206C6070BD012070BD00001C00002015
:10084000280000200A4808B5016841F48041016091
:10085000006800F4804000900548001F016841F0E6
:1008600080510160006800F08050009008BD0000D9
:1008700044380240002809DB00F01F0201219140AA
:100880004009800000F1E020C0F80011704700002E
:10089000F0B40E4B1B680C46C3F30223C3F10705EB
:1008A000042D00D90425191D072901D2002300E0D9
:1008B000DB1E012606FA05F1491E214099409E40A3
:1008C000761E16403143F0BC01F077BA0CED00E023
:1008D000064900F0070208684FF6FF03184040EA97
:1008E0000220034A10430860704700000CED00E04E
:1008F0000000FA052DE9F0470E46050065D0DFF847
:100900001481D8F80000F7B200F00F00B04207D20F
:1009100088F80070D8F8000000F00F00B04254D101
:1009200028683D4C810712D5400703D5206840F464
:10093000E05020602878000703D5206840F460402C
:1009400020602068A96820F0F00008432060287823
:10095000C0072DD0304968680839012812D0022814
:1009600013D0032811D00968890700292DDA2168DE
:1009700021F0030101432160FFF71CFF814641F292
:10098000883A0EE009688903EFE709688901ECE716
:10099000FFF710FFA0EB0901514502D90320BDE884
:1009A000F0872068696800F00C00B0EB810FEFD190
:1009B000D8F80010404601F00F01B14207D9077086
:1009C000006800F00F00B04201D00120E7E728786E
:1009D000400705D52068E96820F4E050084320600E
:1009E0002878000706D52068296920F4604040EA8D
:1009F000C100206000F038F82168084AC1F30311F3
:100A0000515CC8400649086006480068FFF7FAFED6
:100A10000020C4E7003C024008380240121E0008D3
:100A200028000020200000200448054900680968CB
:100A3000044AC1F38221515CC8407047280000205D
:100A400008380240221E0008044805490068096869
:100A5000044AC1F34231515CC8407047280000206D
:100A600008380240221E0008154810B5006810F032
:100A70000C02144813D04110042A0FD0082A0ED1BA
:100A80000F4C241F2268236802F03F025B0207D547
:100A90002068C0F38810A0FB010106E0084610BDE5
:100AA0002168C1F38811A1FB00010023FFF7EEFBD1
:100AB0002168C1F30141491C4900B0FBF1F010BDB0
:100AC000083802400024F4002DE9F84F04006ED0ED
:100AD0002078DFF84C93C007A9F104054AD009F14A
:100AE00004000168C1F38101012908D00068C0F346
:100AF000810002280AD1D9F80000400206D52868F2
:100B0000800337D560680028E1D033E06068B0F535
:100B1000803F10D0B0F5A02F286810D020F480308E
:100B20002860286820F4802028606068A8B1FFF75A
:100B300041FE06460DE0286840F48030F4E740F4BA
:100B400080202860F7E700BFFFF734FE801B642891
:100B500073D828688003F7D50CE0FFF72BFE064614
:100B600005E000BFFFF726FE801B6428F0D8286848
:100B70008003F7D42078DFF8AC8280074FF0000ABA
:100B80003ED5A748001D016811F00C0F08D0006881
:100B9000C0F3810002280BD1D9F80000400207D42D
:100BA0002868800716D5E068012800D112E033E1FB
:100BB000E068B8B10120C8F80000FFF7FBFD064669
:100BC00005E000BFFFF7F6FD801B0228C0D82868AB
:100BD0008007F7D52868216920F0F80040EAC100B5
:100BE00028600DE0C8F800A0FFF7E4FD064604E029
:100BF000FFF7E0FD801B02281FD828688007F7D484
:100C00002078000722D5864F87486169703771B117
:100C100001210160FFF7CEFD064604E0FFF7CAFDA3
:100C2000801B022809D838688007F7D50EE0C0F885
:100C300000A0FFF7BFFD064605E082E0FFF7BAFD22
:100C4000801B02287DD838688007F7D420784007B9
:100C500068D5DFF8CCB100270BF13C0BDBF80000C6
:100C6000C0000BD4DBF8001041F08051CBF800102D
:100C7000DBF80000012700F0805000906B4E3068D8
:100C8000C00510D4306840F480703060FFF792FDEA
:100C9000009005E0FFF78EFD0099401A022850D819
:100CA0003068C005F6D55E4EA0686C3601280FD0BE
:100CB0000528306810D020F001003060306820F046
:100CC00004003060A068B8B1FFF774FD00900FE039
:100CD000306840F00100F4E740F004003060F7E7CE
:100CE000FFF768FD0099411A41F28830814266D8C9
:100CF00030688007F4D50EE0FFF75CFD009007E058
:100D0000FFF758FD0099411A41F28830814256D8C8
:100D100030688007F4D42FB1DBF8001021F0805147
:100D2000CBF80010A069C8B33D49091D0968C1F39B
:100D3000810102294AD00228504607D0C8F8600035
:100D400000E03CE0FFF736FD04463BE04746C8F8CC
:100D50006000FFF72FFD064605E000BFFFF72AFD04
:100D6000801B02282BD828688001F7D4D4E907011A
:100D70000843A16A2E4A490802EB0141626A41EA2E
:100D80008211084394F82C1040EA0161C9F8001060
:100D900001203866FFF70EFD044606E03EE000BF86
:100DA000FFF708FD001B022809D828688001F7D545
:100DB00034E000BFFFF7FEFC001B022802D903202D
:100DC000BDE8F88F28688001F4D427E00128F7D027
:100DD000D9F80000E26900F4800191421CD1226A36
:100DE00000F03F01914217D147F6C071626A01409D
:100DF000B1EB821F10D1A26A4FF0FF3300F44031F3
:100E000003EB5202B1EB024F06D194F82C1000F024
:100E10007060B0EB016F01D00120D1E70020CFE777
:100E20000438024000004742800E474200700040F4
:100E30000000FFFF10B5401EB0F1807F01D30120FC
:100E400010BD4FF0E02460610F21601700F0B5FF86
:100E50000020A06107202061002010BD704770476E
:100E6000F8B5016804460868CA684B6910F00F0FAE
:100E70004FF0000559D003F0010602F49077374394
:100E800065D0C10705D0D10503D5616C41F00101E2
:100E90006164410705D5D90703D0616C41F00201B7
:100EA0006164810705D5D90703D0616C41F0040165
:100EB0006164010707D502F02001314303D0616C62
:100EC00041F008016164616C00293AD0800604D5C4
:100ED000900602D5204600F01BFE20684069616C38
:100EE000C0F38010090700D460B3204600F0E9FD8C
:100EF00020684069400621D52068143050E8001F62
:100F000021F0400140E80012002AF5D1E06BA8B1C1
:100F100072490165E06BFFF700FB002811D0E06B20
:100F2000016D01B0BDE8F040084783060FD5930678
:100F30000DD52046BDE8F84000F0EABD2046FFF799
:100F40008EFFF8BD2046FFF78AFF6564F8BD266B6B
:100F50002023012E7ED1C6067CD5D6067AD5086818
:100F60004868009048694FF0020640064DD5E26B94
:100F7000106840684FF480770004000C3AD0A18DCF
:100F8000814237D9E085D069B8422DD020680C3035
:100F900050E8001F21F4807140E80012002AF5D1CA
:100FA0002068143050E8001F21F0010140E80012D1
:100FB000002AF5D12068143050E8001F21F04001CC
:100FC00040E80012002AF5D184F8423025632068F9
:100FD0000C3050E8001F21F0100140E80012002AF8
:100FE000F5D1E06BFFF750FA6663A08DE18D401AF2
:100FF00081B206E0A18D8142A8D1D069B842A5D1C5
:1010000066632046FFF72AFFF8BDA08DE18D401AE8
:1010100081B2E08D0028F7D00029F5D020680C308F
:1010200050E8002F22F4907240E80027002FF5D1FD
:101030002068143050E8002F22F0010240E8002719
:10104000002FF5D184F84230256320680C3050E839
:10105000002F00E006E022F0100240E80023002B01
:10106000F3D1CDE705062BD5150629D594F8410017
:101070002128C9D1A068B0F5805F01D12069B0B145
:10108000206A411C2162216800784860E08C401E83
:101090000004000CE084B7D12068C16821F0800111
:1010A000C1602068C16841F04001C160F8BD206A9C
:1010B0000088C0F308004860206A801C2062E5E7D1
:1010C0004006F3D55006F1D5CA68204622F040020A
:1010D000CA6084F8413000F0D7F9F8BDB51A0008AD
:1010E00070B5040004D094F84100002510B106E06A
:1010F000012070BD84F84050204600F023F82420E1
:1011000084F841002068C16821F40051C160204684
:1011100000F060FD2068016921F4904101612068C0
:10112000416921F02A0141612068C16841F4005100
:10113000C1606564202084F8410084F84200656342
:10114000002070BD2DE9F04786B0044614216846A2
:10115000FFF713F98449DFF80CC223680024824AA0
:101160001039032502260827804863451ED11368DD
:1011700043F400231360126802F4002205920A6807
:1011800042F001020A600968CDE9005601F0010150
:10119000CDE904716946CDE90245FFF7E3F9002284
:1011A00011463420FFF774FB342038E0DFF8C0C16B
:1011B000DFF8C0A1634537D1106840F4801010609B
:1011C000106800F480100590086840F00400086082
:1011D000086800F004000590086840F00800086006
:1011E000086802AB00F0080005904FF48050CDE98C
:1011F000000683E8B00069465046FFF7B3F90420C3
:10120000CDE9000602AB694683E8B0005A48FFF713
:10121000A9F9002211463520FFF73AFB3520FFF7E8
:1012200029FB06B0BDE8F087DFF85081DFF8389180
:101230004FF0070C09F10409434523D1D9F80030D8
:1012400043F01003C9F80030D9F8002002F0100272
:1012500005920A6842F001020A60096802AA01F0D8
:10126000010105914FF4C061CDE9001682E830100C
:101270006946FFF777F9002211462520FFF708FBA2
:101280002520CCE7DFF8F88043451FD1136843F4ED
:1012900000331360126802F4003205920A6842F0CB
:1012A00001020A60096802AB01F0010105910C21FD
:1012B000CDE9001683E830106946FFF753F90022A4
:1012C00011462620FFF7E4FA2620A8E72D4883429E
:1012D00021D1106840F480201060106800F4802054
:1012E0000590086840F002000860086802AB00F052
:1012F000020005904FF44060CDE9000683E830100D
:1013000069462148FFF72EF9002211462720FFF7F2
:10131000BFFA272083E71D48834282D1D9F80020F5
:1013200042F02002C9F80020D9F8000000F02000A7
:101330000590086840F004000860086802AA00F000
:1013400004000590C020CDE9000682E8B00069469F
:101350005046FFF707F9002211464720FFF798FA99
:1013600047205CE7004C004040380240000002404B
:101370000050004000080240000C024000100140F4
:1013800000440040004800400004024000140140B6
:1013900090F84230202B01D00220704721B11AB1C1
:1013A0000023036300F09CBC0120704710B5006867
:1013B0000A4988420BD14FF6FF73012208490948B8
:1013C00000F012F8012206490648FFF7E1FFBDE8E8
:1013D0001040012202490348FFF7DABF0010014024
:1013E00018000020D00000202DE9F843044690F8B2
:1013F0004100984616460D46202802D00220BDE83E
:10140000F88385B17EB100206064212084F841001A
:10141000FFF7D0F9A6848146E684A0682027B0F5BE
:10142000805F02D003E00120E9E7206910B12E4679
:1014300000250EE000260CE08021204600F06BFC29
:10144000A8B9C6B116F8010B21684860E08C401EAF
:10145000E084E08C4B464FF00002CDF8008000287D
:10146000EAD14FF04001204600F055FC40B184F82D
:1014700041700320C3E735F8020BC0F30800E3E72F
:1014800084F841700020BAE77047FEE72DE9F04F7D
:1014900087B014216846FEF770FF424800240168B7
:1014A00041F080010160016801F08001059101684F
:1014B00041F001010160016801F00101059101683D
:1014C00041F010010160016801F01001059101680F
:1014D00041F002010160016801F00201059101681B
:1014E00041F004010160016801F004010591016807
:1014F00041F0080101600068DFF8AC8000F00800EE
:101500004FF403650590002229464046FFF74CF949
:10151000DFF898904FF40046002231464846FFF726
:1015200043F9DFF88CA0002231465046FFF73CF922
:10153000DFF880B0F711002239465846FFF734F93A
:10154000002202211C48FFF72FF900950125CDE963
:101550000154694640460394FFF704F80096CDE92C
:101560000154694648460394FEF7FCFFCDE9006547
:10157000CDE9025469465046FEF7F4FF0097CDE9E5
:101580000154694658460394FEF7ECFF0220009090
:10159000CDE90154694608480394FEF7E3FF07B01C
:1015A000BDE8F08F303802400000024000100240D9
:1015B0000004024000080240000C02400C4810B534
:1015C0000A4901604FF4E1314160002181600C2241
:1015D000C160C0E904128161C161FFF781FD00288B
:1015E00003D0BDE81040FEF747BF10BD004C0040DF
:1015F000400000200C4810B50A4901604FF4E13169
:101600004160002181600C22C160C0E90412816147
:10161000C161FFF765FD002803D0BDE81040FEF76B
:101620002BBF10BD00500040880000200C4810B5B2
:101630000A4901604FF4E1314160002181600C22D0
:10164000C160C0E904128161C161FFF749FD002852
:1016500003D0BDE81040FEF70FBF10BD00100140E1
:10166000D00000200C4810B50A4901604FF4E13168
:101670004160002181600C22C160C0E904128161D7
:10168000C161FFF72DFD002803D0BDE81040FEF733
:10169000F3BE10BD00440040180100200C4810B5F6
:1016A0000A4901604FF4E1314160002181600C2260
:1016B000C160C0E904128161C161FFF711FD00281A
:1016C00003D0BDE81040FEF7D7BE10BD0048004073
:1016D000600100200C4810B50A4901604FF4E13167
:1016E0004160002181600C22C160C0E90412816167
:1016F000C161FFF7F5FC002803D0BDE81040FEF7FC
:10170000BBBE10BD00140140A8010020FEE7FEE7AB
:101710007047000000224FF400610148FFF744B811
:1017200000000240002210210148FFF73DB80000F0
:101730000000024000224FF400410148FFF734B896
:1017400000100240002220210148FFF72DB80000C0
:101750000000024000224FF480710148FFF724B8D6
:10176000000802407047000070B50A4C0025257043
:10177000657014210848FEF700FEA570FFF7CAFF48
:10178000FFF7D0FFFFF7D6FFFFF7DCFFBDE87040A3
:10179000FFF7E0BF000000202C00002010B51C4C1B
:1017A0002078092831D2DFE800F005090D1115195C
:1017B00020242800BDE8104000F02EB8BDE81040FD
:1017C00000F080B8BDE8104000F0E6B8BDE8104079
:1017D00000F0B8B8BDE8104000F054B8FEF7EAFFDA
:1017E0000C4988600620207010BDBDE8104000F054
:1017F00029B8BDE8104000F049B900F037F9BDE85C
:1018000010404FF4FA70FEF79BBE0820EBE7000093
:10181000000000202C00002010B500F037F9074C24
:101820000120207014210648FEF7A7FD0020E0707B
:1018300020716071A071A07010BD00000000002038
:101840002C00002070B50C4D0C4C687A20B9FEF7C6
:10185000B1FFE06001206872FEF7ACFFE168401A5A
:101860000749884206D3FEF7A5FF206107202870AC
:101870000020687270BD0000000000202C000020D5
:10188000C0D4010070B50C4C0025207A28B9FEF7B1
:1018900091FFC4E9030501202072FEF78BFFE16888
:1018A000401A0649884203D205492069884202D37A
:1018B00005202070257270BD00000020C02709009F
:1018C0008EA2010070B51E4C606910B9FEF772FF60
:1018D0006061E07810B9FEF7C1FDE070207910B9C1
:1018E000FEF7C2FD2071607910B9FEF7B1FD60719D
:1018F000A07910B9FEF7A6FDA071E07821794FF02C
:101900000005084061790840A179084208D001200B
:10191000A070022020706561BDE8704000F0AEB894
:10192000FEF748FF6169401A41F28831884205D9C3
:10193000A078002802D108202070656170BD0000E9
:101940000000002010B5124C607805280AD2DFE8AC
:1019500000F01D03090A1100FEF72CFF41F2883147
:1019600088420CD810BDFEF725FF42F21071884264
:1019700005D210BDFEF71EFFB0F5FA5FF9D9FEF7EC
:1019800019FF044908600420207010BD0820FBE7FF
:10199000000000202C0000200848C17939B14178AE
:1019A000002903D0032101700021C1717047044A4E
:1019B000012141701171C171F4E7000000000020A5
:1019C0002C000020FEF7FCBE30B593B030216846F5
:1019D000FEF7D3FC14210CA8FEF7CFFC1D48002510
:1019E000016841F080510160006800F08050119062
:1019F0001948016821F4404141F4804101600068C8
:101A0000022400F440401190012000900004019055
:101A10008001CDE9064008200890B420CDE90904F2
:101A200004200B906846FFF74FF870B90CA90F20FF
:101A300081E831004FF4A0500F90E0021090022195
:101A40000CA8FEF757FF002801D0FEF715FD13B0D4
:101A500030BD00004038024000700040024801687C
:101A600041F470010160704788ED00E04FF40041DF
:101A70000148FEF791BE00000004024000224FF42E
:101A800000410148FEF790BE000402400122D1034C
:101A90000148FEF789BE0000000402400148FFF73C
:101AA000DFB90000400000200148FFF7D9B900006D
:101AB0008800002010B5806B0021C185FFF7CFF9A9
:101AC00010BD01680C3151E8002F22F4907241E8FA
:101AD0000023002BF5D10168143151E8002F22F0CA
:101AE000010241E80023002BF5D1016B012909D146
:101AF00001680C3151E8002F22F0100241E8002368
:101B0000002BF5D1202180F842100021016370479D
:101B100008B590F84210222901D0022008BD826841
:101B20004FF480539A4201D1016921B1816A9A42EE
:101B30001BD04AB10AE00268816A5268C2F3080207
:101B40000A80816A891C08E0026972B102685268E1
:101B500002F07F020A70816A491C8162C18D491EB0
:101B60000904090CC18503D01BE002685268F1E743
:101B70000168CA6822F02002CA600168CA6822F4BB
:101B80008072CA6001684A6922F001024A6120211C
:101B900080F8421000214163026B012A03D0FFF755
:101BA00005FC002008BD016301680C3151E8002FDD
:101BB00022F0100241E80023002BF5D101680A68E9
:101BC000D20602D50A6849680091818DFFF746F96F
:101BD000E7E7000070B5044600680169E26821F497
:101BE0004051114301612169A068E26908436169BC
:101BF000114308432168CA6849F20C639A430243BF
:101C0000CA6020684169A26921F4407111434161B1
:101C100031492068884202D03049884202D1FEF71B
:101C200013FF01E0FEF700FFE2690023192164259C
:101C30003226B2F5004F626828D0A0FB0101930F55
:101C40009200FEF723FB0146B0FBF5F06FF018029F
:101C5000504301EB800006EB0010B0FBF5F000F004
:101C6000F002B1FBF5F002EB0012B1FBF5F06FF002
:101C70001803584301EB800006EB0010B0FBF5F0B1
:101C800000F00F0021681044886070BDA0FB0101C6
:101C900092185B41FEF7FAFA0146B0FBF5F002013B
:101CA000B1FBF5F06FF01803584301EB800006EB31
:101CB000C000B0FBF5F000F0F80002EB4002B1FB11
:101CC000F5F0584301EB800006EBC000B0FBF5F0E7
:101CD00000F00700D6E700000010014000140140AA
:101CE00081628285C28500214164222180F84210F0
:101CF000016921B10168CA6842F48072CA60016852
:101D00004A6942F001024A610068C16841F020015D
:101D1000C160002070472DE9F843984617460D46EC
:101D20000446089E24E0701C22D0FEF743FDA0EB81
:101D30000800B0421AD8CEB12068C168490717D54B
:101D4000802D15D0402D13D00168C94309070FD449
:101D500001680025406800902046FFF7B2FE082089
:101D6000606484F840500120BDE8F8830320FBE75D
:101D70002068006835EA000004D00020B842D2D0C4
:101D80000020F1E70120F9E70148FFF769B80000FA
:101D9000D00000200148FFF763B8000018010020C0
:101DA0000148FFF75DB80000600100200148FFF71F
:101DB00057B80000A8010020FEE70907090E002817
:101DC00004DB00F1E02080F80014704700F00F0001
:101DD00000F1E02080F8141D7047FEF7F9FCFFF7D2
:101DE000F3FDFFF753FBFFF7E9FBFFF703FCFFF7FA
:101DF0001DFCFFF737FCFFF751FCFFF76BFCFFF70B
:101E0000B3FCFFF7CBFCFCE74FF04070E1EE100AAB
:101E100070470000000000000000010203040607F4
:101E20000809000000000102030400004C1E000825
:101E3000000000202C000000E8010008781E0008C7
:101E40002C000020246200000402000800000000B2
:101E50000000000000000000000000000000000082
:101E60000000000000000000010000001000000061
:081E7000000000000024F40052
:04000005080001AD41
:00000001FF
