:020000040800F2
:10000000B06300200903000879560008C94E0008B3
:100010008D51000885370008FD64000800000000CD
:10002000000000000000000000000000355800083B
:1000300095380008000000007B56000809610008A0
:1000400023030008230300082303000823030008F8
:1000500023030008230300082303000823030008E8
:1000600023030008230300082303000823030008D8
:1000700023030008230300082303000823030008C8
:1000800023030008230300082303000823030008B8
:1000900023030008230300082303000823030008A8
:1000A0002303000823030008230300082303000898
:1000B0002303000823030008230300082303000888
:1000C0002303000823030008230300082303000878
:1000D00023030008CD640008D9640008E564000823
:1000E0002303000823030008230300082303000858
:1000F0002303000823030008230300082303000848
:100100002303000823030008230300082303000837
:10011000E1610008ED6100082303000823030008E3
:100120002303000823030008230300082303000817
:100130002303000823030008230300082303000807
:1001400023030008230300082303000823030008F7
:10015000230300082303000823030008F1640008B8
:1001600023030008230300082303000823030008D7
:1001700023030008230300082303000800000000F5
:1001800023030008230300082303000823030008B7
:1001900023030008230300082303000823030008A7
:1001A00000000000000000002303000800F002F837
:1001B00000F09AF80AA090E8000C82448344AAF167
:1001C0000107DA4501D100F08FF8AFF2090EBAE865
:1001D0000F0013F0010F18BFFB1A43F0010318477B
:1001E0004C6F00006C6F0000103A24BF78C878C1D3
:1001F000FAD8520724BF30C830C144BF04680C602D
:10020000704700000023002400250026103A28BF74
:1002100078C1FBD8520728BF30C148BF0B60704778
:100220006E2900F0D684702901F05780662906F007
:10023000C985652906F0C685672906F0C385612949
:1002400006F0C28503681B0A28BF41F080016929B6
:1002500000F04281642900F03F81752900F03C8163
:100260006F2900F0E487782901F02380E92900F064
:100270007F87E42900F07C87F52900F07987EF2952
:1002800000F0E187F82901F022800368DB0928BF2C
:1002900041F08001632900F0EE86732900F0F386B7
:1002A000E32901F03585F32901F03A8500207047F4
:1002B0001FB506F07AFD9DE8030002F011FC01F085
:1002C00009FB04000020002106F0F6FA401C6060E3
:1002D0000020002106F0DAFAE06001F055FF1FBDB2
:1002E00010B501F0BAFF10BD02F042F81146FFF759
:1002F000DFFF06F09FFA02F085FB03B4FFF7F0FF83
:1003000003BC02F073FD000009488047094800471C
:10031000FEE7FEE7FEE7FEE7FEE7FEE7FEE7FEE7B5
:10032000FEE7FEE704480549054A064B7047000012
:10033000A1610008AD010008B0030020B0630020F7
:10034000B0230020B023002053EA020C00F06980A3
:100350002DE9F04B4FF00006002B1FBFB3FA83F5D9
:1003600003FA05F424FA05F65E4012BF1643B2FA0A
:1003700082F502FA05F4C5F120051EBF22FA05FC3C
:1003800044EA0C04203556EA044C4FEA144418BFE2
:10039000641C4FF000084FF00009904271EB030C11
:1003A00039D3002919BFB1FA81F701FA07F6B0FA7B
:1003B00080F700FA07F6C7F120071EBF20FA07FCF6
:1003C00046EA0C062037B6FBF4FCA7EB0507103F06
:1003D00007F01F0BCBF120060CFA0BFB2CFA06F6EC
:1003E00044BFB3460026202FA4BF5E464FF0000B4B
:1003F0005BEA060C08BF4FF0010B19EB0B09ABFBD6
:10040000027C48EB0608C01B06FB02CC0BFB03CCAE
:1004100071EB0C01C1E70B46024641464846BDE878
:10042000F08B13B54FF000004FF00001AFF30080E8
:10043000BDE81C40704700007CB51D4616460C0008
:10044000009001D02044401E074B7B442A46694659
:100450000190304600F0E5FD05461CB100206946DC
:1004600000F0F2FD28467CBD050C00000FB40449E5
:1004700010B503AA029800F00BFE10BC5DF814FB47
:10048000A802002070B50C460546012A05D0287840
:10049000800600D5EA69002302E0012305E05B1C29
:1004A000934202D2E05C0028F9D1A869E618C01A8C
:1004B000A861286A18442862284600F0F8FA04E087
:1004C000D5E9012114F8010B9047B442F8D328462E
:1004D00000F003FB70BD00002DE9F041064600244A
:1004E00010687529314616A510D000F007FB0028CA
:1004F00002DA404213A507E031688A0701D512A548
:1005000002E0490704D511A5012401E000F0FFFA3B
:1005100000210A2206F1240709E0B0FBF2FCB0FB3F
:10052000F2F302FB1C00303078541846491C0028B6
:10053000F3D123462A463046BDE8F04100F0F0BA38
:10054000000000002D0000002B0000002000000033
:100550002DE9F05F894604464FF0000ADFF874B1D8
:10056000FB44C0F820A02046E1688847002874D0EA
:10057000252806D0D4E901219047206A401C20623A
:10058000F1E700265F462046E168884720280546B7
:1005900007DB312D05D2781910F8200C08B106437D
:1005A000F1E7B00701D526F00406C4F81CA0002727
:1005B000C4F818A02A2D09D0284606F0E0F838B370
:1005C00004EB8708303DC8F8185019E059F8041BAF
:1005D000204604EB87029161E1688847012F0546B8
:1005E00018D1E069002820DA26F020061DE0D8F8AE
:1005F000180000EB800005EB40003038C8F8180008
:100600002046E1688847054606F0B9F80028EED193
:10061000012F0AD02E2D08D12046E16888477F1C83
:100620000546022F46F02006C4DBA069002803DA45
:10063000404246F00106A061F00701D026F0100606
:100640006C2D0BD0682D09D04C2D39D06A2D35D0AA
:10065000742D35D07A2D33D016E038E0E1682F467E
:1006600020468847B842054609D16C2F26D04FF462
:100670008060E168064320468847054604E06C2F09
:100680001AD04FF4807006430DB3A5F1410019282C
:1006900002D8203546F400664A46294620462660A0
:1006A0004E46FFF7BDFD80B101280BD0F61D26F0A8
:1006B000070000F1080956E74020E4E78020D8E76A
:1006C0000020D6E706F104094DE7284652E7206AE4
:1006D000BDE8F09F7C6900000FB400B58DB010A993
:1006E000099000910B904FF0FF300A9000200C9081
:1006F000064878440690064878446A4607900F9961
:1007000009A801F085F80DB05DF814FB3B1100005D
:10071000531100002DE9FF5F1D464FF0FF3B91464E
:100720004FF000085F46D5E90146A96901987F1C92
:100730008847296A824688470028F6D1BAF1FF3FE8
:100740000CD0002E24F4C06419DD600614D5BAF173
:100750002B0F09D0BAF12D0F0ED103E0584604B08B
:10076000BDE8F09F44F48064A96901987F1C884724
:10077000761E8246002E02DDBAF1300F03D0B9F1A9
:10078000000F26D032E0A969761E01987F1C44F440
:1007900000748847002E824605DDBAF1780F06D036
:1007A000BAF1580F03D0B9F1000F10D01EE0B9F123
:1007B000000F02D0B9F1100F18D1A969761E019867
:1007C0007F1C24F4007488478246102002E0082031
:1007D00000E00A20814609E0A96908FB0908761EA5
:1007E00001987F1C44F4007488478246002E05DD82
:1007F0004946504600F07CFD0028EDDAE969019891
:100800008847A00502D46FF00100A8E7E00725D1D2
:10081000600613D5600502D5C8F1000000E040462F
:1008200029680A1D2A600968220501D5087015E0AB
:10083000220701D5088011E008600FE02868011D3B
:1008400029600068210502D580F8008006E02107B4
:1008500002D5A0F8008001E0C0F8008038467EE7AD
:1008600040EA010310B59B070FD1042A0DD310C82D
:1008700008C9121F9C42F8D020BA19BA884201D97F
:10088000012010BD4FF0FF3010BD1AB1D30703D0C7
:10089000521C07E0002010BD10F8013B11F8014B7D
:1008A0001B1B07D110F8013B11F8014B1B1B01D199
:1008B000921EF1D1184610BD10B5431C02E010F88D
:1008C000011B71B18107FAD14FF0013202C88C1AB5
:1008D0008C4314EAC211F9D0C01A0A0603D0C01E14
:1008E00010BDC01A10BD0A0401D0801E10BD09023F
:1008F000FCD0401E10BD40EA010370B59B072ED10D
:100900004FF00136042A2AD308C810C99D1B9D4305
:10091000121F15EAC61517D0D8B2E1B2401A50EA34
:10092000056110D198B2A1B2401A50EA05410AD12E
:1009300023F07F4024F07F41401A50EA052102D184
:10094000180EA0EB146070BDA342DBD018BA21BA18
:10095000884201D9012070BD4FF0FF3070BD0AB947
:10096000002070BD10F8013B11F8014B63B1A342A8
:100970000AD1521E08D010F8013B11F8014B1BB1EF
:10098000A34201D1521EEDD1181B70BD032A40F2C3
:10099000308010F0030C00F0158011F8013BBCF121
:1009A000020F624498BF11F801CB00F8013B38BF39
:1009B00011F8013BA2F1040298BF00F801CB38BF47
:1009C00000F8013B11F0030300F05287083AC0F031
:1009D000088051F8043B083A51F804CBA0E808100D
:1009E000F5E7121D5CBF51F8043B40F8043BAFF340
:1009F0000080D20724BF11F8013B11F801CB48BF9A
:100A000011F8012B24BF00F8013B00F801CB48BFCF
:100A100000F8012B70474FF000020429C0F012804B
:100A200010F0030C00F01B80CCF1040CBCF1020FA1
:100A300018BF00F8012BA8BF20F8022BA1EB0C0176
:100A400000F00DB85FEAC17C24BF00F8012B00F86C
:100A5000012B48BF00F8012B70474FF0000200B592
:100A6000134694469646203922BFA0E80C50A0E8D1
:100A70000C50B1F12001BFF4F7AF090728BFA0E87F
:100A80000C5048BF0CC05DF804EB890028BF40F84B
:100A9000042B08BF704748BF20F8022B11F0804F8D
:100AA00018BF00F8012B704770477047704770B54A
:100AB000044685690068C10601D5302600E020267D
:100AC000C00707D070BDD4E9012130469047206AA5
:100AD000401C20626D1EF6D570BD70B50446856958
:100AE0000078C00707D170BDD4E9012120209047CC
:100AF000206A401C20626D1EF6D570BD09684A054B
:100B000001D540B27047C905FCD500B270470968ED
:100B10004A0501D5C0B27047C905FCD580B27047FF
:100B20002DE9F0470D4699469246044600F1240807
:100B30000168880604D5E06921F01001216000E019
:100B40000120A84201DD471B00E00027A1697A19B6
:100B500002EB0900081AA0612078C00602D42046E2
:100B6000FFF7A5FF002608E0D4E901211AF80600E6
:100B70009047206A401C761C20624E45F4DB2078AA
:100B8000C0060AD52046FFF792FF06E0D4E901210E
:100B900030209047206A401C2062381EA7F10107D0
:100BA000F4DC07E0D4E9012118F805009047206A39
:100BB000401C2062281EA5F10105F3DC2046FFF74A
:100BC0008CFF2078000602D50220BDE8F0870120C6
:100BD000FBE711680268006A530501D508700AE056
:100BE000D30501D5088006E0130603D5C217C1E975
:100BF000000200E008600120704770472DE9FF4FB8
:100C00000C461E464FF0FF378BB0D2E90001DDF8ED
:100C100060800A908A46C1F30A5505B93D46002115
:100C200008464FF00000BAF1000F00F4400005DA6A
:100C300000EB80004FF4400101EA50004FEA905968
:100C4000B9F1010F00DDB9460A9850EA4A000ED00A
:100C500044F61050A5F2FF3545432F14B8F1000FAC
:100C60001ED07542291E1EDDC9F100021CE0B8F13C
:100C7000010F4FF0000001D0302103E0F24305E006
:100C80002154401CB042FBDB30460022002121549D
:100C90000B99C1F80880C1E900200FB0BDE8F08FC2
:100CA000BD1B6D1CDEE74A4600DA694206A801F06A
:100CB000F5F906AB93E8070003AB83E8070050465D
:100CC0000A9902F02BF98DE80700A0F500501F38B3
:100CD00000900398002D0ADD42F21F014A460844A5
:100CE000002303A90390684602F0D6FB09E0A0F5B3
:100CF00000504A461F38002303A90390684602F0BB
:100D0000F5FB8DE807000004000C03D04FF0FF3026
:100D1000410800E01046B8F1000F03D00022009215
:100D200015461EE0751E05D400F0DCFD303262551C
:100D30006D1EF9D5B3460122084302D000227F1C64
:100D400004E02078302801D100227F1E002A099774
:100D500084D01DE0112D07DA00F0C4FD3032625559
:100D60006D1C50EA0102F5D1084302D00098C8B1C9
:100D70000EE00021681E05E0235C625C635422548F
:100D8000401E491C8142F7DBAB46A81B401E099060
:100D9000002004F80B000B98099AC0F80880C0E9FD
:100DA000002B7AE711264FF0000857E72DE9F04FA6
:100DB00088460446D21D22F0070191B0D1E9000116
:100DC000CDE90A0105F09BFB02460B98C00F01D04C
:100DD0002D2007E02068810701D52B2002E020218B
:100DE00001EAC000032A099001D0072A05DB034667
:100DF0004146204600F042FF0BE12078800601D5F5
:100E0000E06900E00620B8F1650F814606D0B8F130
:100E1000660F18D0B8F1670F70D131E00020B9F13A
:100E2000110F009001DB112301E009F101030AAA6F
:100E300001A90CA8FFF7E2FEDDE90C70002609F11C
:100E40000105834647E001204B4600904FF00047E4
:100E50000AAA01A90CA8FFF7D1FEDDE90DB00C9993
:100E60005D46002610B909F101000D18B9EB050027
:100E700003D4C0F1FF3609F10105A5EB09002BE011
:100E8000B9F1010F01DA4FF001090020B9F1110F9A
:100E90000090484601DD112300E003460AAA01A99B
:100EA0000CA8FFF7ABFEDDE90C704D46002683462B
:100EB000207800070AD4AB4500DA5D4601A8012D71
:100EC00004DD411911F8011C302907D04F4502DA21
:100ED00017F1040F04DA012082460FE06D1EEEE7E1
:100EE000002F02DCED1B3E4403E0781CA84200DD2D
:100EF0007D1CB81B00F1010A4FF000472078000765
:100F000003D4AA4501DB4FF0FF3A0021B7F1004FAF
:100F10000DF143088DF8431024D002202B23002F1D
:100F200001DA7F422D230A21021EA0F1010000DC1C
:100F30005FB197FBF1FC97FBF1F201FB1C7C1746BC
:100F40000CF1300C08F801CDEEE7A8F101000370B8
:100F50002188090501D5452100E06521A0F101089E
:100F600000F8011C09980FA9A1EB0807FF1D00B1AB
:100F70000120411901EBEA70A1693844081A401EAA
:100F8000A0612078C00602D42046FFF790FD0998A2
:100F900028B1D4E901219047206A401C20622078C2
:100FA000C00622D52046FFF782FD1EE0002E04DB9E
:100FB000B34502DD01A8805D00E03020D4E90121C5
:100FC0009047206A401C2062761CAAF101005FEA6B
:100FD000000A0AD100F07EFCC0680168405CD4E9D8
:100FE00001219047206A401C2062281EA5F10105BE
:100FF000DCDC07E0D4E9012118F8010B9047206AF6
:10100000401C2062381EA7F10107F3DC2046FFF7E1
:1010100064FD032011B041E601694A1C02610878B1
:10102000704700B58FB0CDE9013100210591054928
:101030007944CDE9031011466846FFF789FA0FB0ED
:1010400000BD0000E5FFFFFF0A6802F8010B0A601F
:101050007047D1E900239A4202D2531C0B601070F2
:10106000704710B5436913B1AFF3008001E0FFF79B
:1010700009FA012010BD127800F124010A70002243
:101080004A700122EDE711684FF0FF32E9E70000F6
:10109000074B70B50D467B44FFF7C3FF0446284657
:1010A00001F06EF810B14FF0FF3070BD204670BDFA
:1010B000F35600002DE9FF5F15468A460446DFF827
:1010C000AC80F8440027D8E900103E46CDE9001076
:1010D00010E03AF816106A4602A801F0F1F8411C37
:1010E00007D02178890603D5E269391891420DD8D5
:1010F0000744761C2078800602D5E069B84205DDF9
:10110000AE42E6DB3AF816000028E2D1A069C01B27
:10111000A0612046FFF7CBFCD8E90010CDE9001014
:10112000002017E03AF818106A4602A801F0C8F843
:10113000B0F1FF3F81460BD000250DF1080B05E013
:10114000D4E901211BF8050090476D1C4D45F7D3EC
:1011500008F10100B0428046E4DB206A3844206296
:101160002046FFF7BAFCBDE8FF9F00002E5E00009E
:101170002DE9F0418046D21D22F007020025D2E978
:101180000002F52915A614D0011E72F1000106DA3D
:101190000023D0EB030063EB020211A608E0D8F8AD
:1011A00000108B0701D50FA602E0490701D50EA656
:1011B00001251146002408F1240704E000F092FB09
:1011C00030323A55641C50EA0102F7D12B463246C0
:1011D00021464046BDE8F041FFF7A2BC00000000F8
:1011E0002D0000002B0000002000000030B4002182
:1011F00000F1240408E002F00705D208303542EA85
:101200004372DB086554491C52EA0305F3D10468B4
:10121000002310A2250707D5A40600D421B1C46974
:1012200001230DA2641EC46130BCFFF779BC10B568
:10123000044621461068FFF76AFC02462046BDE8D6
:1012400010400023D2E7D21D22F00701D1E900238C
:10125000CCE700000000000030000000F0B40D46B4
:101260000188090502D5214C7C4402E01F4C7C44D6
:101270000E34002100F1240608E002F00F071209E5
:10128000E75D42EA03721B097754491C52EA0307DF
:10129000F3D102780023120704D5702D06D009B1CE
:1012A000022311342246F0BCFFF73ABC012310346C
:1012B000F8E770B504460D4621461068FFF727FC95
:1012C000024629462046BDE870400023C6E7D21DED
:1012D00022F00703D3E90023C0E70368126843F054
:1012E000200303600823C3610023B7E7905C00007C
:1012F0003A2800D2303820F02002412A01D3A2F14E
:101300003700884201D34FF0FF3070472DE9FF4F7F
:1013100006468BB00878FF2806D0491C2D2805D03A
:1013200000244FF0000908E000200CE00124F8E759
:1013300009EB8903491C00EB43090878FF28F7D122
:1013400014B1C9F100008146107800252C46AA4648
:1013500029462D2801D02B2804D1521C2D2813D02A
:10136000002082468B461078FF280FD04FF0000CEB
:101370000A21521CA5FB017804FB018105FB0C111D
:10138000C5194BEB0104EEE70120EAE7002108460E
:101390004FF00000BAF1000F02D000EB80004008CF
:1013A000C0F38157012F01DD4FF0FF370E9955EA49
:1013B000040009EB01080BD04FF0020918F5FA7F81
:1013C00016DA4FEACA70002F706008DD012007E0CE
:1013D0004FEACA70C6E900B00FB0BDE8F08F002038
:1013E000306000F07BFAC0F800901821084616E043
:1013F000B8F5FA7F18DD002F02DAF748784401E0EB
:10140000F6487844D0E90010C6E9001040EACA70F6
:10141000706000F063FAC0F80090142108460FB025
:10142000BDE8F04F05F0CBBC002108464FF00000AE
:10143000B8F10001099002DAC7F1000200E03A4673
:1014400001DAC8F1000106A800F028FE06AB93E817
:10145000070003AB83E8070044F23E005BEA0401A7
:101460000090584604D144F21E012C465D4600917E
:10147000210C0904014306D10099240444EA1544CF
:101480002D041039009104F07F41014306D10099E9
:10149000240244EA15642D020839009104F07041D9
:1014A000014306D10099240144EA15742D01091F56
:1014B000009104F04041014306D10099A40044EAA0
:1014C0009574AD00891E009104F00041084304D1D9
:1014D00000986D196441401E00904FF001033A4698
:1014E0006846B8F1000FCDE9014503A902DD02F01D
:1014F00012F801E001F0E5FFBAF1000F04460D46D5
:1015000001D084F00044002108464FF00000099902
:1015100040F2FF77484010F00C0F07D124F0004054
:10152000284303D0C4F30A50B84212D100F0D6F9D0
:10153000C0F80090C4F30A50B8420AD1A8487844D1
:10154000D0E90010C6E9001004F0004108437060C3
:1015500042E7C6E900543FE72DE9FF4F1F464FF031
:10156000000A4FF0FF38454691B0D7E90146CDF863
:101570003CA000F0AFF9C0680168405C1090B96908
:1015800012986D1C8847396A814688470028F6D131
:10159000B9F1FF3F0AD0002E24F4D06411DDB9F177
:1015A0002B0F08D0B9F12D0F0BD102E0404615B03A
:1015B00013E744F48064B96912986D1C8847761E5D
:1015C0008146600504A901D52D2000E02B20002EC6
:1015D00001F1010B0DF130088DF810003FDDB9F17C
:1015E000690F08D0B9F1490F05D0B9F16E0F02D0DB
:1015F000B9F14E0F1CD13B4601A8009580E850027E
:10160000DDE912126FF0020005F044FCC11CCED1DE
:101610000EE0B96912986D1C884781461398761EB2
:1016200044F4007405600F98401C002E0F9016DDE6
:10163000B9F1300FEDD0B9F1780F02D0B9F1580FF0
:101640000DD10F9801280AD13B46CDE90054DDE9C0
:101650001212001F029605F01BFCC11CA7D11099A5
:1016600089453ED144F0800406E01399681CAAF134
:10167000010A44F400740860B9696D1C1298761E62
:10168000884730288146F0D02BE01099894505D154
:10169000200603D4761E44F0800418E0484605F086
:1016A0006EF808B3761E0DF123018B4544F40074E7
:1016B00008D2A9F130000BF8010B200607D5AAF1DA
:1016C000010003E0200602D40AF101008246A005D1
:1016D00002D51399681C0860B96912986D1C884777
:1016E0008146002ED1DC53E0002E51DDB9F1650FAB
:1016F00002D0B9F1450F4BD1A00549D5B9696D1C90
:101700001298761E24F440748847002E81460CDD22
:101710002B2804D0B9F12D0F07D144F48074B96996
:1017200012986D1C8847761E8146E00501D52D2153
:1017300000E02B2108F8011BCDF8008021E0761E87
:101740000DF13901884544F400740CD2A9F1300040
:1017500010F0FF0088F8000002D10099884509D9EF
:1017600008F1010806E0E00501D51E4801E042F25B
:101770000F708246B96912986D1C8847814613988C
:101780000560002E04DD484604F0F9FF0028D6D19C
:10179000F96912988847FF2053468BF8000088F8B3
:1017A000000000200A900B9004AA0CA90AA8FFF7D9
:1017B000ADFDA00502D46FF00100F8E614F0240F8F
:1017C00012D0E0071CD13868DDE90A12031D3B6026
:1017D0000068C0E9001213E0545D0000465D00009F
:1017E0000A5C0000F1D8FFFF0AA9684604F0B4FFC4
:1017F000E00705D13868009A011D39600068026071
:101800002846D4E6026811441378016018467047F0
:10181000D16005497944516104497944116200213C
:101820001161114600F080BAEDFFFFFF5101000089
:10183000426842B1016811F8013B23B1521EC0E970
:101840000012184670470121C160881E7047426827
:101850005AB1C368016843B983688B4205D0491EF9
:10186000521CC0E90012002070474FF0FF30704753
:1018700010B5203AC0F00B80B1E81850203AA0E82B
:101880001850B1E81850A0E81850BFF4F5AF5FEA5F
:10189000027C24BFB1E81850A0E8185044BF18C912
:1018A00018C0BDE810405FEA827C24BF51F8043BB9
:1018B00040F8043B08BF7047D20728BF31F8023B0D
:1018C00048BF11F8012B28BF20F8023B48BF00F8A1
:1018D000012B704700487047700300200048704794
:1018E0005003002030B5B0F10A024FEA900E71F1BA
:1018F00000034EEA817EB0EB0E0061EB91014FEAEE
:10190000101E4EEA017E10EB0E0041EB11114FEA62
:10191000102E4EEA016E10EB0E0041EB11214FEA42
:10192000104E4EEA014E10EB0E0041EB11414018F3
:1019300041F100014FEAD00040EA41704FEAD10185
:1019400010EB80054FEA810444EA907444EB0104F3
:101950006D1944EB0404521BA3414FF0000348BF30
:101960000A3200D530BD401C41F1000130BD10B538
:10197000044600F023FD0068005D00F0010010BD8A
:101980002DE9F04F04460D46D21D22F0070089B024
:10199000D0E900974846394604F0B1FD0246F80FF9
:1019A00001D02D2307E02068810701D52B2302E019
:1019B000202101EAC0038DF820300BB1012000E0A6
:1019C0000020032A824601D0072A04DB294620464C
:1019D00000F054F93FE12078800601D40D2500E0A5
:1019E000E569C7F30A560D2D49DA00214FEA175B66
:1019F00008464FF00000002F00F4400007DA00EB2B
:101A000080004FF4400100EBD07001EA60008115C6
:101A1000012901DD4FF0FF3100224FEA850CBCF1B6
:101A2000180F06D31346ACF118004FF08052C24095
:101A300003E04FF4801323FA0CF30CF10C0CBCF10F
:101A4000200F04D3ACF1200C09FA0CF001E007FAE6
:101A50000CF000294FF0004801DD18B90FE00ED15D
:101A600040450CD319EB02095F4121B9404502D131
:101A70009F4329EA0209BBEB175F00D0761C208840
:101A8000000502D57B48784402E07A48784419384A
:101A900008AA302302F80A30037C0AF10101002E63
:101AA0000AF1020A53546A4602DC4FF0300101E0A9
:101AB0004FF031014FF001088DF8001002D0A6F26E
:101AC000FF3603E059EA470100D06B4E002D02DCDF
:101AD0002178090704D54FF002082E218DF8011056
:101AE000C44600210BE0C7F303433F01C35C491C1C
:101AF0006D1E02F80830052908F1010801DA002DF1
:101B0000F1DC00210CE000EB1973491C1B786D1E01
:101B1000082902F808304FEA091908F1010801DA2A
:101B2000002DF0DC21688B0602D516E0A8F1010833
:101B3000E04505DD02EB080313F8013C302BF5D03E
:101B4000B8F1000F09DD02EB080313F8013C2E2B5E
:101B500003D1090701D4A8F10108002D05DD3E21BC
:101B600002F808106D1E08F10108407C002E02F8F2
:101B7000080008F1010804DA2D20764202F8080076
:101B800002E02B2002F808000A214FF47A70864206
:101B900008F101080BDB96FBF0F3303302F8083054
:101BA00096FBF0F308F1010800FB136601E0642ED8
:101BB0000CDB642096FBF0F3303302F8083096FB20
:101BC000F0F308F1010800FB136601E00A2E06DBC2
:101BD00096FBF1F0303002F8080008F1010896FB9E
:101BE000F1F001FB1060303002F80800A16908F143
:101BF000010808EB050202EB0A00081AA061207830
:101C0000C00602D42046FEF752FF216A08AE01EB5F
:101C10000A00206204E0D4E9012116F8010B904784
:101C2000BAF1010AF7D22078C00602D52046FEF7A5
:101C30003EFF6E4609E016F8010B3E280FD0D4E9AE
:101C400001219047206A401C2062B8F10108F2D2BD
:101C50002046FEF742FF09B00320BDE8F08F206A5E
:101C60002844206203E0D4E90121302090476D1E12
:101C7000EBD3F8E7AD54000002FCFFFF2DE9F04183
:101C80001F46044603260168072A01F4006004DBAE
:101C900008B116A505E016A503E008B115A500E0FA
:101CA00015A521F010002060A069C01EA0610FB131
:101CB000401EA0612046FEF7FAFE4FB1D4E9012193
:101CC00038469047206A401C2062C01C206206E013
:101CD000206AFAE7D4E9012115F8010B9047761E36
:101CE000F8D22046FEF7F9FEBDE8F0814E414E00E5
:101CF0006E616E00494E4600696E660010B543691C
:101D000013B1AFF3008001E0FFF7D4F9012010BD5B
:101D1000128800F1240182840022C2840122EDE7AE
:101D200011684FF0FF32E9E72DE9F34F4FF0000A59
:101D30000C4656468DB001200C9001F10C000B9022
:101D400062690B9801219047051E2DD0252D2CD0BE
:101D5000216A8847C0B162690B9801219047216AC6
:101D600088470028F7D16269411E0B98904700E030
:101D7000761CA1690D988847216A88470028F7D109
:101D8000E1690D988847DBE7A1690D988847A8426B
:101D9000074601D1761CD3E7E1690D9888477F1C7F
:101DA00002D1BAF1000F6FD06BE162690B98002786
:101DB0003D46394690472A2804D162690B98012193
:101DC00090470125DFF8D08262690B980121904786
:101DD000A0F130010A290AD24745E5DC07EB87016B
:101DE00000EB4107303FDFD445F01005ECE7E90692
:101DF00001D46FF000476C280AD04C2814D0682812
:101E000015D06A280DD074281CD07A281AD01DE06D
:101E100062690B98012190476C2802D045F00405B7
:101E200014E045F002050DE045F020050AE0626986
:101E30000B9801219047682802D045F0080505E07D
:101E400045F4006562690B9801219047C4E9015788
:101E500065283DD019DC58287AD00CDC452837D0CD
:101E600004DC252826D041289ED131E046282FD0F9
:101E7000472899D12CE05B2877D0612828D06328A7
:101E80007CD0642823D15AE0F6E06F2848D008DCE3
:101E900066281DD067281BD0692821D06E2816D14E
:101EA00027E0702845D0732868D0752847D0782857
:101EB0000DD14DE0A1690D988847252805463FF4CE
:101EC00069AFE1690D9888476D1C3FF46AAFD8E0AF
:101ED0000D9923466A466FF0010004F0D7FFC5E074
:101EE00045F0400023464FF000026060A80736D45A
:101EF0003EE0E8077FF447AF2068011D21600068DD
:101F0000290501D506701BE7290701D5068017E7CB
:101F1000A90703D5F117C0E9006111E706600FE7D3
:101F200045F0400023464FF008026060A80716D431
:101F30001EE040F60E0125EA0100606016E045F063
:101F4000400023464FF00A026060A80707D40FE064
:101F500045F040006060A80708D5234610220D997F
:101F60006FF00100AFF3008080E007E0102223460D
:101F70000D996FF00100FEF7CDFB77E04FF00009FF
:101F800063284F46C8464B46CB4602D05B2806D056
:101F900038E0E80601D40120A060012732E0626940
:101FA000D4F80CB00B98012190475E2807D14FF070
:101FB000010949466269D4F80CB00B989047216931
:101FC00039B900210A4603AB43F82120491C0829EE
:101FD000FADBD8B3216949B308F1010862690B98AB
:101FE000012190475D28F4D1B9F1000F09D00020FC
:101FF00003A951F82020D24341F82020401C082892
:10200000F7DB03AB2069002820794FEA40701ED02F
:102010005B462246CDF80080CDE901970D99002856
:102020006FF0010020DAAFF300801FE0C11703AAB0
:1020300000EBD1614B1121F01F0102EB8302411A29
:1020400013680120884003431360C7E719E00D9926
:10205000224600286FF00100009702DAAFF30080FB
:1020600004E0AFF3008001E0AFF3008000280ADA5B
:10207000401C06D10C9820B14FF0FF300FB0BDE8E6
:10208000F08F5046FAE7E90701D10AF1010A064448
:1020900000200C9054E60000CCCCCC0C2DE9F0478D
:1020A000814616468AB0354878440DC88DE80D0043
:1020B00032487844801C03AC0DC884E80D0041F61A
:1020C0009B300844372190FBF1F290FBF1F5A5F12C
:1020D000800501FB12041B3C02D56442012000E094
:1020E0000020DFF898A080460027FA44AAF1BE0A33
:1020F0000EE0E0070AD03246684607EB47010123AD
:102100000AEB810101F0F2F98DE8070064107F1CF1
:10211000002CEED1194F7F44AE3F19E0E80715D0EF
:1021200007EB04100DF1180A90E80E008AE80E0083
:10213000C068F04201D1981908903246012306A9DF
:1021400003A801F0D3F903AB83E807006D10641C0A
:10215000002DE3D14FF0010332466946B8F1000F7C
:1021600003A802D001F098F901E001F0BFF9C9E934
:102170000001C9F808200AB0BDE8F0871C4F000034
:10218000007B00F08000704710B542485421FEF7F4
:1021900064FC41485421FEF760FC40485421FEF79E
:1021A0005CFC3F493B483C4A3F4B08603D490A6064
:1021B0003A491960531C0365481C106501200865E5
:1021C0003B48344A39A1784400F080FB20B93848B4
:1021D00078440A3800F01FFC37482F4A35A178446C
:1021E00000F074FB20B9344878440A3800F013FC3E
:1021F00032482A4A2FA1784400F068FB20B92F48C2
:1022000078440A3800F007FC40232248DC00002113
:10221000224600F037FB20B125487844543800F0BE
:10222000FAFB1D4822464023002100F02BFB20B181
:1022300021487844543800F0EEFB18482246102319
:10224000002100F01FFB002806D01C487844BDE8A0
:102250001040563800F0DFBB10BD104870B5006D5F
:1022600020F001040B4800F0A7FB0B4800F0A4FB92
:102270000A4800F0A1FB09E0206D20F0010520468E
:1022800000F09AFB204600F0A1F82C46002CF3D178
:1022900070BD000054020020A8020020FC020020B3
:1022A0003C0000204000002044000020720000009C
:1022B000164E000077000000024E0000EE4D0000B8
:1022C00070B516460C46054600F078F8036893F89A
:1022D0000101012806D0FF2C0FD8185D68B101203C
:1022E0002C7070BDD3F807013246214603F2071364
:1022F00003442846BDE8704018474FF0FF3070BDDA
:102300000EB5CDE90001FEF7D7FA0290694601202B
:10231000ABBE0EBD08B5694600900220ABBE08BD3D
:102320001FB58DE8070069460520ABBE04B010BD9F
:102330001FB58DE80F0069460620ABBEF6E708B56D
:10234000694600900920ABBE08BD1CB5CDE900016F
:1023500069460A20ABBE1CBD704708B569460090AF
:102360000C20ABBE08BD00000048704750030020A1
:102370007546FFF7F9FFAE4605006946534620F063
:102380000700854618B020B5FDF7CCFFBDE820401A
:102390004FF000064FF000074FF000084FF0000B21
:1023A00021F00701AC46ACE8C009ACE8C009ACE8D4
:1023B000C009ACE8C0098D467047000010B5FFF7B2
:1023C00089FA001D10BD00BFF144000070B504463D
:1023D000051F00F069FB0068002C14BF446870BD45
:1023E000002C18BFAC423CBF20466468F8D301689B
:1023F0000A18AA4218BF456003D12A68054611444D
:10240000016028684119A1421CBF6C6070BD616801
:10241000696021680844286070BD10B5FFF75EFA56
:10242000006810BD10B50446FFF758FA046010BDEF
:102430002DE9FF4F1F464FF03C0987B04FF0004297
:10244000DDE9141001F10108DDF858A002EA40505E
:102450000390002005908346054604460490B96920
:10246000461E08988847AAF1010A0290BAF1000FA7
:102470003BDD02982E2815D01021FEF739FF0028E9
:102480002EDB4FF0010B0599014317D0B9F1000F76
:102490000BDB4A46C11700F081FB05430C43A9F151
:1024A000040905E0012004900BE008B145F00105A6
:1024B00001200590049820B9361D02E0049800B16F
:1024C000361FB969089808F101088847BBF1000F69
:1024D000AAF1010A0290C9D00999C1F80080C5E7A4
:1024E0000298702808D0502806D0F96908988847C3
:1024F000BBF1000F14D04FE0002002900120BBF18F
:10250000000F049009D0B969089808F101088847BC
:10251000AAF10109B9F1000F07DCF96908988847A9
:102520006FF001000BB0BDE8F08F2B2804D02D28F0
:102530000CD14FF0FF300490B969089808F10108F8
:102540008847A9F10109B9F1000FE6DD411CE4D08B
:102550000A21FEF7CDFE0028DFDB029908F1010811
:1025600001EB810100EB41000290B96908988847AE
:102570000A21FEF7BDFE099AA9F10109B9F1000F80
:10258000C2F8008001DD0028E7DAF9690898884779
:102590000499029800FB016655EA040004D004F097
:1025A0004041090002D006E0039898E0A40044EA04
:1025B0009574AD00B61E04F00041080002D16D19FB
:1025C0006441761E159810F0240F03D04FF00B09CC
:1025D0005C4803E04FF028096FF07D0082465645C5
:1025E00007DAAAEB06018944B9F1410F01DD4FF08A
:1025F000410901200021A9F1010200F0CFFA0246B1
:1026000028400B462140084301D0012100E0002171
:10261000501E029143F1FF3128402140084301D070
:10262000012000E000200299834651EA0B014FD0BF
:10263000002108464FF00000039900F4400039B132
:1026400000EB80004FF4400100EBD07001EA600025
:102650008015012802DD4FF0FF3000E013D0401C50
:1026600036D0029860B3BBF1000F0CD14A4601206E
:10267000002100F093FA28402140084301D00120B6
:1026800000E00020E0B101204A46002100F086FA77
:10269000034640190A4661412D1A8C4111D3B9F104
:1026A000400F09DD159810F0240F02D0AAF134066E
:1026B00003E0AAF1170600E0761C00254FF0004465
:1026C00006E05B1E42F1FF3220EA030521EA020424
:1026D000CAF10100B04206DA1B4903980843019091
:1026E000002000900EE0039AC4F3D321E80A0A43C5
:1026F000164940EA44500A433146CDE90002684693
:1027000004F033F8159810F0240F0BD01598C0077B
:1027100015D13868DDE90012031D3B600068C0E98F
:1027200000120CE002A8694604F016F81598C007DC
:1027300005D13868029A011D396000680260404680
:10274000F0E6000002FCFFFF0000F07F0000F03F19
:102750002DE9FF4F92461D4685B04FF00041DDE95F
:10276000124BDDE914727F1E01EA4B50414940F0E3
:10277000FF4940EA0108002122F020004928049185
:1027800002D04E2828D04CE03BA0012607C88DE897
:102790000700A9690698641C88477F1E014606D475
:1027A0001DF8060018B121F0200181420BD0E96923
:1027B00006988847032E34D0082E32D06FF00100DF
:1027C00009B0BDE8F08F761C032E01D0082EE0D1B1
:1027D000601CCAF80000DCE7A9690698641C8847F9
:1027E0007F1E2AD420F02000412826D1A96906980E
:1027F000641C88477F1E20D420F020004E281CD166
:10280000A9690698641C88477F1E48F4002849F48B
:102810008009CAF8004001D4282806D0E969069842
:1028200088475FEACB7012D022E0A9690698641C41
:1028300088477F1E01D4002803DAE9690698884793
:10284000BCE72928F1D1641CCAF80040E9E71BF075
:10285000240F07D028680499031D2B600068C0E985
:10286000001805E02868021D2A600068C0F8009082
:102870002046A5E70000F07F494E46494E4954598D
:102880000000000070B5C468A50713D0650211D41C
:10289000B2F5807F09D0B2F5007F06D0B2F5806F27
:1028A00008D1012300F1240106E05D1E6FF07F4690
:1028B000B54201D3012070BD0161C361416024F4C0
:1028C00070611143C160002070BD00002DE9F0412E
:1028D0000C4607461646104600F06EF82078611C3C
:1028E00061280AD0722802D077283CD102E0012565
:1028F000002405E00225042402E0082448F2020531
:1029000011F8010B2B2806D0622809D011F8010C10
:1029100074280AD00BE045F0030544F00204EFE709
:1029200045F0040544F00104EAE744F01004384699
:102930002146FFF7E5FC411C15D000213161716093
:102940004FF40071F560F1617061200704D53046E5
:102950000222002100F036F9306D40F001003065B0
:102960003046BDE8F0810020FBE72DE9F0410D463F
:102970000646104C206DC10704D0410804D020F059
:102980000104F7E722460EE0542000F0D8F80700D3
:102990000ED0206D47F001010843542120653846D0
:1029A000FEF75BF83A4629463046BDE8F0418DE730
:1029B0000020D6E7540200202DE9F04704464FF0EE
:1029C00000094FF0FF37C568D4E90486A80707D08F
:1029D000204600F0A7F93046FFF79CFC002802DAF9
:1029E0003846BDE8F087280502D54046FFF7EEFCE3
:1029F0004C212046FEF731F8206D20F001002065C3
:102A00004846EEE710B50446AFF300802046BDE827
:102A10001040FDF772BC10B500F0CEF9BDE81040D3
:102A200000F0C4B94FF0013C50F8042B51F8043BBE
:102A30009A4221D1A2EB0C03934313EACC1317D192
:102A400050F8042B51F8043B9A4215D1A2EB0C0329
:102A5000934313EACC130BD150F8042B51F8043BE9
:102A60009A4209D1A2EB0C03934313EACC13DBD0B7
:102A70004FF00000704700BFD01A01BAB1FA81F1DF
:102A800001F0180122FA01F0CB40C1F12001DBB2C4
:102A9000C0B2C01A2CFA01F3D11A914311EAC31142
:102AA000E6D1704770470000004870475803002087
:102AB000704770477047704738B504460A46002093
:102AC0006946AFF30080002808BF38BD0246009970
:102AD000204600F098F9012038BD012000F0E7B948
:102AE000F8B5AFF30080054600200C46102000BF6B
:102AF0000646A819A0420DD9324669460020AFF318
:102B00000080070008BF00F0D2F90098A04218BF6B
:102B10000546C419FFF7C8FF05600746F01D20F001
:102B200007004619284600F067F9B44208BFF8BD0F
:102B3000A21B31463868BDE8F84000F064B970B5B2
:102B40000646FFF7B1FF056806F10B0020F0070409
:102B5000B4429CBF002070BD2B466A68BAB11068B1
:102B6000A04210D304F1080188423CBF506858606D
:102B700007D35168101941601168091B0160586042
:102B80001460101D70BD13465268002AE7D121461B
:102B90002846FFF791FF0028DED170BDB2F1200377
:102BA0000AD5C2F1200301FA02F120FA03F300FA78
:102BB00002F041EA0301704700FA03F14FF0000010
:102BC000704700002DE9F041044616460D4647695E
:102BD000007B80072ED03846FFF7B1FB50BB3EB3D9
:102BE000012E02D0022E25D104E0204600F025F966
:102BF00005441DE03846FFF7B0FBE168002841F0CE
:102C00001001E16005DA204600F058F80120BDE827
:102C1000F081C9030BD56268E16A914200D8114680
:102C2000A26911442269891A814200DD08460544DF
:102C3000002D01DA0220EAE7E16A6068E268814279
:102C400006D29103E06203D522F4003141F0100274
:102C5000A6690027AE4213DCE16A814201D90B4626
:102C600000E0034603EB060C2369ACEB030CAC4518
:102C700006DD814201D98C4600E084469C4505D1A1
:102C8000A760276042F02000A5620DE0AD1BE66959
:102C9000AE1B8142A66000D90846C01A281A2060DF
:102CA0005819606022F0200003490840E0600020CD
:102CB00084F84870ABE70000BFCFD7FFC16821F4AC
:102CC000001141F08001C160002181600160704706
:102CD0002DE9F047814614460E464FF0FF38324842
:102CE000D5685769054209D03846A169FFF72DFB21
:102CF000002811DB2C48C0430540E5602B463246D6
:102D000049463846FFF70CFBA16920F00042B21A91
:102D100011440028A16103D02046FFF7CFFF4046B1
:102D2000BDE8F08770B504460569C06A61688842ED
:102D300000D80846E16821F42011E160C90312D5EA
:102D4000A84208D02246411B2846FFF7C1FF10B118
:102D50004FF0FF3070BD0020E562C4E90150E0682B
:102D600020F48030E060002070BD10B50446C068DB
:102D700020F02000E060A16AA06988420DD02046C2
:102D8000FFF7D0FFE06820F4405040F01000E06012
:102D9000A06AA0612069E062606044F24001E068DE
:102DA0008843E06010BD000010000200002801D040
:102DB00000F01CB87047000010B5014602A000F0FA
:102DC0005DF8012010BD000053494752545245445C
:102DD0003A2052656469726563743A2063616E27B4
:102DE00074206F70656E3A200000000001491820C1
:102DF000ABBEFEE72600020000210160C0E9011021
:102E0000704710207047034640688C46002818BF62
:102E100088423CBF03464068F8D31868184488428B
:102E200007D00CF1030020F00700001D411A521AD0
:102E30000146081D0A60FFF7C9BA10B50146C2680D
:102E4000900703D0900607D5886A0AE0FEF746FD92
:102E500001210160881E10BD8B69486818440B6908
:102E6000C01A91F848301BB191F84910401A10BDB2
:102E70001103FCD50028FADD401E10BD70B50546D3
:102E80000C460A2000E06D1C00F018F835B12878D7
:102E90000028F8D102E0641C00F010F814B120788A
:102EA0000028F8D1BDE870400A2000F007B810B53E
:102EB00000F00CF8BDE81040FFF778BF08B5694690
:102EC0008DF800000320ABBE08BD000010B501283E
:102ED00005D0002103A0FFF7D1FF012010BD09A1FB
:102EE000F8E7000053494752544D454D3A204F757D
:102EF00074206F662068656170206D656D6F7279F2
:102F0000000000003A2048656170206D656D6F72A9
:102F10007920636F72727570746564005FEA400CAB
:102F200008BF91F0000F4FEA8C234FEAC12243EA19
:102F300051514FEA1C5018BF00F5F0404FEA3000E5
:102F400018BF41F000415FEA6C5C00F02980BCF1E1
:102F5000FF3F08BF40F080407047130C06BF1204CB
:102F60004FF0100C4FF0000C130E04BF12020CF1C6
:102F7000080C130F04BF12010CF1040C930F04BFD3
:102F800092000CF1020CD30F04BF52000CF1010CA3
:102F900011464FF00002A0F11F00A0EB0C0070479B
:102FA00011F0004F08BF704731F000413FF4D5AF3A
:102FB0000B0C06BF09044FF0100C4FF0000C0B0E69
:102FC00004BF09020CF1080C0B0F04BF09010CF13E
:102FD000040C8B0F04BF89000CF1020CCB0F04BF53
:102FE00049000CF1010CCCF12003A0EB0C0022FAFB
:102FF00003F302FA0CF241EA030100F10100704709
:1030000020F07F4C80EA030023F07F47ACEB0703FE
:1030100003F57C5300F0004003F1FF032DE98049E4
:103020004FEA154B09B44FEA144325EA0B4E24EA44
:1030300003480FF2042606EB132749083E785FEA9F
:10304000320203FB0667C7F5000707FB06F64FEAE7
:1030500054374FEAD64606F1020607FB066CCCF160
:10306000005C4FEA1C472CEA074C07FB06F40CFBFC
:1030700006F504EB15464FEA961634BF00204FF0D4
:1030800000404FEAD13706FB07FC4FEA1C4C0CFB13
:103090000BF7D21B03FB0CF761EB07010CFB0EF7E0
:1030A000B0EB074072EB17420CFB08F734BFA2EB02
:1030B0000742B2EB074261EB17414FEA0C444FEA7B
:1030C000910706FB07FC4FEA1C4C0CFB0BF7B0EB1F
:1030D000C74072EB573203FB0CF734BFA2EBC74279
:1030E000B2EBC74261EB57310CFB0EF7B0EBC700F8
:1030F00072EB57720CFB08F734BFA2EBC702B2EBBE
:10310000C70261EB5771039F4FEA816141EA921157
:1031100004EBCC044FEAD1374FEA826206FB07FC8E
:1031200042EA90124FEA80604FEA1C4C0CFB0BF70E
:10313000D21B03FB0CF761EB07010CFB0EF7B0EBA6
:10314000074072EB17420CFB08F734BFA2EB0742B3
:10315000B2EB074261EB17414FEA8C554FEA9107FA
:1031600004EB9C2406FB07FC4FEA1C4C0CFB0BF702
:10317000B0EBC74072EB573203FB0CF734BFA2EB46
:10318000C742B2EBC74261EB57310CFB0EF7B0EB15
:10319000C70072EB57720CFB08F734BFA2EBC702F3
:1031A000B2EBC70261EB577115EB4C254FEA816119
:1031B00041EA92114FEA82624FEAD13742EA901215
:1031C00006FB07FC44F100044FEA80604FEA1C4C08
:1031D0000CFB0BF7D21B03FB0CF761EB07010CFB9D
:1031E0000EF7B0EB074072EB17420CFB08F734BF49
:1031F000A2EB0742B2EB074261EB174115EB1C153E
:103200004FEA813141EA92414FEA823242EA9042EA
:103210004FEA80304FEA0C7644F1000448EA034359
:103220004EEA0B484FF0000EB2EB080C71EB0307AF
:1032300024BF624639464EEB0E0E4FF0000B0018CD
:10324000524149414BEB0B0BB2EB080C71EB0307FE
:103250007BF1000B24BF624639464EEB0E0E4FF059
:10326000000B0018524149414BEB0B0BB2EB080C21
:1032700071EB03077BF1000B24BF624639464EEB2E
:103280000E0E51EA020718BF46F0010616EB0E7645
:1032900055F1000254F1000103D5BDE88901BDE8F4
:1032A0000088BDE88901BDE80048B619524141EBEC
:1032B0000101A3F10103704780807F7E7D7C7B7AD2
:1032C0007978777676757473727171706F6E6E6DD2
:1032D0006C6C6B6A6A696868676666656464636378
:1032E00062616160605F5F5E5E5D5D5C5C5B5B5AFE
:1032F0005A5959585857575656555555545453536B
:1033000052525251515050504F4F4F4E4E4D4D4DC5
:103310004C4C4C4B4B4B4A4A4A4949494848484710
:10332000474747464646454545444444444343434E
:10333000434242424241414146EA0646A3F57053A8
:103340004FEA164646EA42564FEAD22242EA415234
:1033500010B54FEAD121A3F1010300F02FF820F0BE
:10336000004000F1020C00F0004701EB0050114654
:10337000BCF5006F40EA070000D210BDBAF1000FA3
:103380000AD01CB503B44FF004004FF004014FF015
:1033900000000FBCBDE810404FF00001BBF1010F71
:1033A000B9BF04484FF0FF310348002140EA07004D
:1033B00010BD00BFFFFFEF7F0000F07F002B9C4699
:1033C00030D477002BD01CB54FEA370703B44FF049
:1033D00010004FF01001BAF1000F06D0BCF1000F41
:1033E000DCBF40F0080040F008014FF000000FBCC7
:1033F000BDE810400BF1010BBBF1010F08BF5FEA04
:10340000170722BF12F1010211F101014FF0004133
:1034100043F1000300F0004043EA00007047F9D395
:103420005708D0E746EA064613F1400F4FEA164622
:103430001FDD13F1200FDFBF16430A4600212033A2
:103440005B42BED0C3F1200746EA064602FA07F700
:103450004FEA164646EA0706C3F1200722FA03F2AE
:1034600001FA07F721FA03F14FF0000342EA0702DD
:10347000A7E746EA020646EA06464FEA164646EA45
:103480000106BCBF46EA0646360C4FF000034FF07B
:1034900000024FF0000194E72DE9804C9A469346D4
:1034A00070B491E8380007C831EA400C48BF34EAEC
:1034B000430C03D5FFF7A4FDFFF780FFF0BCBDE888
:1034C000008C2DE9804C9A46934670B491E8380000
:1034D00007C831EA400C48BF34EA430C03D5FFF774
:1034E0008FFDFFF729FFF0BCBDE8008C2DE9804C73
:1034F0009A46934670B491E8380007C810F0804FA0
:1035000008BF13F0804F03D100F01AF8FFF756FF01
:10351000F0BCBDE8008C2DE9804C9A46934670B40F
:1035200091E8380007C810F0804F08BF13F0804FB3
:1035300003D100F005F8FFF7FFFEF0BCBDE8008CFA
:1035400020F07F4780EA030023F07F4C07EB0C0359
:10355000A3F57C5300F00040A3F1FE0392F0000FAE
:1035600000F0B38095F0000F00F077802DE901495D
:103570004FEA11404FEA144621EA004800FB06FCDE
:1035800024EA064708FB06F607FB08F800FB07F7E6
:1035900018EB06484CEB164C4FEA124B18EB074859
:1035A0004FEA15464CEB174022EA0B4E0BFB06FC8C
:1035B00025EA06470EFB06F607FB0EFE0BFB07F798
:1035C0001EEB064E4CEB164C4FF000061EEB074E62
:1035D0004CEB174B18EB0B0840F1000018EB0E0BEF
:1035E00058EB000840F100008F1A4FF000013CBF7B
:1035F000C943661B14BFB5EB040C00213CBFC94393
:10360000F61B4FEA17444EEA8E0E27EA04454FEAAE
:103610001C4704FB07622CEA074C05FB07F70CFB71
:1036200005F604FB0CFC16EB074642EB174216EBC3
:103630000C4642EB1C421BEB060658EB02024141D2
:1036400046EA9E0601D5BDE80189B619524141EB13
:103650000101A3F10103BDE801894FEA14454FEAD6
:10366000114724EA054621EA074C05FB07F406FB4F
:1036700007F70CFB06F105FB0CFC11EB074144EBD3
:1036800017444FEA124711EB0C4144EB1C4422EA69
:10369000074C05FB07F206FB07F70CFB06F605FBDC
:1036A0000CFC16EB074642EB174216EB0C4642EBBE
:1036B0001C456A1854F1000148BF7047B6195241C1
:1036C00041EB0101A3F10103704795F0000F37D0E2
:1036D0004FEA11424FEA144721EA024624EA074C16
:1036E00002FB07F106FB07F70CFB06F402FB0CFCE0
:1036F00014EB074441EB17414FEA154714EB0C4418
:1037000041EB1C4125EA074C02FB07F506FB07F7D6
:103710000CFB06F602FB0CFC16EB074645EB1745C7
:1037200016EB0C4645EB1C42121951F1000148BF43
:103730007047B619524141EB0101A3F101037047F3
:103740004FEA14454FEA114724EA054621EA074C9F
:1037500005FB07F106FB07F70CFB06F24FF000062E
:1037600005FB0CFC12EB074241EB174112EB0C423C
:1037700051EB1C4148BF7047921841EB0101A3F186
:1037800001037047FEE7000000B587B0012208A1E1
:10379000CDE9042100200321CDE90010029003901F
:1037A0001346074A0749084801F00AFD07B000BD63
:1037B000416E616C6F67436F6C6C6563746F720010
:1037C000A5570008B55700083401002000B587B0A0
:1037D00009A10A220020CDE9042110230321CDE90B
:1037E0000230CDE900100346074A0849084801F0B5
:1037F000E7FC07B000BD0000416E616C6F67436F6E
:103800006C6C6563746F72000558000815580008E9
:103810003401002000B587B0012209A10020CDE9C4
:103820000421F1230421CDE90230CDE90010134633
:10383000054A0649064801F0C3FC07B000BD000078
:1038400050756D7031000000C5570008D55700084D
:103850007C01002000B587B0012209A10020CDE93C
:103860000421F1230421CDE90230CDE900101346F3
:10387000054A0649064801F0A3FC07B000BD000058
:1038800050756D7032000000E5570008F5570008CC
:10389000C40100207047000072B600BF02F088FC2F
:1038A000642000F033F9F9E705280ED2DFE800F0D4
:1038B000030507090B0006A0704707A0704708A082
:1038C000704709A070470CA070470FA07047000018
:1038D0004E4F4E450000000044454C415900000049
:1038E000444550544800000044455054485F4F52EE
:1038F0005F44454C4159000053455249414C5F4398
:103900004F4D4D414E440000554E4B4E4F574E00CB
:1039100030B51FA087B000680690012403251DA0C4
:1039200001F0D4FA254A264904208DE8070006ABA9
:103930002A462146234801F063FE08B122A009E08F
:103940006423224603A91F4801F02AFE28B1032858
:103950001BD026A001F0BAFA06E09DF80E1004294B
:1039600005D02A4801F0B2FA002007B030BDDDF8DA
:103970000F0000BA20F0FF049DF812000443214616
:1039800023A001F0A3FA2046EFE729A0E2E7000018
:10399000001000025175657279696E672050756C70
:1039A000736520436F6C6C6563746F7220284449A3
:1039B0003020436F756E74292E2E2E000558000896
:1039C00015580008A400002050756C736520436FE3
:1039D0006C6C6563746F723A205472616E736D69BA
:1039E00074204572726F722E0000000050756C7367
:1039F0006520436F6C6C6563746F723A2052656327
:103A000065697665204572726F722E0090700008AD
:103A100050756C736520436F6C6C6563746F7220B6
:103A200044493020436F756E743A20256C75000050
:103A300050756C736520436F6C6C6563746F723A7C
:103A400020526573706F6E73652054696D656F7574
:103A5000742E00002DE9F0410446876D00F090F9C6
:103A6000064694F835000025022806D080206065BF
:103A700084F834500120BDE8F0812068016821F00D
:103A8000160101602068416921F080014161206CCC
:103A900008B9A06C20B12068016821F0080101601C
:103AA0002068016821F0010101600CE000F068F974
:103AB000801B052807D920206065032084F8350085
:103AC00084F83450D7E720680068C007EED194F836
:103AD0005C103F208840B860012084F8350084F8ED
:103AE00034500020C7E790F83510022903D0802118
:103AF000416501207047052180F835100068016894
:103B000021F00101016000207047000070B50446FB
:103B100000F036F90546601C02D0044800780444E1
:103B200000F02EF9401BA042FAD370BD2C000020FB
:103B30002DE9F84FDFF8F8A10022012403254FF00A
:103B40000F090AF1040BAAF1040E00BF0B6804FA76
:103B500002F63340B34270D10F7907F00307012F0B
:103B600001D0022F16D187684FEA420805FA08FCF7
:103B700027EA0C07D1F80CC00CFA08FC4CEA070C39
:103B8000C0F808C04768B7430E79C6F300169640E0
:103B90003E4346600E79F643B6070AD0C7684FEA3F
:103BA000420C05FA0CF6B7438E6806FA0CF63E4353
:103BB000C6600E7906F00306022E10D1D60800EB7F
:103BC0008608D8F8206057074FEAD76C09FA0CF737
:103BD000BE430F6907FA0CF73743C8F82070066830
:103BE0004FEA420C05FA0CF7BE430F7907F00307C2
:103BF00007FA0CF7374307604E6816F4403F1CD0B5
:103C00004C4E376847F480473760366822F0030728
:103C100006F480460096484E07EB060CDCF8086870
:103C200097073F0F09FA07F826EA0806DFF80C8124
:103C3000404503D14FF0000841E072E0DFF8008119
:103C4000404502D14FF0010839E0DFF8F8804045E7
:103C500002D14FF0020832E0DFF8EC80404502D19B
:103C60004FF003082BE0DFF8E480404502D14FF02D
:103C7000040824E0DFF8D880404502D14FF0050861
:103C80001DE0DFF8D080404502D14FF0060816E075
:103C9000DFF8C480404502D14FF007080FE0DFF89D
:103CA000BC80404502D14FF0080808E0DFF8B08042
:103CB000404502D14FF0090801E04FF00A0808FA28
:103CC00007F848EA0608CCF80888DAF80060574692
:103CD000D1F804C09E435FEACC2C00D51E433E6061
:103CE000DBF800605F46D1F804C09E435FEA8C2C8D
:103CF00000D51E433E60DEF800607746D1F804C070
:103D00009E435FEA8C3C00D51E433E60084F083F4F
:103D10003E68D1F804C09E435FEACC3C00D51E4308
:103D20003E60521C102AFFF411AFBDE8F88F00006E
:103D3000083C01404438024000300140000002408D
:103D40000004024000080240000C02400010024043
:103D50000014024000180240001C024000200240F3
:103D600000240240426921EA02030A4043EA024178
:103D7000816170470AB1816170470904FBE7000067
:103D800001488068704700002C00002002488168CC
:103D900002781144816070472C0000200B4810B558
:103DA000016841F400710160016841F480610160C3
:103DB000016841F480710160032000F06FF80F206A
:103DC00000F006F800F024F8002010BD003C02408E
:103DD00070B50D4D04464FF47A712878B1FBF0F0C0
:103DE0000A490968B1FBF0F000F00AFB48B9102C51
:103DF00007D200222146501E00F030F800206C60EF
:103E000070BD012070BD00002C0000203800002093
:103E10000A4808B5016841F480410160006800F477
:103E2000804000900548001F016841F0805101600A
:103E3000006800F08050009008BD00004438024047
:103E4000002809DB00F01F02012191404009800099
:103E500000F1E020C0F8001170470000F0B40E4BF4
:103E60001B680C46C3F30223C3F10705042D00D9D8
:103E70000425191D072901D2002300E0DB1E0126BD
:103E800006FA05F1491E214099409E40761E1640D3
:103E90003143F0BC02F04BBB0CED00E0064900F0F2
:103EA000070208684FF6FF03184040EA0220034A61
:103EB00010430860704700000CED00E00000FA05B8
:103EC0002DE9F0470E46050065D0DFF81481D8F8DB
:103ED0000000F7B200F00F00B04207D288F800707F
:103EE000D8F8000000F00F00B04254D128683D4CD3
:103EF000810712D5400703D5206840F4E0502060C8
:103F00002878000703D5206840F4604020602068CE
:103F1000A96820F0F000084320602878C0072DD061
:103F2000304968680839012812D0022813D00328C4
:103F300011D00968890700292DDA216821F00301D1
:103F400001432160FFF71CFF814641F2883A0EE0F1
:103F500009688903EFE709688901ECE7FFF710FFBB
:103F6000A0EB0901514502D90320BDE8F087206884
:103F7000696800F00C00B0EB810FEFD1D8F80010A9
:103F8000404601F00F01B14207D90770006800F008
:103F90000F00B04201D00120E7E72878400705D59F
:103FA0002068E96820F4E050084320602878000782
:103FB00006D52068296920F4604040EAC1002060ED
:103FC00000F038F82168084AC1F30311515CC84079
:103FD0000649086006480068FFF7FAFE0020C4E7BB
:103FE000003C024008380240C86E0008380000203B
:103FF000300000200448054900680968044AC1F3FC
:104000008221515CC84070473800002008380240C7
:10401000D86E00080448054900680968044AC1F3DD
:104020004231515CC84070473800002008380240D7
:10403000D86E0008154810B5006810F00C0214483E
:1040400013D04110042A0FD0082A0ED10F4C241F80
:104050002268236802F03F025B0207D52068C0F3A4
:104060008810A0FB010106E0084610BD2168C1F3DD
:104070008811A1FB00010023FCF766F92168C1F358
:104080000141491C4900B0FBF1F010BD0838024065
:104090000024F4002DE9F84F04006ED02078DFF8FA
:1040A0004C93C007A9F104054AD009F10400016846
:1040B000C1F38101012908D00068C0F38100022802
:1040C0000AD1D9F80000400206D52868800337D508
:1040D00060680028E1D033E06068B0F5803F10D020
:1040E000B0F5A02F286810D020F480302860286810
:1040F00020F4802028606068A8B1FFF741FE0646E2
:104100000DE0286840F48030F4E740F48020286017
:10411000F7E700BFFFF734FE801B642873D82868D8
:104120008003F7D50CE0FFF72BFE064605E000BF45
:10413000FFF726FE801B6428F0D828688003F7D498
:104140002078DFF8AC8280074FF0000A3ED5A74800
:10415000001D016811F00C0F08D00068C0F3810049
:1041600002280BD1D9F80000400207D42868800744
:1041700016D5E068012800D112E033E1E068B8B15B
:104180000120C8F80000FFF7FBFD064605E000BF70
:10419000FFF7F6FD801B0228C0D828688007F7D5F6
:1041A0002868216920F0F80040EAC10028600DE08D
:1041B000C8F800A0FFF7E4FD064604E0FFF7E0FDC5
:1041C000801B02281FD828688007F7D420780007B2
:1041D00022D5864F87486169703771B1012101602E
:1041E000FFF7CEFD064604E0FFF7CAFD801B02285C
:1041F00009D838688007F7D50EE0C0F800A0FFF7AF
:10420000BFFD064605E082E0FFF7BAFD801B0228ED
:104210007DD838688007F7D42078400768D5DFF864
:10422000CCB100270BF13C0BDBF80000C0000BD435
:10423000DBF8001041F08051CBF80010DBF80000F3
:10424000012700F0805000906B4E3068C00510D4FC
:10425000306840F480703060FFF792FD009005E018
:10426000FFF78EFD0099401A022850D83068C0052B
:10427000F6D55E4EA0686C3601280FD00528306850
:1042800010D020F001003060306820F00400306071
:10429000A068B8B1FFF774FD00900FE0306840F0FF
:1042A0000100F4E740F004003060F7E7FFF768FD35
:1042B0000099411A41F28830814266D830688007FF
:1042C000F4D50EE0FFF75CFD009007E0FFF758FD26
:1042D0000099411A41F28830814256D830688007EF
:1042E000F4D42FB1DBF8001021F08051CBF800108E
:1042F000A069C8B33D49091D0968C1F381010229BC
:104300004AD00228504607D0C8F8600000E03CE0E0
:10431000FFF736FD04463BE04746C8F86000FFF76C
:104320002FFD064605E000BFFFF72AFD801B02288F
:104330002BD828688001F7D4D4E907010843A16A83
:104340002E4A490802EB0141626A41EA82110843A0
:1043500094F82C1040EA0161C9F800100120386679
:10436000FFF70EFD044606E03EE000BFFFF708FD44
:10437000001B022809D828688001F7D534E000BF67
:10438000FFF7FEFC001B022802D90320BDE8F88FCE
:1043900028688001F4D427E00128F7D0D9F800007C
:1043A000E26900F4800191421CD1226A00F03F01D1
:1043B000914217D147F6C071626A0140B1EB821F8A
:1043C00010D1A26A4FF0FF3300F4403103EB5202E8
:1043D000B1EB024F06D194F82C1000F07060B0EBF6
:1043E000016F01D00120D1E70020CFE7043802405F
:1043F00000004742800E4742007000400000FFFF6F
:1044000010B5401EB0F1807F01D3012010BD4FF0E8
:10441000E02460610F21601702F089F80020A0619C
:1044200007202061002010BD7047704710F8411F21
:104430004078084370470000F8B5016804460868F2
:10444000CA684B6910F00F0F4FF0000559D003F008
:10445000010602F49077374365D0C10705D0D10536
:1044600003D5616C41F001016164410705D5D907AD
:1044700003D0616C41F002016164810705D5D90761
:1044800003D0616C41F004016164010707D502F0BB
:104490002001314303D0616C41F008016164616C1B
:1044A00000293AD0800604D5900602D5204601F0B6
:1044B000D1FE20684069616CC0F38010090700D408
:1044C00060B3204601F09FFE20684069400621D578
:1044D0002068143050E8001F21F0400140E800122D
:1044E000002AF5D1E06BA8B172490165E06BFFF7D6
:1044F000FAFA002811D0E06B016D01B0BDE8F04080
:10450000084783060FD593060DD52046BDE8F84031
:1045100001F0A0BE2046FFF788FFF8BD2046FFF758
:1045200084FF6564F8BD266B2023012E7ED1C6066C
:104530007CD5D6067AD508684868009048694FF05F
:10454000020640064DD5E26B106840684FF4807754
:104550000004000C3AD0A18D814237D9E085D069A2
:10456000B8422DD020680C3050E8001F21F4807133
:1045700040E80012002AF5D12068143050E8001FEE
:1045800021F0010140E80012002AF5D12068143022
:1045900050E8001F21F0400140E80012002AF5D148
:1045A00084F84230256320680C3050E8001F21F069
:1045B000100140E80012002AF5D1E06BFFF74AFA3B
:1045C0006663A08DE18D401A81B206E0A18D814223
:1045D000A8D1D069B842A5D166632046FFF724FF71
:1045E000F8BDA08DE18D401A81B2E08D0028F7D092
:1045F0000029F5D020680C3050E8002F22F490728A
:1046000040E80027002FF5D12068143050E8002F33
:1046100022F0010240E80027002FF5D184F8423053
:10462000256320680C3050E8002F00E006E022F0FF
:10463000100240E80023002BF3D1CDE705062BD56F
:10464000150629D594F841002128C9D1A068B0F5F4
:10465000805F01D12069B0B1206A411C21622168CC
:1046600000784860E08C401E0004000CE084B7D164
:104670002068C16821F08001C1602068C16841F0F4
:104680004001C160F8BD206A0088C0F3080048609E
:10469000206A801C2062E5E74006F3D55006F1D57C
:1046A000CA68204622F04002CA6084F8413000F017
:1046B0006FFAF8BDF961000870B5040004D094F8F1
:1046C0004100002510B106E0012070BD84F8405083
:1046D000204600F023F8242084F841002068C168B7
:1046E00021F40051C160204601F016FE20680169E6
:1046F00021F4904101612068416921F02A01416162
:104700002068C16841F40051C1606564202084F8CC
:10471000410084F842006563002070BD2DE9F04738
:1047200086B0044614216846FCF797F98449DFF8FF
:104730000CC223680024824A103903250226082768
:10474000804863451ED1136843F400231360126848
:1047500002F4002205920A6842F001020A60096828
:10476000CDE9005601F00101CDE904716946CDE9BA
:104770000245FFF7DDF9002211463420FFF76EFBFA
:10478000342038E0DFF8C0C1DFF8C0A1634537D17D
:10479000106840F480101060106800F480100590DC
:1047A000086840F004000860086800F00400059004
:1047B000086840F008000860086802AB00F00800D4
:1047C00005904FF48050CDE9000683E8B0006946BB
:1047D0005046FFF7ADF90420CDE9000602AB69466B
:1047E00083E8B0005A48FFF7A3F9002211463520AC
:1047F000FFF734FB3520FFF723FB06B0BDE8F08759
:10480000DFF85081DFF838914FF0070C09F1040907
:10481000434523D1D9F8003043F01003C9F80030E4
:10482000D9F8002002F0100205920A6842F0010255
:104830000A60096802AA01F0010105914FF4C06104
:10484000CDE9001682E830106946FFF771F90022C1
:1048500011462520FFF702FB2520CCE7DFF8F88082
:1048600043451FD1136843F400331360126802F408
:10487000003205920A6842F001020A60096802AB40
:1048800001F0010105910C21CDE9001683E83010FB
:104890006946FFF74DF9002211462620FFF7DEFAA0
:1048A0002620A8E72D48834221D1106840F48020BB
:1048B0001060106800F480200590086840F0020045
:1048C0000860086802AB00F0020005904FF44060F9
:1048D000CDE9000683E8301069462148FFF728F942
:1048E000002211462720FFF7B9FA272083E71D4849
:1048F000834282D1D9F8002042F02002C9F800207A
:10490000D9F8000000F020000590086840F004008D
:104910000860086802AA00F004000590C020CDE9F4
:10492000000682E8B00069465046FFF701F9002210
:1049300011464720FFF792FA47205CE7004C004001
:104940004038024000000240005000400008024091
:10495000000C0240001001400044004000480040AC
:1049600000040240001401402DE9F84F044690F87D
:1049700042009A4616460D46202802D00220BDE885
:10498000F88FB5B1AEB100206064222184F84210E6
:104990002063FFF7F5F9A6858146E685A0684FF408
:1049A00080582027404501D1206920B12E4600259E
:1049B00029E00120E3E7002625E04B4600222021E4
:1049C0002046CDF800A001F048FD18B184F84270EF
:1049D0000320D4E726B1A06840451AD038B108E0DA
:1049E00020684068C0F3080025F8020B08E0206941
:1049F00078B12068406800F07F0000BF06F8010B26
:104A0000E08D401EE085E08D0028D6D184F842700C
:104A1000B5E720684068F1E790F84230202B01D0DC
:104A20000220704721B11AB10023036301F0FABCE0
:104A30000120704770B500681F4988423BD11F4C68
:104A40000025B4F84000402806D340212046FBF75B
:104A5000E2FFA4F8405027E019491A4E0978215482
:104A6000B4F84000401C80B2A4F840003178D9B9B5
:104A7000072819D160790D2816D1A0790A2813D1F9
:104A8000052211A10D48FBF7EBFE68B9012030703B
:104A900040210A48FBF7BFFFA4F84050FF2318222B
:104AA0000BA1124800F024F8BDE87040012204492F
:104AB0000E48FFF7B1BF70BD001401406000002038
:104AC000280000201C00002064656275670000005B
:104AD0000D0A23E8BF9BE585A5E8B083E8AF95E61E
:104AE000A8A1E5BC8F230D0A000000000C020020E5
:104AF0002DE9F843044690F84100984616460D46C5
:104B0000202802D00220BDE8F88385B17EB10020C4
:104B10006064212084F84100FFF732F9A6848146C1
:104B2000E684A0682027B0F5805F02D003E0012072
:104B3000E9E7206910B12E4600250EE000260CE0C2
:104B40008021204601F089FCA8B9C6B116F8010BF6
:104B500021684860E08C401EE084E08C4B464FF0BA
:104B60000002CDF800800028EAD14FF04001204635
:104B700001F073FC40B184F841700320C3E735F8BD
:104B8000020BC0F30800E3E784F841700020BAE7A5
:104B9000704700002DE9FC414E4DB5F84000022859
:104BA00041D3A91E425C0D2A3DD14A1C825C0A2ACF
:104BB00039D1002646548F1C042247A13846FBF702
:104BC0009AFE002831D06A4645A13846FBF784FD9D
:104BD000464C01282FD06A4645A13846FBF77CFD9C
:104BE000012837D001AA46A13846FBF775FD0128F8
:104BF00036D0082246A13846FBF77DFE00283BD080
:104C0000062246A13846FBF776FE002838D0FF235F
:104C10001E2244A14B48FFF76BFF40212D48FBF7B4
:104C2000FAFEA5F84060BDE8FC8147480670FF2306
:104C3000182246A1EEE70098042809D8C0B22070D7
:104C4000FEF732FE0146227847A0FBF70FFCE4E7AF
:104C50004FA03CE0009957A06160FBF707FCDCE740
:104C60000198606002F030F841EC100B5AA053EC50
:104C7000102BFBF7FBFBD0E7FF232A2260A1C9E73B
:104C80006AA0FBF7F3FB2078FEF70EFE01462278C0
:104C90006EA0FBF7EBFB2078012801D0032803D19D
:104CA00070A06168FBF7E2FB2078022801D003289E
:104CB00009D1606802F008F841EC100B6FA053ECCA
:104CC000102BFBF7D3FB73A0FBF7D0FB77A0FBF710
:104CD000CDFBA2E760000020657869740000000049
:104CE0007365745F6D6F646520256400200000208B
:104CF0007365745F64656C61792025640000000051
:104D00007365745F64657074682025660000000038
:104D1000726561645F6C6F6700000000737461749A
:104D2000757300000D0A23E697A0E69588E591BD0E
:104D3000E4BBA4EFBC8CE8AFB7E9878DE8AF95235F
:104D40000D0A00000C0200201C0000200D0A23E9BF
:104D50008080E587BAE8B083E8AF95E6A8A1E5BC16
:104D60008F230D0A000000000D0A23E4BD9CE4B867
:104D70009AE6A8A1E5BC8FE8AEBEE7BDAEE4B8BA3E
:104D80003A2025732028256429230D0A00000000FD
:104D90000D0A23E697A0E69588E6A8A1E5BC8F4911
:104DA00044EFBC8CE8AFB7E4BDBFE794A8302D3426
:104DB000230D0A000D0A23E5BBB6E697B6E697B6C3
:104DC000E997B4E8AEBEE7BDAEE4B8BA3A20256CC8
:104DD00075206D73230D0A000D0A23E6B7B1E5BAFD
:104DE000A6E8A7A6E58F91E580BCE8AEBEE7BDAE1C
:104DF000E4B8BA3A20252E3266206D230D0A000051
:104E00000D0A23E8AFBBE58F96E8BF90E8A18CE8D8
:104E1000BF87E7A88BE58F82E695B02028E5BE85A1
:104E2000E5AE9EE78EB029230D0A00000D0A2D2D58
:104E30002D20E5BD93E5898DE7B3BBE7BB9FE78AEE
:104E4000B6E68081202D2D2D0D0A0000E5BD93E5ED
:104E5000898DE6A8A1E5BC8F3A202573202825641A
:104E6000290D0A00E5BBB6E697B6E8AEBEE7BDAED3
:104E70003A20256C75206D730D0A0000E6B7B1E588
:104E8000BAA6E8AEBEE7BDAE3A20252E3266206D4A
:104E90000D0A00002D2D2D2D2D2D2D2D2D2D2D2DDF
:104EA0002D2D2D2D2D2D2D0D0A0000000D0A23E78F
:104EB0008AB6E68081E69FA5E8AFA2E5AE8CE688DB
:104EC00090230D0A00000000FEE700000FB48021CF
:104ED00000B5A1B023AB6846229AFBF7ADFA68464D
:104EE000FBF7EAFC82B2642369460648FFF700FE3E
:104EF0006423022204A10348FFF7FAFD21B05DF804
:104F000014FB00000C0200200D0A00002DE9F04FF8
:104F100087B014216846FBF7A0FD424800240168D1
:104F200041F080010160016801F080010591016894
:104F300041F001010160016801F001010591016882
:104F400041F010010160016801F010010591016854
:104F500041F002010160016801F002010591016860
:104F600041F004010160016801F00401059101684C
:104F700041F0080101600068DFF8AC8000F0080033
:104F80004FF403650590002229464046FEF7F2FEE5
:104F9000DFF898904FF40046002231464846FEF76D
:104FA000E9FEDFF88CA0002231465046FEF7E2FE13
:104FB000DFF880B0F711002239465846FEF7DAFED6
:104FC000002202211C48FEF7D5FE00950125CDE9FF
:104FD0000154694640460394FEF7AAFD0096CDE9C8
:104FE0000154694648460394FEF7A2FDCDE90065E9
:104FF000CDE9025469465046FEF79AFD0097CDE987
:105000000154694658460394FEF792FD0220009031
:10501000CDE90154694608480394FEF789FD07B0BD
:10502000BDE8F08F3038024000000240001002401E
:105030000004024000080240000C02400C4810B579
:105040000A4901604FF4E1314160002181600C2286
:10505000C160C0E904128161C161FFF72DFB002826
:1050600003D0BDE81040FEF717BC10BD004C004057
:10507000A40000200C4810B50A4901604FF4E1314A
:105080004160002181600C22C160C0E9041281618D
:10509000C161FFF711FB002803D0BDE81040FEF707
:1050A000FBBB10BD00500040EC0000200C4810B5C8
:1050B0000A4901604FF4E1314160002181600C2216
:1050C000C160C0E904128161C161FFF7F5FA0028EF
:1050D00003D0BDE81040FEF7DFBB10BD001001405B
:1050E000340100200C4810B50A4901604FF4E13149
:1050F0004160002181600C22C160C0E9041281611D
:10510000C161FFF7D9FA002803D0BDE81040FEF7CF
:10511000C3BB10BD004400407C0100200C4810B50A
:105120000A4901604FF4E1314160002181600C22A5
:10513000C160C0E904128161C161FFF7BDFA0028B6
:1051400003D0BDE81040FEF7A7BB10BD00480040EB
:10515000C40100200C4810B50A4901604FF4E13148
:105160004160002181600C22C160C0E904128161AC
:10517000C161FFF7A1FA002803D0BDE81040FEF797
:105180008BBB10BD001401400C020020FEE770B57F
:1051900005464FF6FF7000224AF201040CE0AB5CBA
:1051A00058400023C6074FEA500000D060405B1C07
:1051B000082BF7DB521C92B28A42F0D370BD00007C
:1051C0002DE9F04387B01C4615460E468046DDE9C2
:1051D0001110DDE90F328DF80C308DF80D208DF8AF
:1051E0000E10DDF84C908DF80F000E9F494615A06B
:1051F000FFF76CFE0420CDE9000603AB3A462146DA
:105200000295404600F0FCF910B1494612A00AE0B0
:105210003223224604A9404600F0C2F948B10328CF
:1052200049460CD013A0FFF751FE002007B0BDE89F
:10523000F08349461CA0FFF749FE0120F6E71DA0B8
:10524000F1E70000436865636B696E672025732092
:10525000636F6D6D2E2E2E00257320636F6D6D3A7A
:10526000205472616E736D6974206572726F722E54
:1052700000000000257320636F6D6D3A2052656356
:1052800065697665206572726F72202843524320EB
:105290006F722061646472657373206D69736D61F0
:1052A000746368292E000000257320636F6D6D20E4
:1052B0004F4B2E00257320636F6D6D3A2054696D3E
:1052C000656F75742E0000002DE9F0478AB0154611
:1052D000DDE9128C82460E46DDE9142008218DF8A6
:1052E00010108DF811808DF812C0110A8DF813106E
:1052F0008DF81420010E99468DF815100027010C29
:10530000F6238DF80C708DF816108DF80D30010A0B
:105310008DF80E7004238DF818008DF80F3000EB17
:1053200080008DF817104300102449461448FFF7F9
:10533000CDFD0D20CDE9000603AB2246494602957E
:10534000504600F05DF910B149460EA00AE0642312
:105350004A4607A9504600F023F948B103284946B8
:105360000CD013A0FFF7B2FD00200AB0BDE8F08713
:1053700049461BA0FFF7AAFD0120F6E721A0F1E7AF
:10538000E870000850756D70203078253032582054
:10539000537461727420636F6D6D616E643A205452
:1053A00072616E736D6974206572726F722E000087
:1053B00050756D70203078253032582053746172EA
:1053C0007420636F6D6D616E643A2041434B2052CF
:1053D000656365697665206572726F722E000000E4
:1053E00050756D70203078253032582053746172BA
:1053F0007420636F6D6D616E642041434B204F4B91
:105400002E00000050756D70203078253032582005
:10541000537461727420636F6D6D616E643A2041E4
:10542000434B2054696D656F75742E002DE9F04172
:1054300088B01F4680460023F6208DF80C308DF88A
:105440000D0015460E46184604210E9A8DF81010D0
:105450008DF811008DF80E308DF8122002238DF892
:1054600013008DF8140010248DF80F30394615A064
:10547000FFF72CFD0920CDE9000603AB2246394693
:105480000295404600F0BCF810B139461AA00AE077
:1054900064233A4606A9404600F082F848B1032842
:1054A00039460CD01FA0FFF711FD002008B0BDE861
:1054B000F081394627A0FFF709FD0120F6E72EA06D
:1054C000F1E7000053656E64696E672050756D707A
:1054D0002053746F7020636F6D6D616E642028417E
:1054E0006464723A3078253032582C204163633A34
:1054F0002575292E2E2E000050756D7020307825D0
:105500003032582053746F7020636F6D6D616E641C
:105510003A205472616E736D6974206572726F7295
:105520002E00000050756D702030782530325820E4
:1055300053746F7020636F6D6D616E643A204143E8
:105540004B2052656365697665206572726F722EB5
:105550000000000050756D702030782530325820E2
:1055600053746F7020636F6D6D616E642041434BA7
:10557000204F4B2E0000000050756D7020307825B4
:105580003032582053746F7020636F6D6D616E649C
:105590003A2041434B2054696D656F75742E0000AD
:1055A0002DE9F84F984691460D468246FEF7E8FBF6
:1055B00006461DE001231A4669465046FFF7D4F916
:1055C000B8B99DF800002855641CA4B2082C10D36B
:1055D0002819A41E30F8027CA1B22846FFF7D7FD97
:1055E000874205D12978494502D10020BDE8F88FCE
:1055F0000024FEF7C5FB811B4145DBD30320F5E703
:105600002DE9F041C0B08046DDE946578DF8001025
:105610006C468DF80120489E2A461946A01CFBF7CF
:10562000B5F9AD1CADB229466846FFF7B0FD60552F
:105630006D1CA9B2000A6054491C8CB2B84764239F
:10564000224669464046FFF753FA04000FD1FEF7A1
:1056500097FB05464046FEF7E9FE0746FEF790FB3E
:10566000401B642801D9032401E0202FF2D1B04768
:1056700040B02046BDE8F081FEE770471FB50A2222
:105680000023CDE9003242F6E061CDE902010123B9
:10569000064A07490748FFF717FE002805D104B05E
:1056A00005A0BDE81040FFF711BC1FBDC55700089D
:1056B000D55700087C01002050756D70312053745F
:1056C000617274204641494C45442E0008B50020C3
:1056D00000900123064A07490748FFF7A7FE002864
:1056E00004D1BDE8084005A0FFF7F0BB08BD0000ED
:1056F000C5570008D55700087C01002050756D7013
:10570000312053746F70204641494C45442E0000AF
:105710001FB50A220023CDE900324EF66021CDE903
:1057200002010123064A07490748FFF7CDFD00287B
:1057300005D104B005A0BDE81040FFF7C7BB1FBDF1
:10574000E5570008F5570008C401002050756D703A
:1057500032205374617274204641494C45442E00F6
:1057600008B5002000900123064A07490748FFF7C3
:105770005DFE002804D1BDE8084005A0FFF7A6BBE8
:1057800008BD0000E5570008F5570008C4010020D7
:1057900050756D70322053746F70204641494C45EE
:1057A000442E000000224FF400610148FEF7E2BAE7
:1057B000000002400122D1020148FEF7DBBA0000DE
:1057C00000000240002210210148FEF7D3BA000079
:1057D00000000240012210210148FEF7CBBA000070
:1057E0000000024000224FF400410148FEF7C2BA17
:1057F000001002400122D1030148FEF7BBBA0000AD
:1058000000100240002220210148FEF7B3BA000038
:1058100000000240012220210148FEF7ABBA00003F
:105820000000024000224FF480710148FEF7A2BA46
:10583000000802407047000070B50C4C0025257030
:10584000657018210A48FBF708F9A570FFF7AAFF51
:10585000FFF7B8FFFFF7C6FFFFF7D4FFFFF7E2FF40
:10586000BDE8704003A0FFF731BB0000000000203E
:105870004800002053746174654D616368696E650A
:1058800020696E697469616C697A65642E00000034
:1058900010B5234C20780A283CD2DFE800F0050937
:1058A0000D11151925293B30BDE8104000F09EB8B8
:1058B000BDE8104000F064B9BDE8104000F0D8BB6E
:1058C000BDE8104000F032BABDE8104000F00AB95F
:1058D000FFF746FFFEF754FA1249886012A0FFF75F
:1058E000F5FA0620207010BDBDE8104000F0AEB8FB
:1058F00018A0FFF7EBFABDE8104000F069BC20A04B
:10590000FFF7E4FA00F054FCBDE810404FF4FA70E1
:10591000FEF7FCB826A0FFF7D9FA0920E2E700005D
:10592000000000204800002050756D703220737414
:105930006F707065642E20576174657220636F6CA0
:105940006C656374696F6E20636F6D706C657465F0
:105950002E00000053616D706C696E672070726F6D
:105960006365737320636F6D706C65746564207319
:1059700075636365737366756C6C79210000000054
:105980004552524F522053544154452E205379735F
:1059900074656D2068616C746564206F7220696E37
:1059A000207265636F76657279206D6F64652E0075
:1059B000556E6B6E6F776E20737461746520656EC3
:1059C000636F756E74657265642E205472616E73B8
:1059D0006974696F6E696E6720746F204552524F0B
:1059E000522073746174652E0000000010B509A088
:1059F000FFF76CFA00F0ECFB124C0120207018212C
:105A00001148FBF72AF80020E07020716071A07146
:105A1000A07010BD53797374656D20496E69746907
:105A2000616C697A65642E20456E746572696E6773
:105A30002053656C662D436865636B2073746174D5
:105A4000652E0000000000204800002070B5124DB7
:105A5000124C287A58B94FF44870FFF70FFEFEF742
:105A60008FF9E0600EA0FFF731FA01202872FEF7EF
:105A700087F9E168401A114988420BD3FFF726FEE7
:105A8000FEF77EF920610EA0FFF720FA07202870AC
:105A90000020287270BD0000000000204800002097
:105AA00050756D7031207374617274656420666F17
:105AB0007220636C65616E696E672E00C0D4010050
:105AC00050756D70312073746F707065642E204353
:105AD0006C65616E696E6720636F6D706C6574656F
