:020000040800F2
:1000000078060020C101000857360008592E000864
:10001000353100085D11000865450008000000004A
:10002000000000000000000000000000A9380008E7
:10003000BD12000800000000593600087541000894
:10004000DB010008DB010008DB010008DB01000820
:10005000DB010008DB010008DB010008DB01000810
:10006000DB010008DB010008DB010008DB01000800
:10007000DB010008DB010008DB010008DB010008F0
:10008000DB010008DB010008DB010008DB010008E0
:10009000DB010008DB010008DB010008DB010008D0
:1000A000DB010008DB010008DB010008DB010008C0
:1000B000DB010008DB010008DB010008DB010008B0
:1000C000DB010008DB010008DB010008DB010008A0
:1000D000DB01000835450008414500084D45000892
:1000E000DB010008DB010008DB010008DB01000880
:1000F000DB010008DB010008DB010008DB01000870
:10010000DB010008DB010008DB010008DB0100085F
:100110004942000855420008DB010008DB010008E5
:10012000DB010008DB010008DB010008DB0100083F
:10013000DB010008DB010008DB010008DB0100082F
:10014000DB010008DB010008DB010008DB0100081F
:10015000DB010008DB010008DB010008594500084D
:10016000DB010008DB010008DB010008DB010008FF
:10017000DB010008DB010008DB01000800000000D3
:10018000DB010008DB010008DB010008DB010008DF
:10019000DB010008DB010008DB010008DB010008CF
:1001A0000000000000000000DB010008DFF80CD0B8
:1001B00000F06CFD00480047154F0008780600204D
:1001C0000648804706480047FEE7FEE7FEE7FEE7F1
:1001D000FEE7FEE7FEE7FEE7FEE7FEE7094200086E
:1001E000AD0100082DE9F05F0546002092469B46D0
:1001F00088460646814640241BE02846414647463D
:10020000224600F011FB53465A46C01A914110D3C2
:1002100011461846224600F0F8FA2D1A67EB01083D
:100220004F4622460120002100F0EFFA17EB0009AB
:100230004E41201EA4F10104DFDC484631462A4627
:100240004346BDE8F09F40EA01039B0703D009E065
:1002500008C9121F08C0042AFAD203E011F8013BB2
:1002600000F8013B521EF9D27047D2B201E000F80B
:10027000012B491EFBD270470022F6E710B513464A
:100280000A4604461946FFF7F0FF204610BD421CFF
:1002900010F8011B0029FBD1801A704730B50446C5
:1002A0000020034600E05B1C934203D2E05CCD5C7F
:1002B000401BF8D030BD30B505460020034600E0B5
:1002C0005B1C934205D2EC5CC85C201A01D1002C67
:1002D000F6D130BD0FB400B58DB010A909900B90C8
:1002E00000914FF0FF300A9000200C9005480690D6
:1002F000054807906A4609A80F9900F0B9FA0DB0B1
:100300005DF814FB8D080008AB0800082DE9FF5FBD
:100310001D464FF0FF3BD5E9014691465F464FF041
:100320000008A9697F1C01988847296A8246884786
:100330000028F6D1BAF1FF3F0CD024F4C064002E9F
:1003400019DD600614D5BAF12B0F09D0BAF12D0FC3
:100350000ED103E0584604B0BDE8F09F44F4806439
:10036000A9697F1C01988847761E8246002E02DD0F
:10037000BAF1300F03D0B9F1000F26D032E0A969ED
:10038000761E44F400747F1C019888478246002E34
:1003900005DDBAF1780F06D0BAF1580F03D0B9F1E4
:1003A000000F10D01EE0B9F1000F02D0B9F1100F0C
:1003B00018D1A969761E24F400747F1C019888471F
:1003C0008246102002E0082000E00A20814609E071
:1003D00008FB0908A969761E44F400747F1C019883
:1003E00088478246002E05DD4946504600F02CFA2B
:1003F0000028EDDAE96901988847A00502D46FF07A
:100400000100A8E7E00725D1600613D5600502D5F5
:10041000C8F1000000E0404629680A1D2A6009680A
:10042000220501D5087015E0220701D5088011E0EA
:1004300008600FE02868011D29600068210502D5C9
:1004400080F8008006E0210702D5A0F8008001E0D6
:10045000C0F8008038467EE72DE9FF4F087883B06A
:100460009946FF2805D0491C2D2804D000240020DF
:1004700008E000200BE00124F9E700EB800003EB2B
:100480004000491C0B78FF2BF7D104B140420023F8
:100490000293147819461D462D2C01D02B2C04D123
:1004A000521C2D2C13D000240294AA461478FF2C41
:1004B0000FD00A25A3FB057801FB05814FF0000C46
:1004C00003FB0C11521CE3194AEB0101EEE7012476
:1004D000EAE7814453EA010002D019F5C87F06DA41
:1004E00003980021C0E9001107B0BDE8F08F002596
:1004F000AE4E2F46DFF8B882184600F06FFBCDE90C
:100500000001B9F1000002DAC9F1000400E004467C
:100510000023A74A1AEB030B42EB045A12E0E00750
:1005200007D02A4633463846414600F076FA074659
:1005300088462A4633461046194600F06EFA0546AC
:100540000E466410002CEAD1DDE90001B9F1000F7C
:100550005A46534606DA00F0D2FA3A46434600F0CD
:10056000CEFA05E000F059FA3A46434600F055FA53
:10057000029A0AB181F00041039AC2E90001B3E78F
:100580002DE9FF4F1F468DB0D7E901464FF0FF38E8
:100590002E2045464FF000090B90B9696D1C0E984E
:1005A0008847396A824688470028F6D1BAF1FF3F6A
:1005B0000AD024F4D064002E11DDBAF12B0F08D03C
:1005C000BAF12D0F0BD102E0404611B08DE744F493
:1005D0008064B9696D1C0E9888478246761E69460C
:1005E000600501D52D2000E02B208DF8000001F1E1
:1005F000010B0DF1200809E0B9696D1C0E988847C0
:1006000082460F9844F40074761E0560002E02DDC9
:10061000BAF1300FF0D00B998A453ED144F08004F6
:1006200006E00F99681CA9F1010944F40074086000
:10063000B9696D1C761E0E98884782463028F0D026
:100640002BE00B998A4505D1200603D444F08004A1
:10065000761E18E0504604F0A7F808B30DF1130118
:10066000761E44F400748B4508D2AAF130000BF8D2
:10067000010B200607D5A9F1010003E0200602D4F2
:1006800009F101008146A00502D50F99681C086098
:10069000B9696D1C0E9888478246002ED1DC53E064
:1006A000002E51DDBAF1650F02D0BAF1450F4BD1E2
:1006B000A00549D5B9696D1C24F44074761E0E98C6
:1006C00088478246002E0CDD2B2804D0BAF12D0F6E
:1006D00007D144F48074B9696D1C0E98884782462E
:1006E000761EE00501D52D2100E02B2108F8011B25
:1006F000CDF82C8021E00DF12901761E44F4007420
:1007000088450CD2AAF1300010F0FF0088F80000F4
:1007100002D10B99884509D908F1010806E0E005E6
:1007200001D5244801E042F20F708146B9696D1C81
:100730000E98884782460F980560002E04DD5046CB
:1007400004F032F80028D6D1F9690E988847FF20C6
:100750008BF8000088F800000020069007904B46B8
:100760006A4608A906A8FFF777FEA00502D46FF035
:1007700001002AE714F0240F0AD0E00714D1DDE9C4
:1007800006123868031D3B600068C0E900120BE0E8
:10079000DDE9060100F05EFA0146E00704D13868A1
:1007A000021D3A600068016028460EE70000144010
:1007B0000000F03FF1D8FFFF00F0004230F00040B1
:1007C0000AD0C10D01F56071C0F3160042EA015173
:1007D000C20840071143704700200146704730B5FA
:1007E0000B46014600202022012409E021FA02F5EF
:1007F0009D4205D303FA02F5491B04FA02F5284489
:10080000151EA2F10102F1DC30BD202A04DB203AE2
:1008100000FA02F1002070479140C2F1200320FA53
:1008200003F3194390407047202A04DB203A21FA51
:1008300002F00021704721FA02F3D040C2F12002F9
:1008400091400843194670473A2800D2303820F0CA
:100850002002412A01D3A2F13700884201D34FF090
:10086000FF307047026811441378016018467047E2
:10087000D16004495161044911620021116111469E
:1008800000F02EBA65080008D50C0008426842B195
:10089000016811F8013B23B1521EC0E9001218464D
:1008A00070470121C160881E704742685AB1C36811
:1008B000016843B983688B4205D0491E521CC0E9C8
:1008C0000012002070474FF0FF3070472DE9FE4FB7
:1008D000804681EA0300C00F0C46009021F00041E1
:1008E00023F00045B8EB0200A94105D2404621465D
:1008F00090461C460B46024623F00040104347D06A
:10090000270DC7F30A00C3F30A510290401A019061
:1009100040286BDAC3F3130040F4801B0098924622
:1009200020B10023D2EB030A63EB0B0B019859466D
:10093000C0F140025046FFF768FF06460D4650469C
:100940005946019A00F0B4F910EB08006141002407
:1009500087EA115284EAE7731A4340D0009A62B3DF
:10096000019A012A4FEA075215DC001B61EB0201D4
:100970004FF0004202EA0752CDE90042001C41F567
:10098000801132462B4600F087FB03B0BDE8F08FA4
:1009900040462146F9E7001B61EB0201001C41F5CE
:1009A000801300185B412018A2F5001747EB0301E4
:1009B00040EAD570B6196D4111E06D084FEA360670
:1009C00045EAC0754FEA0752001B61EB0201001CAB
:1009D00041F5801149084FEA300000195141324673
:1009E0002B4603B0BDE8F04F00F047BB0098012252
:1009F00040000023D0EB020263EBE0730098214635
:100A00004FEAE074B8EB000061EB0401E9E783F022
:100A100000435BE781F0004158E72DE9FE4F81EA92
:100A2000030404F0004421F0004100944FF0000B57
:100A300023F0004350EA01045ED052EA03045BD085
:100A4000C3F30A54C1F30A552C44A4F2F3340194BD
:100A5000A0FB0254C1F3130141F48011C3F313034B
:100A600043F4801301FB024400FB034E840A970AFF
:100A700044EA815447EA8357A4FB076802958D0A2C
:100A800005FB07854FEA932C04FB0C542705029DB8
:100A90004FEA065847EA1637B5EB08056EEB070C28
:100AA000870E920E47EA811742EA8312A7FB0201E2
:100AB000B6EB0B0164EB00042B0D43EA0C335E181C
:100AC00044EB1C50DA465146E7FB0201C5F3130420
:100AD0004FEA0B3343EA14534FEA0432019C43EAD2
:100AE0000603A4F10C040294009CCDE900B400F0CC
:100AF000D3FA03B0BDE8F08F00200146F9E72DE9F5
:100B0000F04D81EA030404F0004B21F00045144647
:100B10004FF0000A23F0004150EA050220D054EAC9
:100B200001021DD0C5F30A570246C5F31303C1F3F2
:100B30001300C1F30A5640F4801543F48013A7EB69
:100B40000608101BD64608F2FD3873EB050002D3E9
:100B500008F1010801E092185B41B8F1000F03DAD7
:100B600000200146BDE8F08D00204FF480110646BC
:100B700084460EE0171B73EB050705D3121B63EBCE
:100B8000050306434CEA010C49084FEA300092186D
:100B90005B4150EA0107EDD152EA030012D082EA2C
:100BA000040083EA0501084305D0101BAB4106D2BF
:100BB0000122002306E000224FF0004302E06FF024
:100BC000010253101AEB06004CEB085110EB0A001F
:100BD00041EB0B01BDE8F04D00F04FBA0EB540F20D
:100BE000334202920022CDE90022134600F054FA6B
:100BF00003B000BDC1F30A52C1F3130140F2FF3349
:100C000041F480119A4202DA00200146704740F216
:100C100033439A42A2F2334202DC5242FFF704BE4F
:100C2000FFF7F3BD30B5041E71F1000404DB4FF093
:100C30000044404264EB0101141E73F1000405DB23
:100C40001C464FF00043524263EB0403994208BF35
:100C5000904230BD01F0004330B421F0004150EA31
:100C6000010206D00A0DA2F56072C1F31301002A39
:100C700002DC30BC00207047440F44EAC104C100CC
:100C8000E01830BC00EBC25000F0C0B9064C074D74
:100C900006E0E06840F0010394E80700984710344C
:100CA000AC42F6D3FFF786FAA8510008C8510008F5
:100CB000202A06DBCB17203A41FA02F043EAE07320
:100CC00006E041FA02F3D040C2F12002914008430D
:100CD00019467047C0B24FF4F05100F02BBA000033
:100CE0002DE9F34F8BB04FF0000801F10C000C46DA
:100CF0004FF0010B46460DF1080A0190626901218F
:100D000001989047051E2DD0252D2CD0216A8847AB
:100D1000C0B16269012101989047216A8847002883
:100D2000F7D1411E62690198904700E0761CA169E5
:100D30000B988847216A88470028F7D1E1690B980A
:100D40008847DBE7A1690B9888470746A84201D18D
:100D5000761CD3E7E1690B9888477F1C02D1B8F174
:100D6000000F6FD046E1002762693D463946019881
:100D700090472A2804D162690121019890470125F2
:100D8000DFF884926269012101989047A0F1300157
:100D90000A290AD24F45E5DC07EB870100EB410742
:100DA000303FDFD445F01005ECE7E90601D46FF0E1
:100DB00000476C280AD04C2814D0682815D06A281F
:100DC0000DD074281CD07A281AD01DE06269012148
:100DD000019890476C2802D045F0040514E045F0D6
:100DE00002050DE045F020050AE062690121019845
:100DF0009047682802D045F0080505E045F40065F5
:100E00006269012101989047C4E9015765283DD0E6
:100E100019DC58287AD00CDC452837D004DC25288A
:100E200026D0412831D131E046282FD047282CD177
:100E30002CE05B2877D0612828D063287CD06428F8
:100E400023D15AE0D0E06F2848D008DC66281DD0B6
:100E500067281BD0692821D06E2816D127E070287A
:100E600045D0732868D0752847D078280DD14DE03B
:100E7000A1690B988847054625283FF469AFE169C9
:100E80000B9888476D1C3FF46AAFB3E023466A466F
:100E90006FF001000B99FFF773FB9EE045F04000F7
:100EA0006060A80723464FF0000236D43EE0E80712
:100EB0007FF447AF2068011D21600068290501D536
:100EC00006701BE7290701D5068017E7A90703D598
:100ED000F117C0E9006111E706600FE745F0400037
:100EE0006060A80723464FF0080216D41EE040F6C3
:100EF0000E0125EA0100606016E045F040006060E8
:100F0000A80723464FF00A0207D40FE045F040003F
:100F10006060A80708D5234610226FF001000B99E6
:100F2000AFF3008059E007E0234610226FF0010084
:100F30000B99FFF7EBF950E04FF000094F464B4695
:100F4000632802D05B2806D040E0E80601D40120E7
:100F5000A06001273AE062690121019890475E286C
:100F600005D14FF00109626949460198904721690E
:100F700039B900210A46534643F82120491C082963
:100F8000FADBB0B3216969B9C11700EBD162531123
:100F90000AEB830122F01F02821A01200B689040A5
:100FA00003430B6062690121019890475D28E8D1F5
:100FB000B9F1000F09D00020514651F82020D2434A
:100FC00041F82020401C0828F7DB02AB224600979E
:100FD0006FF001000B99AFF3008000280CDA401C81
:100FE00008D1BBF1000F05D04FF0FF300DB0BDE8C8
:100FF000F08FFFE74046F9E7E90701D108F1010862
:1010000006444FF0000B79E6CCCCCC0C0029A8BFED
:101010007047401C490008BF20F00100704710B421
:10102000B0FA80FC00FA0CF050EA010404BF10BCD6
:10103000704749B1CCF1200421FA04F411FA0CF103
:1010400018BF012121430843A3EB0C01CB1D4FEA3C
:1010500000614FEA102042BF002010BC704700EB37
:10106000C35010440029A4BF10BC7047401C490065
:1010700008BF20F0010010BC704710B5141E73F1BA
:10108000000408DA401C41F1000192185B411A4348
:1010900001D120F0010010BD2DE9F04D92469B4694
:1010A00011B1B1FA81F202E0B0FA80F2203290463A
:1010B000FFF7ABFB04460F4640EA0A0041EA0B018A
:1010C00053465A46084313D0114653EA010019D03B
:1010D000C8F140025046FFF7A7FB05460E465046B2
:1010E00059464246FFF791FB084305D0012004E032
:1010F00020463946BDE8F08D0020054346EAE076FB
:101100002C4337430A986305E40AA0EB0800002249
:10111000FD0A44EA47540A3002D500200146E9E7B7
:10112000010510196941DDE9084500196941BDE86B
:10113000F04DA2E77F2801D9002208E0064A02EB21
:101140005002C007127800D1120902F00F020120EC
:101150009040084070470000D04F0008FEE70000B4
:1011600000B587B0012208A1CDE9042100200321A8
:10117000CDE90010029003901346074A074908483A
:1011800001F0F2FF07B000BD416E616C6F67436F05
:101190006C6C6563746F72008537000895370008C2
:1011A0005401002000B587B0012209A10020CDE93B
:1011B0000421F1230421CDE90230CDE900101346CA
:1011C000054A0649064801F0CFFF07B000BD000000
:1011D00050756D7031000000A5370008B537000864
:1011E0009C01002000B587B0012209A10020CDE9B3
:1011F0000421F1230421CDE90230CDE9001013468A
:10120000054A0649064801F0AFFF07B000BD0000DF
:1012100050756D7032000000C5370008D5370008E2
:10122000E40100200D4930B40D4A0B680D4893428B
:1012300006D1091D16C908C080E8160030BC7047E9
:101240000021026001714FF4FA71B7EE000A81606B
:1012500080ED030A30BC00F007B8000000000E0863
:101260003412CDAB70000020F0B587B00024059497
:1012700000F0E0FB022004900B200290012003907C
:10128000009405A9684600F03FFB78B9094E0A4D65
:10129000042700BF56F8242000232946022000F02E
:1012A0008BFB18B9641C2D1DBC42F3D300F07AFBF4
:1012B00007B0F0BD7000002000000E08704700006D
:1012C00072B600BF02F0A8FF642000F00BFBF9E744
:1012D000002229B101291DD002291ED04FF44072ED
:1012E0000B2800D9001D0E490B6823F440730B60D6
:1012F0000B6813430B600A6822F0F8020A600A6860
:10130000022303EBC00002430A60086840F4803007
:10131000086070474FF48072E2E74FF40072DFE735
:10132000103C02401348016889050FD5016821F47B
:1013300000710160016841F400610160016821F4FD
:1013400000610160016841F40071016001684905B4
:101350000FD5016821F480610160016841F480517A
:101360000160016821F480510160016841F48061ED
:1013700001607047003C02400E4A136823F440733A
:10138000136003290DD0012911680FD041F40041E9
:10139000116011684FF4803343EA0020014311606B
:1013A0007047116848F204031943F1E741F0040162
:1013B000EEE70000103C0240064A136823F4407335
:1013C000136013681360136843F001031360017026
:1013D00070470000103C0240094910B50C6824F425
:1013E00040740C600C6844F440740C600C6844F069
:1013F00001040C600260BFF36F8F436010BD0000FA
:10140000103C0240074A136823F4407313601368CA
:1014100043F480731360136843F001031360018089
:1014200070470000103C0240074A136823F44073E1
:101430001360136843F400731360136843F00103EF
:101440001360016070470000103C02401C490868AE
:10145000C2061C4805D5C26942F01002C2611022C2
:101460000A600A68920605D5C26942F00802C261A4
:1014700020220A600A68520605D5C26942F00402B9
:10148000C26140220A600A68120605D5C26942F0AC
:101490000202C26180220A600A68D20506D5C269CA
:1014A00042F00102C2614FF480720A600A6892073A
:1014B00005D5C26942F02002C2610220086070476F
:1014C0000C3C02402000002070B511490446002069
:1014D000C86100F0EDFB06460E4D09E0601C07D028
:1014E00024B100F0E5FB801BA04201D9032070BDB0
:1014F0002868C003F2D42868C00701D00120286002
:10150000286810F4F970F2D0FFF7A0FF012070BD39
:10151000200000200C3C024005280ED2DFE800F03D
:10152000030507090B0006A0704707A0704708A035
:10153000704709A070470CA070470FA070470000CB
:101540004E4F4E450000000044454C4159000000FC
:10155000444550544800000044455054485F4F52A1
:101560005F44454C4159000053455249414C5F434B
:101570004F4D4D414E440000554E4B4E4F574E007F
:1015800030B526A02DED028B87B0006806900124AF
:1015900003259FED238A23A001F060FC2B4A2C49F0
:1015A00004208DE8070006AB2A462146294802F0B0
:1015B00013F808B128A009E06423224603A92548AE
:1015C00001F0C6FF28B1032826D02CA001F046FC6C
:1015D0001CE09DF80E10042903D0314801F03EFCB8
:1015E00014E0DDF80F009DF8121000BA20F0FF00A3
:1015F000084308EE100A18EE100AFFF7DDF841EC78
:10160000100B28A053EC102B01F028FC07B0B0EE13
:10161000480ABDEC028B30BD2AA0D7E700020002C9
:10162000000000005175657279696E6720416E6136
:101630006C6F6720436F6C6C6563746F7220666FAC
:10164000722044657074682E2E2E000085370008C5
:101650009537000854010020416E616C6F6720438C
:101660006F6C6C6563746F723A205472616E736D47
:101670006974204572726F722E000000416E616CB9
:101680006F6720436F6C6C6563746F723A205265AC
:101690006365697665204572726F722E00000000E6
:1016A0000C510008416E616C6F6720436F6C6C6574
:1016B00063746F722044657074683A20252E326618
:1016C000206D0000416E616C6F6720436F6C6C652C
:1016D00063746F723A20526573706F6E7365205435
:1016E000696D656F75742E0030B51FA087B00068F6
:1016F0000690012403251DA001F0B0FB254A2649D0
:1017000004208DE8070006AB2A462146234801F055
:1017100063FF08B122A009E06423224603A91F4801
:1017200001F016FF28B103281BD026A001F096FB7C
:1017300006E09DF80E10042905D02A4801F08EFB22
:10174000002007B030BDDDF80F0000BA20F0FF0424
:101750009DF812000443214623A001F07FFB2046A0
:10176000EFE729A0E2E70000001000025175657262
:1017700079696E672050756C736520436F6C6C657A
:1017800063746F72202844493020436F756E74294A
:101790002E2E2E00E5370008F5370008C400002083
:1017A00050756C736520436F6C6C6563746F723A2F
:1017B000205472616E736D6974204572726F722E5F
:1017C0000000000050756C736520436F6C6C65639E
:1017D000746F723A2052656365697665204572724E
:1017E0006F722E00B450000850756C736520436F03
:1017F0006C6C6563746F722044493020436F756E62
:10180000743A20256C75000050756C736520436F29
:101810006C6C6563746F723A20526573706F6E738F
:10182000652054696D656F75742E00002DE9F041D7
:101830000446876D00F03CFA064694F83500002512
:10184000022806D08020606584F834500120BDE86D
:10185000F0812068016821F016010160206841696B
:1018600021F080014161206C08B9A06C20B1206892
:10187000016821F0080101602068016821F0010180
:1018800001600CE000F014FA801B052807D9202025
:101890006065032084F8350084F83450D7E7206869
:1018A0000068C007EED194F85C103F208840B86013
:1018B000012084F8350084F834500020C7E790F800
:1018C0003510022903D08021416501207047052190
:1018D00080F835100068016821F0010101600020E6
:1018E0007047000070B5044600F0E2F90546601C40
:1018F00002D004480078044400F0DAF9401BA0420A
:10190000FAD370BD400000202DE9F047044623487B
:101910000F46017E01290AD00121804601764CF252
:1019200050394846FFF7D0FD020003D030E00220D6
:10193000BDE8F0874FF0FF3038602068184D01286F
:1019400001D0A6681DE0207C6168FFF715FD4846C0
:10195000FFF7BAFD0246286848F204018843286070
:1019600014E0217C3046FFF7B3FC4846FFF7ACFD9E
:101970000200286820F0FA00286001D03E6005E0EF
:10198000761CD4E902100844B042EAD8FFF7CAFC3A
:10199000002188F818101046CAE700002000002037
:1019A000103C02400348016841F000410160002002
:1019B00070470000103C02402DE9F0471B4E0546E1
:1019C0001446307E1F468946012808D00120307613
:1019D0004CF250384046FFF777FD18B114E0022072
:1019E000BDE8F0879DB1012D16D0022D19D02246F9
:1019F0003B464846FFF7F0FC4046FFF765FD0C49C3
:101A00000A6822F001020A6000213176E8E7E1B2BB
:101A10004846FFF7D1FCEFE7A1B24846FFF7F2FCDA
:101A2000EAE721464846FFF7FFFCE5E720000020F3
:101A3000103C0240074900200A68002A09DA054ADA
:101A4000054B0C3A1360054B13600968002900DA56
:101A500001207047103C024023016745AB89EFCD60
:101A60002DE9F84FDFF8F8A10022012403254FF0FB
:101A70000F090AF1040BAAF1040E00BF0B6804FA67
:101A800002F63340B34270D10F7907F00307012FFC
:101A900001D0022F16D187684FEA420805FA08FCE8
:101AA00027EA0C07D1F80CC00CFA08FC4CEA070C2A
:101AB000C0F808C04768B7430E79C6F300169640D1
:101AC0003E4346600E79F643B6070AD0C7684FEA30
:101AD000420C05FA0CF6B7438E6806FA0CF63E4344
:101AE000C6600E7906F00306022E10D1D60800EB70
:101AF0008608D8F8206057074FEAD76C09FA0CF728
:101B0000BE430F6907FA0CF73743C8F82070066820
:101B10004FEA420C05FA0CF7BE430F7907F00307B2
:101B200007FA0CF7374307604E6816F4403F1CD0A5
:101B30004C4E376847F480473760366822F0030719
:101B400006F480460096484E07EB060CDCF8086861
:101B500097073F0F09FA07F826EA0806DFF80C8115
:101B6000404503D14FF0000841E072E0DFF800810A
:101B7000404502D14FF0010839E0DFF8F8804045D8
:101B800002D14FF0020832E0DFF8EC80404502D18C
:101B90004FF003082BE0DFF8E480404502D14FF01E
:101BA000040824E0DFF8D880404502D14FF0050852
:101BB0001DE0DFF8D080404502D14FF0060816E066
:101BC000DFF8C480404502D14FF007080FE0DFF88E
:101BD000BC80404502D14FF0080808E0DFF8B08033
:101BE000404502D14FF0090801E04FF00A0808FA19
:101BF00007F848EA0608CCF80888DAF80060574683
:101C0000D1F804C09E435FEACC2C00D51E433E6051
:101C1000DBF800605F46D1F804C09E435FEA8C2C7D
:101C200000D51E433E60DEF800607746D1F804C060
:101C30009E435FEA8C3C00D51E433E60084F083F40
:101C40003E68D1F804C09E435FEACC3C00D51E43F9
:101C50003E60521C102AFFF411AFBDE8F88F00005F
:101C6000083C01404438024000300140000002407E
:101C70000004024000080240000C02400010024034
:101C80000014024000180240001C024000200240E4
:101C900000240240426921EA02030A4043EA024169
:101CA000816170470AB1816170470904FBE7000058
:101CB00001488068704700004000002002488168A9
:101CC0000278114481607047400000200B4810B535
:101CD000016841F400710160016841F480610160B4
:101CE000016841F480710160032000F06FF80F205B
:101CF00000F006F800F024F8002010BD003C02407F
:101D000070B50D4D04464FF47A712878B1FBF0F0B0
:101D10000A490968B1FBF0F000F00CFB48B9102C3F
:101D200007D200222146501E00F030F800206C60DF
:101D300070BD012070BD0000400000204C0000205C
:101D40000A4808B5016841F480410160006800F468
:101D5000804000900548001F016841F080510160FB
:101D6000006800F08050009008BD00004438024038
:101D7000002809DB00F01F0201219140400980008A
:101D800000F1E020C0F8001170470000F0B40E4BE5
:101D90001B680C46C3F30223C3F10705042D00D9C9
:101DA0000425191D072901D2002300E0DB1E0126AE
:101DB00006FA05F1491E214099409E40761E1640C4
:101DC0003143F0BC02F00EBC0CED00E0064900F01F
:101DD000070208684FF6FF03184040EA0220034A52
:101DE00010430860704700000CED00E00000FA05A9
:101DF0002DE9F0470E46050065D0DFF81481D8F8CC
:101E00000000F7B200F00F00B04207D288F800706F
:101E1000D8F8000000F00F00B04254D128683D4CC3
:101E2000810712D5400703D5206840F4E0502060B8
:101E30002878000703D5206840F4604020602068BF
:101E4000A96820F0F000084320602878C0072DD052
:101E5000304968680839012812D0022813D00328B5
:101E600011D00968890700292DDA216821F00301C2
:101E700001432160FFF71CFF814641F2883A0EE0E2
:101E800009688903EFE709688901ECE7FFF710FFAC
:101E9000A0EB0901514502D90320BDE8F087206875
:101EA000696800F00C00B0EB810FEFD1D8F800109A
:101EB000404601F00F01B14207D90770006800F0F9
:101EC0000F00B04201D00120E7E72878400705D590
:101ED0002068E96820F4E050084320602878000773
:101EE00006D52068296920F4604040EAC1002060DE
:101EF00000F038F82168084AC1F30311515CC8406A
:101F00000649086006480068FFF7FAFE0020C4E7AB
:101F1000003C024008380240B84F00084C00002046
:101F2000440000200448054900680968044AC1F3D8
:101F30008221515CC84070474C00002008380240A4
:101F4000C84F00080448054900680968044AC1F3FD
:101F50004231515CC84070474C00002008380240B4
:101F6000C84F0008154810B5006810F00C0214485E
:101F700013D01449042A0FD0082A0ED10F4C241F65
:101F80002268236802F03F025B0207D52068C0F395
:101F90008810A0FB010106E0084610BD2168C1F3CE
:101FA0008811A1FB00010023FEF71CF92168C1F391
:101FB0000141491C4900B0FBF1F010BD0838024056
:101FC0000024F40040787D012DE9F84F04006ED024
:101FD0002078DFF84C93C007A9F104054AD009F135
:101FE00004000168C1F38101012908D00068C0F331
:101FF000810002280AD1D9F80000400206D52868DD
:10200000800337D560680028E1D033E06068B0F520
:10201000803F10D0B0F5A02F286810D020F4803079
:102020002860286820F4802028606068A8B1FFF745
:102030003FFE06460DE0286840F48030F4E740F4A7
:1020400080202860F7E700BFFFF732FE801B64287E
:1020500073D828688003F7D50CE0FFF729FE064601
:1020600005E000BFFFF724FE801B6428F0D8286835
:102070008003F7D42078DFF8AC8280074FF0000AA5
:102080003ED5A748001D016811F00C0F08D000686C
:10209000C0F3810002280BD1D9F80000400207D418
:1020A0002868800716D5E068012800D112E033E1E6
:1020B000E068B8B10120C8F80000FFF7F9FD064656
:1020C00005E000BFFFF7F4FD801B0228C0D8286898
:1020D0008007F7D52868216920F0F80040EAC100A0
:1020E00028600DE0C8F800A0FFF7E2FD064604E016
:1020F000FFF7DEFD801B02281FD828688007F7D471
:102100002078000722D5864F87486169703771B102
:1021100001210160FFF7CCFD064604E0FFF7C8FD92
:10212000801B022809D838688007F7D50EE0C0F870
:1021300000A0FFF7BDFD064605E082E0FFF7B8FD11
:10214000801B02287DD838688007F7D420784007A4
:1021500068D5DFF8CCB100270BF13C0BDBF80000B1
:10216000C0000BD4DBF8001041F08051CBF8001018
:10217000DBF80000012700F0805000906B4E3068C3
:10218000C00510D4306840F480703060FFF790FDD7
:10219000009005E0FFF78CFD0099401A022850D806
:1021A0003068C005F6D55E4EA0686C3601280FD0A9
:1021B0000528306810D020F001003060306820F031
:1021C00004003060A068B8B1FFF772FD00900FE026
:1021D000306840F00100F4E740F004003060F7E7B9
:1021E000FFF766FD0099411A41F28830814266D8B6
:1021F00030688007F4D50EE0FFF75AFD009007E045
:10220000FFF756FD0099411A41F28830814256D8B5
:1022100030688007F4D42FB1DBF8001021F0805132
:10222000CBF80010A069C8B33D49091D0968C1F386
:10223000810102294AD00228504607D0C8F8600020
:1022400000E03CE0FFF734FD04463BE04746C8F8B9
:102250006000FFF72DFD064605E000BFFFF728FDF3
:10226000801B02282BD828688001F7D4D4E9070105
:102270000843A16A2E4A490802EB0141626A41EA19
:102280008211084394F82C1040EA0161C9F800104B
:1022900001203866FFF70CFD044606E03EE000BF73
:1022A000FFF706FD001B022809D828688001F7D532
:1022B00034E000BFFFF7FCFC001B022802D903201A
:1022C000BDE8F88F28688001F4D427E00128F7D012
:1022D000D9F80000E26900F4800191421CD1226A21
:1022E00000F03F01914217D147F6C071626A014088
:1022F000B1EB821F10D1A26A4FF0FF3300F44031DE
:1023000003EB5202B1EB024F06D194F82C1000F00F
:102310007060B0EB016F01D00120D1E70020CFE762
:102320000438024000004742800E474200700040DF
:102330000000FFFF10B5401EB0F1807F01D30120E7
:1023400010BD4FF0E02460610F21601702F04AF9E0
:102350000020A06107202061002010BD7047704759
:1023600010F8411F4078084370470000F8B5016835
:1023700004460868CA684B6910F00F0F4FF000055B
:1023800059D003F0010602F49077374365D0C107B6
:1023900005D0D10503D5616C41F0010161644107AD
:1023A00005D5D90703D0616C41F002016164810752
:1023B00005D5D90703D0616C41F0040161640107C0
:1023C00007D502F02001314303D0616C41F00801D0
:1023D0006164616C00293AD0800604D5900602D56C
:1023E000204601F06BFF20684069616CC0F38010EB
:1023F000090700D460B3204601F039FF2068406926
:10240000400621D52068143050E8001F21F040011B
:1024100040E80012002AF5D1E06BA8B172490165CD
:10242000E06BFFF74CFA002811D0E06B016D01B0B2
:10243000BDE8F040084783060FD593060DD520462A
:10244000BDE8F84001F03ABF2046FFF788FFF8BD2D
:102450002046FFF784FF6564F8BD266B2023012E1C
:102460007ED1C6067CD5D6067AD508684868009025
:1024700048694FF0020640064DD5E26B106840688F
:102480004FF480770004000C3AD0A18D814237D9F7
:10249000E085D069B8422DD020680C3050E8001F8C
:1024A00021F4807140E80012002AF5D12068143030
:1024B00050E8001F21F0010140E80012002AF5D188
:1024C0002068143050E8001F21F0400140E800125D
:1024D000002AF5D184F84230256320680C3050E89A
:1024E000001F21F0100140E80012002AF5D1E06B36
:1024F000FFF79CF96663A08DE18D401A81B206E07A
:10250000A18D8142A8D1D069B842A5D16663204689
:10251000FFF724FFF8BDA08DE18D401A81B2E08D58
:102520000028F7D00029F5D020680C3050E8002FA3
:1025300022F4907240E80027002FF5D12068143073
:1025400050E8002F22F0010240E80027002FF5D1CB
:1025500084F84230256320680C3050E8002F00E0FA
:1025600006E022F0100240E80023002BF3D1CDE773
:1025700005062BD5150629D594F841002128C9D187
:10258000A068B0F5805F01D12069B0B1206A411C1C
:102590002162216800784860E08C401E0004000C35
:1025A000E084B7D12068C16821F08001C160206853
:1025B000C16841F04001C160F8BD206A0088C0F3E5
:1025C00008004860206A801C2062E5E74006F3D5D9
:1025D0005006F1D5CA68204622F04002CA6084F84D
:1025E000413000F075FAF8BD6142000870B5040092
:1025F00004D094F84100002510B106E0012070BD20
:1026000084F84050204600F023F8242084F841004C
:102610002068C16821F40051C160204601F0B0FE7D
:102620002068016921F4904101612068416921F02D
:102630002A0141612068C16841F40051C1606564AC
:10264000202084F8410084F842006563002070BDBA
:102650002DE9F04786B0044614216846FDF70CFECC
:102660008449DFF80CC223680024824A103903250C
:1026700002260827804863451ED1136843F40023CF
:102680001360126802F4002205920A6842F0010207
:102690000A600968CDE9005601F00101CDE9047135
:1026A0006946CDE90245FFF7DBF9002211463420E7
:1026B000FFF76CFB342038E0DFF8C0C1DFF8C0A1C1
:1026C000634537D1106840F480101060106800F442
:1026D00080100590086840F004000860086800F069
:1026E00004000590086840F008000860086802AB24
:1026F00000F0080005904FF48050CDE9000683E813
:10270000B00069465046FFF7ABF90420CDE900065A
:1027100002AB694683E8B0005A48FFF7A1F90022EE
:1027200011463520FFF732FB3520FFF721FB06B0BD
:10273000BDE8F087DFF85081DFF838914FF0070CE3
:1027400009F10409434523D1D9F8003043F01003BF
:10275000C9F80030D9F8002002F0100205920A688A
:1027600042F001020A60096802AA01F00101059124
:102770004FF4C061CDE9001682E830106946FFF7DA
:102780006FF9002211462520FFF700FB2520CCE73A
:10279000DFF8F88043451FD1136843F4003313601A
:1027A000126802F4003205920A6842F001020A60DF
:1027B000096802AB01F0010105910C21CDE9001679
:1027C00083E830106946FFF74BF9002211462620B6
:1027D000FFF7DCFA2620A8E72D48834221D11068B4
:1027E00040F480201060106800F480200590086894
:1027F00040F002000860086802AB00F0020005909B
:102800004FF44060CDE9000683E830106946214866
:10281000FFF726F9002211462720FFF7B7FA2720F5
:1028200083E71D48834282D1D9F8002042F020027C
:10283000C9F80020D9F8000000F0200005900868D1
:1028400040F004000860086802AA00F00400059047
:10285000C020CDE9000682E8B00069465046FFF787
:10286000FFF8002211464720FFF790FA47205CE767
:10287000004C004040380240000002400050004040
:1028800000080240000C02400010014000440040DB
:102890000048004000040240001401402DE9F84FB8
:1028A000044690F842009A4616460D46202802D06B
:1028B0000220BDE8F88FB5B1AEB1002060642221DE
:1028C00084F842102063FFF7F3F9A6858146E68578
:1028D000A0684FF480582027404501D1206920B1DD
:1028E0002E46002529E00120E3E7002625E04B469F
:1028F000002220212046CDF800A001F0E2FD18B111
:1029000084F842700320D4E726B1A06840451AD06D
:1029100038B108E020684068C0F3080025F8020BD1
:1029200008E0206978B12068406800F07F0000BFAF
:1029300006F8010BE08D401EE085E08D0028D6D121
:1029400084F84270B5E720684068F1E790F84230BB
:10295000202B01D00220704721B11AB1002303635C
:1029600001F094BD012070472DE9F0410746006851
:102970002549884246D1254C0025B4F8400040281E
:1029800006D340212046FDF777FCA4F8405031E003
:102990001F49204E09782154B4F84000401C80B2F1
:1029A000A4F84000317829BB072823D160790D288D
:1029B00020D1A0790A281DD1052217A11348FDF7BF
:1029C0006DFCB8B90120307040211048FDF754FC6F
:1029D000A4F8405000F01EFFFF230F2210A138463C
:1029E00000F026F8FF230F220DA1384600F020F852
:1029F00000F008FFBDE8F0410448012204498C3092
:102A0000FFF7A4BFBDE8F081005000408000002027
:102A10001D0000201C000020646562756700000036
:102A20000D0A2364656275676D6F6465230D0A0086
:102A30002DE9F843044690F84100984616460D46A5
:102A4000202802D00220BDE8F88385B17EB10020A5
:102A50006064212084F84100FFF72AF9A6848146AA
:102A6000E684A0682027B0F5805F02D003E0012053
:102A7000E9E7206910B12E4600250EE000260CE0A3
:102A80008021204601F01DFDA8B9C6B116F8010B42
:102A900021684860E08C401EE084E08C4B464FF09B
:102AA0000002CDF800800028EAD14FF04001204616
:102AB00001F007FD40B184F841700320C3E735F809
:102AC000020BC0F30800E3E784F841700020BAE786
:102AD00070470000F0B5664DA5B0B5F8400002287B
:102AE0006ED3A91E425C0D2A6AD14A1C825C0A2A56
:102AF00066D1002646548F1C04225EA13846FDF79D
:102B0000DAFB002828D022AA5CA13846FDF7E2FBB8
:102B10005D4C012828D022AA5CA13846FDF7DAFBDB
:102B2000012840D023AA5DA13846FDF7D3FB012838
:102B300041D008225DA13846FDF7BDFB00284ED0EC
:102B400006225DA13846FDF7B6FB002853D05CA2F3
:102B500007CA8DE8070047E0FEF786FB5B48067072
:102B6000042312225AA11AE0229804280CD8C0B2D9
:102B70002071FEF7D1FC03462079009059A28021F4
:102B800001A801F001FD04E05EA2802101A801F08E
:102B9000FBFC01A8FDF77BFB82B2042301A963487B
:102BA00000F050FE5BE0229B61A280216846A3609A
:102BB00001F0EAFC18E02398E060FDF7FDFD00E07D
:102BC00053E0CDE9000162A2802102A801F0DCFC03
:102BD00002A8FDF75CFB82B2042302A9DFE73422DE
:102BE00066A16846FDF72FFB6846FDF750FB82B2F1
:102BF00004236946D3E700F00DFE6DA001F0B4FC9C
:102C00004FF47A70FEF76EFE6AA001F0ADFC2079F9
:102C1000FEF782FC014622796FA001F0A5FC207925
:102C2000012801D0032803D171A0A16801F09CFC08
:102C30002079022801D0032809D1E068FDF7BCFD06
:102C400041EC100B70A053EC102B01F08DFC74A024
:102C500001F08AFC78A001F087FC00F0D3FD402150
:102C60000348FDF709FBA5F8406025B0F0BD000062
:102C70008000002065786974000000007365745F4F
:102C80006D6F646520256400700000207365745FBB
:102C900064656C6179202564000000007365745FD1
:102CA00064657074682025660000000072656164C8
:102CB0005F6C6F67000000007374617475730000CF
:102CC0000D0A234E414E230D0A0000001C00002077
:102CD0000D0A236F666664656275676D6F646523B0
:102CE0000D0A00000D0A234A6F62206D6F64652093
:102CF00073657420746F3A20257320282564292376
:102D00000D0A00000D0A23496E76616C6964206D1E
:102D10006F64652049442C20706C65617365207573
:102D2000736520302D34230D0A0000000C010020B3
:102D30000D0A2344656C61792074696D65207365A3
:102D40007420746F3A20256C75206D73230D0A0072
:102D50000D0A234465707468207472696767657230
:102D60002076616C75652073657420746F3A202538
:102D70002E3266206D230D0A000000000D0A23523A
:102D80006561642072756E74696D65207061726131
:102D90006D65746572732028746F20626520696D9B
:102DA000706C656D656E74656429230D0A00000002
:102DB000796573000D0A2D2D2D2043757272656E95
:102DC000742053797374656D205374617475732026
:102DD0002D2D2D0D0A00000043757272656E742052
:102DE0006D6F64653A20257320282564290D0A003B
:102DF00044656C61792073657474696E673A202547
:102E00006C75206D730D0A004465707468207365DD
:102E10007474696E673A20252E3266206D0D0A00A3
:102E20002D2D2D2D2D2D2D2D2D2D2D2D2D2D2D2DD2
:102E30002D2D2D0D0A0000000D0A235374617475A9
:102E40007320717565727920636F6D706C65746540
:102E500064230D0A00000000FEE700000FB480218B
:102E600000B5A1B023AB6846229A01F0A5FB00F0A3
:102E7000D1FC642306220CA10D48FFF7D9FD68465A
:102E8000FDF705FA82B2642369460948FFF7D0FDD1
:102E90006423022205A10648FFF7CAFD00F0B2FC38
:102EA00021B05DF814FB0000796573200D0A000065
:102EB0000C0100202DE9F04F87B014216846FDF782
:102EC000DBF942480024016841F08001016001689B
:102ED00001F080010591016841F001010160016884
:102EE00001F001010591016841F0100101600168E4
:102EF00001F010010591016841F0020101600168D3
:102F000001F002010591016841F0040101600168CE
:102F100001F004010591016841F0080101600068B9
:102F2000DFF8AC8000F008004FF403650590002244
:102F300029464046FEF7B6FEDFF898904FF400466B
:102F4000002231464846FEF7ADFEDFF88CA0002295
:102F500031465046FEF7A6FEDFF880B0F71100229A
:102F600039465846FEF79EFE002202211C48FEF715
:102F700099FE00950125CDE9015469464046039428
:102F8000FEF76EFD0096CDE901546946484603946C
:102F9000FEF766FDCDE90065CDE90254694650466D
:102FA000FEF75EFD0097CDE901546946584603944B
:102FB000FEF756FD02200090CDE90154694608480D
:102FC0000394FEF74DFD07B0BDE8F08F30380240A6
:102FD00000000240001002400004024000080240CD
:102FE000000C02400C4810B50A4901604FF416511C
:102FF0004160002181600C22C160C0E9041281613E
:10300000C161FFF7F3FA002803D0BDE81040FEF7D6
:1030100057B910BD004C0040C40000200C4810B54A
:103020000A4901604FF4E1314160002181600C22C6
:10303000C160C0E904128161C161FFF7D7FA0028BD
:1030400003D0BDE81040FEF73BB910BD0050004072
:103050000C0100200C4810B50A4901604FF41651CC
:103060004160002181600C22C160C0E904128161CD
:10307000C161FFF7BBFA002803D0BDE81040FEF79E
:103080001FB910BD00100140540100200C4810B5BC
:103090000A4901604FF4E1314160002181600C2256
:1030A000C160C0E904128161C161FFF79FFA002885
:1030B00003D0BDE81040FEF703B910BD0044004046
:1030C0009C0100200C4810B50A4901604FF4E13121
:1030D0004160002181600C22C160C0E9041281615D
:1030E000C161FFF783FA002803D0BDE81040FEF766
:1030F000E7B810BD00480040E40100200C4810B5BE
:103100000A4901604FF4E1314160002181600C22E5
:10311000C160C0E904128161C161FFF767FA00284C
:1031200003D0BDE81040FEF7CBB810BD001401403D
:103130002C020020FEE770B505464FF6FF70002216
:103140004AF201040CE0AB5C58400023C6074FEA8A
:10315000500000D060405B1C082BF7DB521C92B281
:103160008A42F0D370BD00002DE9F04389B01C46BF
:1031700015460E468046DDE91310DDE911328DF863
:103180000C308DF80D208DF80E10DDF854908DF870
:103190000F00109F494617A0FFF760FE0420CDE9FD
:1031A000000603AB3A4621460295404600F014FA69
:1031B00010B1494614A019E041F28833224604A90F
:1031C000404600F0C5F920B103280AD001280BD0F1
:1031D0000EE0494613A0FFF741FE012009B0BDE80B
:1031E000F083494612A001E0494616A0FFF736FEDB
:1031F0000020F3E7436865636B696E6720257320E1
:10320000636F6D6D2E2E2E00257320636F6D6D3AEA
:10321000205472616E736D6974206572726F722EC4
:1032200000000000257320636F6D6D204F4B2E0052
:10323000257320636F6D6D3A2054696D656F7574E9
:103240002E000000257320636F6D6D3A2052656378
:1032500065697665206572726F722028435243203B
:103260006F722061646472657373206D69736D6140
:10327000746368292E0000002DE9F0478AB01546D6
:10328000DDE9128C82460E46DDE9142008218DF816
:1032900010108DF811808DF812C0110A8DF81310DE
:1032A0008DF81420010E99468DF815100027010C99
:1032B000F6238DF80C708DF816108DF80D30010A7C
:1032C0008DF80E7004238DF818008DF80F3000EB88
:1032D00080008DF817104300102449461448FFF76A
:1032E000BDFD0D20CDE9000603AB224649460295FF
:1032F000504600F071F910B149460EA00AE064236F
:103300004A4607A9504600F023F948B10328494628
:103310000CD013A0FFF7A2FD00200AB0BDE8F08793
:1033200049461BA0FFF79AFD0120F6E721A0F1E72F
:103330006451000850756D70203078253032582067
:10334000537461727420636F6D6D616E643A2054C2
:1033500072616E736D6974206572726F722E0000F7
:1033600050756D702030782530325820537461725A
:103370007420636F6D6D616E643A2041434B20523F
:10338000656365697665206572726F722E00000054
:1033900050756D702030782530325820537461722A
:1033A0007420636F6D6D616E642041434B204F4B01
:1033B0002E00000050756D70203078253032582076
:1033C000537461727420636F6D6D616E643A204155
:1033D000434B2054696D656F75742E002DE9F041E3
:1033E00088B01F4680460023F6208DF80C308DF8FB
:1033F0000D0015460E46184604210E9A8DF8101041
:103400008DF811008DF80E308DF8122002238DF802
:1034100013008DF8140010248DF80F30394615A0D4
:10342000FFF71CFD0920CDE9000603AB2246394613
:103430000295404600F0D0F810B139461AA00AE0D3
:1034400064233A4606A9404600F082F848B10328B2
:1034500039460CD01FA0FFF701FD002008B0BDE8E1
:10346000F081394627A0FFF7F9FC0120F6E72EA0EE
:10347000F1E7000053656E64696E672050756D70EA
:103480002053746F7020636F6D6D616E64202841EE
:103490006464723A3078253032582C204163633AA4
:1034A0002575292E2E2E000050756D702030782540
:1034B0003032582053746F7020636F6D6D616E648D
:1034C0003A205472616E736D6974206572726F7206
:1034D0002E00000050756D70203078253032582055
:1034E00053746F7020636F6D6D616E643A20414359
:1034F0004B2052656365697665206572726F722E26
:103500000000000050756D70203078253032582052
:1035100053746F7020636F6D6D616E642041434B17
:10352000204F4B2E0000000050756D702030782524
:103530003032582053746F7020636F6D6D616E640C
:103540003A2041434B2054696D656F75742E00001D
:103550002DE9F843984616460D468146FEF7A8FB2E
:103560000746002427E001231A4669464846FFF72C
:1035700095F900BB9DF80000B0421CD12855641C91
:103580001ED00A273B46012269464846FFF786F9C6
:10359000C0B1052C1ED32878B0421BD12819A41E17
:1035A00030F8026CA1B22846FFF7C5FD864211D162
:1035B0000020BDE8F883FEF77BFBC11B4145D2D359
:1035C0000320F6E7FF2CDDD89DF800002855641C89
:1035D000A4B2D7E70120ECE72DE9F041C0B0804666
:1035E000DDE946578DF800106C468DF80120489EA5
:1035F0002A461946A01CFCF726FEAD1CADB2294692
:103600006846FFF798FD60556D1CA9B2000A60542A
:10361000491C8CB2B8476420FEF764F96423224643
:1036200069464046FFF704FA04000FD1FEF740FB5D
:1036300005464046FEF794FE0746FEF739FB401B61
:10364000642801D9032401E0202FF2D1B04740B013
:103650002046BDE8F081FEE7704700001FB50A2252
:103660000023CDE9003242F6E061CDE902010123F9
:10367000064A07490748FFF7FFFD002805D104B0B7
:1036800005A0BDE81040FFF7E9BB1FBDA537000846
:10369000B53700089C01002050756D7031205374BF
:1036A000617274204641494C45442E0008B5002003
:1036B00000900123064A07490748FFF78FFE0028BC
:1036C00004D1BDE8084005A0FFF7C8BB08BD000055
:1036D000A5370008B53700089C01002050756D70B3
:1036E000312053746F70204641494C45442E0000F0
:1036F0001FB50A2201234EF66021CDE90032CDE943
:103700000201074A07490848FFF7B6FD002805D11E
:1037100004B006A0BDE81040FFF7A0BB1FBD00002D
:10372000C5370008D5370008E401002050756D70DA
:1037300032205374617274204641494C45442E0036
:1037400008B5002000900123064A07490748FFF703
:1037500045FE002804D1BDE8084005A0FFF77EBB68
:1037600008BD0000C5370008D5370008E401002077
:1037700050756D70322053746F70204641494C452E
:10378000442E000000224FF400610148FEF78ABA7F
:10379000000002400122D1020148FEF783BA000076
:1037A00000000240002210210148FEF77BBA000011
:1037B00000000240012210210148FEF773BA000008
:1037C0000000024000224FF400410148FEF76ABAAF
:1037D000001002400122D1030148FEF763BA000045
:1037E00000100240002220210148FEF75BBA0000D1
:1037F00000000240012220210148FEF753BA0000D8
:1038000000000240002202210148FEF74BBA0000EE
:10381000000C0240012202210148FEF743BA0000D9
:10382000000C024000224FF480710148FEF73ABAC2
:1038300000080240012211020148FEF733BA0000DD
:10384000000802402DE9F0411C4615460E46074689
:10385000062B25D2134850F824008047FF232A4620
:1038600031463846FFF7E4F86420FEF73BF8FF23C3
:103870002A4631463846FFF7DBF86420FEF732F877
:10388000FF232A4631463846FFF7D2F8054818305C
:1038900050F824008047BDE8F0416420FEF722B8CC
:1038A000BDE8F081884F00087047000010B5254C36
:1038B00020780A2840D2DFE800F005090D1115191B
:1038C00025293F34BDE8104000F0A2B8BDE8104003
:1038D00000F06AB9BDE8104000F000BCBDE810403F
:1038E00000F036BABDE8104000F00CB9FFF728FF31
:1038F000FEF7DEF91449886014A0FFF7AFFA07203D
:10390000207010BDBDE8104000F0B2B8207A002849
:10391000F7D119A0FFF7A2FA00F08EFC0120207267
:1039200010BD20A0FFF79AFA00F076FCBDE8104029
:103930004FF4FA70FDF7D6BF26A0FFF78FFA0920E3
:10394000DEE70000000000205400002050756D707C
:10395000322073746F707065642E205761746572C5
:1039600020636F6C6C656374696F6E20636F6D703C
:103970006C6574652E00000053616D706C696E6734
:103980002070726F6365737320636F6D706C657404
:103990006564207375636365737366756C6C7921F8
:1039A000000000004552524F522053544154452EBE
:1039B0002053797374656D2068616C746564206F41
:1039C0007220696E207265636F76657279206D6F03
:1039D00064652E00556E6B6E6F776E207374617424
:1039E0006520656E636F756E74657265642E205414
:1039F00072616E736974696F6E696E6720746F208F
:103A00004552524F522073746174652E00000000BD
:103A100010B509A0FFF722FA00F00EFC124C0120AD
:103A200020701C211148FCF727FC0020A070E070DA
:103A300020716071607010BD53797374656D204999
:103A40006E697469616C697A65642E20456E74656F
:103A500072696E672053656C662D436865636B20E1
:103A600073746174652E0000000000205400002073
:103A700070B5114D114CE87950B93220FFF7EEFDC9
:103A8000FEF716F9E0600EA0FFF7E8F90120E871F3
:103A9000FEF70EF9E168401A104988420BD3FFF790
:103AA00005FEFEF705F920610DA0FFF7D7F9072005
:103AB00028700020E87170BD000000205400002034
:103AC00050756D7031207374617274656420666F17
:103AD0007220636C65616E696E672E00C0D4010050
:103AE00050756D70312073746F707065642E204353
:103AF0006C65616E696E6720636F6D706C6574656F
:103B00002E00000070B5154C0025A07960B940F278
:103B10007710FFF7EDFDFEF7CBF8C4E9030510A021
:103B2000FFF79CF90120A0714FF47A70FDF7DAFEDF
:103B3000FDF7DAFD2061FEF7BBF8E168401A114994
:103B4000884203D210492069884205D30FA0FFF7AD
:103B500085F905202070A57170BD000000000020CF
:103B600050756D7032207374617274656420666F75
:103B70007220776174657220636F6C6C6563746921
:103B80006F6E2E00C02709008EA2010050756D7067
:103B9000322073746F7020636F6E646974696F6E26
:103BA000206D65742E0000002DE9F041324C6069F3
:103BB00028B9FEF77DF8606130A0FFF74FF9A078D3
:103BC00030B9FDF7EFFAA07010B934A0FFF746F94D
:103BD000E07830B9FDF706FBE07010B937A0FFF7C9
:103BE0003DF92079012600B92671607930B9FDF7D9
:103BF000B7FA607110B939A0FFF730F9A078E17811
:103C0000414D084021794FF0000708406179084292
:103C100014D066703DA0FFF721F9A0782875E078F0
:103C200068752079A8756079E87560782876022033
:103C300020706761BDE8F04100F0F6BAFEF738F891
:103C40006169401A41F28831884212D960780028AF
:103C50000FD135A0FFF702F9A0782875E0786875D4
:103C60002079A8756079E875607828760920207039
:103C70006761BDE8F08100000000002053746172AC
:103C800074696E672073797374656D2073656C66F3
:103C90002D636865636B2E2E2E00000053656C66E5
:103CA0002D636865636B3A2050756D703120636FCA
:103CB0006D6D204641494C45442E000053656C66AD
:103CC0002D636865636B3A2050756D703220636FA9
:103CD0006D6D204641494C45442E000053656C668D
:103CE0002D636865636B3A20416E616C6F6720439A
:103CF0006F6C6C6563746F7220636F6D6D204641ED
:103D0000494C45442E000000540000205379737440
:103D1000656D2073656C662D636865636B2050412B
:103D2000535345442E00000053797374656D20731E
:103D3000656C662D636865636B204641494C45445C
:103D4000206F722054494D454F55542E00000000FD
:103D50002DE9F041604D614C2DED028B84B0A869D6
:103D600048B9FDF7A5FFA8612079FDF7D5FB01460D
:103D70005BA0FFF773F820794FF4FA78052878D222
:103D8000DFE800F0A3030C3E9D00FDF791FFA96959
:103D9000401AA16888426CD35BA05BE0FDF7F0FBA2
:103DA000D4ED030AB0EE408A10EE900AF4EEC80A91
:103DB000F1EE10FA12D8FCF7FFFC06460F4618EE9B
:103DC000100AFCF7F9FC41EC100B5AA053EC102B35
:103DD000CDE9006700F0C8FB66A030E0FCF7ECFC22
:103DE00004460D4618EE100AFCF7E6FC41EC100BF9
:103DF00068A053EC102BCDE9004500F0B5FB56E070
:103E0000FDF7BEFBD4ED030AB0EE408AF4EEC80A1B
:103E1000F1EE10FA16D810EE900AFCF7CDFC06462B
:103E20000F4618EE100AFCF7C7FC41EC100B654872
:103E300053EC102BCDE9006700F096FB62A0FFF772
:103E40000DF809E0FDF734FFA969401AA16888421E
:103E500014D366A0FFF702F8FDF72AFF7049086047
:103E600000E006E06FA0FEF7F9FF062028700020B2
:103E7000A86104B0BDEC028BBDE8F081FDF718FF2E
:103E8000A969471AE068FCF797FC05460E4618EE4C
:103E9000100AFCF791FC41EC100BA068CDE900562C
:103EA000CDE9027053EC102B6C4800F05DFB4046EE
:103EB00004B0BDEC028BBDE8F041FDF713BD68A076
:103EC000FEF7CCFF4FF47A70F2E775A0FEF7C6FF5D
:103ED00009202870CDE700000000002070000020BD
:103EE00057616974696E6720666F722074726967C2
:103EF00067657220636F6E646974696F6E3A20251E
:103F0000732E2E2E00000000547269676765723AA6
:103F10002044656C617920636F6E646974696F6EAB
:103F2000206D657420616674657220256C75206D46
:103F3000732E0000547269676765723A2044657099
:103F4000746820636F6E646974696F6E206D657448
:103F5000202843757272656E743A20252E326620D1
:103F60006D2C205365743A20252E3266206D292E43
:103F70000D0A0000547269676765723A20446570E3
:103F8000746820636F6E646974696F6E206D657408
:103F90002E00000043757272656E74206465707443
:103FA000683A20252E3266206D2C2077616974696D
:103FB0006E6720666F7220252E3266206D2E0D0AE8
:103FC0000000000010500008547269676765723A7B
:103FD00020446570746820636F6E646974696F6EE5
:103FE000206D65742066697273742E00547269675F
:103FF0006765723A2044656C617920636F6E64690D
:1040000074696F6E206D65742066697273742061C7
:104010006674657220256C75206D732E000000009B
:10402000540000205472696767657220636F6E6484
:104030006974696F6E206D65742E2053746172749B
:10404000696E672077617465722073616D706C6949
:104050006E67202850756D7032292E005850000868
:10406000547269676765723A2057616974696E674F
:1040700020666F722073657269616C20636F6D6D6D
:10408000616E642028652E672E2C20277374617260
:10409000745F73616D706C696E6727292E00000074
:1040A0004572726F723A204E6F207472696767654D
:1040B00072206D6F6465207365742E205472616E7A
:1040C000736974696F6E696E6720746F2045525210
:1040D0004F522073746174652E00000010B50C4CB3
:1040E000207960B1FDF718FA01460AA0FEF7B6FE86
:1040F0000F49207908710F490320087010BD0EA0E8
:10410000FEF7ACFEBDE810404FF4FA70FDF7EABBD5
:104110007000002054726967676572206D6F646576
:104120002073656C65637465643A2025732E000006
:10413000540000200000002057616974696E6720F8
:10414000666F722074726967676572206D6F64654F
:104150002073656C656374696F6E2066726F6D2085
:10416000484D492F4465627567204D6F64652E2E5A
:104170002E000000FDF7A2BD30B593B03021684697
:10418000FCF77AF814210CA8FCF776F81C480025F7
:10419000016841F080510160006800F0805011908A
:1041A0001848016841F4404101600068022400F4AD
:1041B0004040119001200090000401908001CDE961
:1041C00006400C2008909020CDE9090404200B90B3
:1041D0006846FDF7F9FE70B90CA90F2081E831009F
:1041E0004FF4A0500F90E002109004210CA8FDF7AE
:1041F000FFFD002801D0FDF763F813B030BD0000CB
:1042000040380240007000400248016841F47001EB
:104210000160704788ED00E04FF400410148FDF770
:1042200039BD00000004024000224FF40041014863
:10423000FDF738BD000402400122D1030148FDF71B
:1042400031BD0000000402400148FEF78FB80000B5
:10425000C40000200148FEF789B800000C010020CE
:1042600010B5806B0021C185FEF779F810BD01689B
:104270000C3151E8002F22F4907241E80023002B0A
:10428000F5D10168143151E8002F22F0010241E814
:104290000023002BF5D1016B012909D101680C31F4
:1042A00051E8002F22F0100241E80023002BF5D145
:1042B000202180F8421000210163704708B590F872
:1042C0004210222901D0022008BD82684FF4805399
:1042D0009A4201D1016921B1816A9A421BD04AB147
:1042E0000AE00268816A5268C2F308020A80816AA1
:1042F000891C08E0026972B10268526802F07F020C
:104300000A70816A491C8162C18D491E0904090C29
:10431000C18503D01BE002685268F1E70168CA68F2
:1043200022F02002CA600168CA6822F48072CA6062
:1043300001684A6922F001024A61202180F8421096
:1043400000214163026B012A03D0FEF70DFB002020
:1043500008BD016301680C3151E8002F22F0100202
:1043600041E80023002BF5D101680A68D20602D586
:104370000A6849680091818DFDF7F0FFE7E70000CA
:1043800070B5044600680169E26821F440511143A8
:1043900001612169A068E26908436169114308432A
:1043A0002168CA6849F20C639A430243CA602068D4
:1043B0004169A26921F4407111434161314920688A
:1043C000884202D03049884202D1FDF7BBFD01E0AE
:1043D000FDF7A8FDE2690023192164253226B2F514
:1043E000004F626828D0A0FB0101930F9200FBF7F9
:1043F000F9FE0146B0FBF5F06FF01802504301EBF7
:10440000800006EB0010B0FBF5F000F0F002B1FB0D
:10441000F5F002EB0012B1FBF5F06FF01803584312
:1044200001EB800006EB0010B0FBF5F000F00F0090
:1044300021681044886070BDA0FB010192185B41A7
:10444000FBF7D0FE0146B0FBF5F00201B1FBF5F041
:104450006FF01803584301EB800006EBC000B0FB7F
:10446000F5F000F0F80002EB4002B1FBF5F0584324
:1044700001EB800006EBC000B0FBF5F000F0070098
:10448000D6E70000001001400014014081628285DF
:10449000C28500214164222180F84210016921B1C6
:1044A0000168CA6842F48072CA6001684A6942F0D1
:1044B00001024A610068C16841F02001C16000202A
:1044C00070472DE9F843984617460D460446089E66
:1044D00024E0701C22D0FDF7EBFBA0EB0800B042FB
:1044E0001AD8CEB12068C168490717D5802D15D0DC
:1044F000402D13D00168C94309070FD40168002576
:10450000406800902046FFF7B2FE0820606484F8FF
:1045100040500120BDE8F8830320FBE720680068D5
:1045200035EA000004D00020B842D2D00020F1E7E4
:104530000120F9E70148FDF719BF000054010020F0
:104540000148FDF713BF00009C0100200148FDF762
:104550000DBF0000E40100200148FDF707BF000087
:104560002C020020FEE700000FB4054B10B503A994
:10457000044A029800F020F910BC5DF814FB00001A
:10458000FD4E0008500000200FB41CB5024600206C
:1045900007AC00290BD0491ECDE90021054B6A4626
:1045A0002146069800F008F9009A002111701CBC01
:1045B0005DF814FBE74E00087CB5044600201D465C
:1045C000164600290BD0491ECDE90041044B6A462E
:1045D0002946304600F0F0F8009A002111707CBDA9
:1045E000E74E00080907090E002804DB00F1E0206F
:1045F00080F80014704700F00F0000F1E02080F810
:10460000141D704702E008C8121F08C1002AFAD121
:1046100070477047002001E001C1121F002AFBD142
:10462000704700002DE9FF5F82B00021DDE9043012
:10463000020DDDF840B0034318D044F61050A2F24A
:10464000FF3242431514119801281FD0A5EB0B002F
:10465000401C5FEA000A4FF000064E4FDFF8389129
:10466000B046504615D5CAF1000413E01198012454
:104670004AA3012801D16FEA0B010298119AC0E9FF
:104680000031C0E9024206B0BDE8F09FCBF1000066
:10469000DFE704460021404A491842EB0450CDE9C7
:1046A000001012E0E00707D032463B46404649463C
:1046B000FCF7B3F98046894632463B461046194618
:1046C000FCF7ABF906460F466410002CEAD1DDE991
:1046D0000401DDE90023BAF1000F06DAFCF79DF9C9
:1046E00042464B46FCF799F905E0FCF708FA4246CA
:1046F0004B46FCF704FA04460E460022284BFCF712
:1047000091FA03D84FF0FF30014607E00022254B15
:1047100020463146FCF7DAF8FCF76CFA102409E081
:10472000002C0ADB0A220023FBF75CFD039B3032DE
:104730001A55641E50EA0102F2D1641C039AC4F1B6
:1047400011031444119A012A03D0012208430DD108
:104750000AE0084304D000204FF0110B119072E7DB
:10476000A3EB0B056D1E0DE05B4504DD4FF0000271
:1047700005F1010504E003DA4FF00002A5F101059F
:10478000002AECD002981199C0E90231C0E9004535
:1047900079E70000000014400000F03F3000000006
:1047A0000000F0430000E03F30380A2801D2012029
:1047B00070470020704700002DE9FF4F95B09B46E1
:1047C0008946064600250FE2252877D10024274692
:1047D000F84A0121059400E0044316F8013F203B0C
:1047E00001FA03F01042F7D130782A2811D06FF087
:1047F0002F033078A0F13002092A16D8059A44F028
:10480000020402EB820203EB42021044761C059084
:10481000EFE759F8042B0592002A03DA504244F4DA
:104820000054059044F00204761C30782E2816D1EE
:1048300016F8010F44F004042A280DD06FF02F025F
:104840003078A0F13003092B09D807EB870302EB7E
:104850004303C718761CF3E759F8047B761C3078BD
:104860006C280FD006DC4C2817D068280DD06A2899
:1048700014D104E0742810D07A280FD10DE044F44C
:1048800000140AE044F4801401E044F44014727807
:10489000824202D104F58014761C761C307866289A
:1048A0000BD013DC582877D009DC002875D04528B8
:1048B000F6D04628F4D047281AD19DE118E06328A5
:1048C00035D0642879D0652812D195E1702873D04D
:1048D00008DC6728F1D069286FD06E280DD06F28CA
:1048E00006D1B5E073282CD0752875D0782874D0FF
:1048F0005A46179990476D1C75E1C4F3025002287F
:1049000009D003280DD0D9F8001004280DD00D606F
:1049100009F1040967E1D9F80010EA17C1E900526A
:10492000F6E7D9F800100D80F2E70D70F0E719F8FE
:10493000041B8DF8001000208DF80100EA460120CC
:1049400003E059F804AB4FF0FF3061074FF000016E
:1049500002D40DE008F101018846B9420FDA804522
:10496000F8DB1AF808100029F4D108E008F1010179
:1049700088468142FADB1AF808100029F6D105981A
:104980005B46A0EB080721463846179A00F094FAD8
:10499000284400EB080507E04DE029E10DE01AF896
:1049A000010B5A4617999047B8F10108F7D25B46B8
:1049B00021463846179A13E142E00A220092C4F3D6
:1049C00002524FF0000A022A08D059F804CB032AF9
:1049D0004FEAEC710AD00DE029E02AE009F1070165
:1049E00021F00702F2E802C1914609E00FFA8CFCBF
:1049F0004FEAEC71042A03D14FFA8CFC4FEAEC71B8
:104A0000002907DA0A460021DCF1000C61EB020103
:104A10002D2202E0220504D52B228DF8042001224C
:104A200003E0E20701D02022F7E7904659E00A218F
:104A300002E010220DE010214FF0000A00910BE07F
:104A400010224FF0000A44F004040827009203E00B
:104A500008224FF0000A0092C4F30252022A05D045
:104A600059F804CB0021032A08D009E009F1070115
:104A700021F00702F2E802C1914605E01FFA8CFC22
:104A8000042A01D10CF0FF0C4FF00008220728D5B2
:104A9000702806D0009B83F0100353EA0A0305D068
:104AA0000EE040228DF80420012208E05CEA0102B9
:104AB00006D030228DF804208DF8050002229046A1
:104AC000009B83F0080353EA0A030AD15CEA01025F
:104AD00001D1620705D530228DF804204FF001087E
:104AE0007F1E582804D034A003900EA802900DE039
:104AF00036A0F9E753466046009AFBF773FB8446FD
:104B00000398825C0298401E029002705CEA0100E9
:104B1000F0D1029806A9081A00F1200A600702D510
:104B200024F4803400E00127574502DDA7EB0A009A
:104B300000E0002000EB0A01009005984144401A73
:104B40000590E00306D45B462146179A059800F0CD
:104B5000B3F90544002706E001A85A46C05D17993D
:104B600090476D1C7F1C4745F6DBE0030CD55B4688
:104B70002146179A059800F09FF9054404E030207B
:104B80005A46179990476D1C0099481E00900029BD
:104B9000F5DC08E0029802995A460078491C029117
:104BA000179990476D1CBAF10001AAF1010AF1DCD6
:104BB00065E10000092801003031323334353637E1
:104BC0003839616263646566000000003031323359
:104BD00034353637383941424344454600000000F9
:104BE00000F058F90544761C307800287FF4ECADCD
:104BF00019B02846BDE8F08F620700D4062709F1F6
:104C0000070222F0070CFCE80223E14603F000480B
:104C10005FEA080C02D00FF2702C0DE05FEA045C32
:104C200002D50FF2682C07E05FEAC47C02D00FF2D5
:104C3000602C01E0AFF2700C4FF0FF3823F000431E
:104C4000CDF850C065280CD006DC452809D0462890
:104C50001DD047283DD13DE0662818D067287ED179
:104C600038E00021112F01DB112000E0781CCDE994
:104C7000000106A90EA8FFF7D5FCDDE90F010E9A89
:104C800003910021009207F1010A04914DE04FF0D9
:104C900000400097CDE9011006A90EA8FFF7C2FC5D
:104CA000DDE90F0203920E9B11990022DDF80CA0A2
:104CB0000093049211B9791C00EB010AB7EB0A00CA
:104CC00004D4C0F1FF3007F1010A0490AAEB0700F9
:104CD000019044E0012F00DA01270021112F01DDAE
:104CE000112000E03846CDE9000106A90EA8FFF723
:104CF00099FCDDE90F010E9A0391002104910092C5
:104D0000BA4621070CD40399514500DA8A46BAF114
:104D1000010F05DD009AAAF10101515C302908D08C
:104D2000B84202DA10F1040F06DA0121CDE90110D0
:104D300015E0AAF10101E9E7002805DC0499014426
:104D40000491AAEB000102E0411C514500DD8A46B6
:104D50000499401A401C01904FF000400290200737
:104D600004D40198504501DBCDF8048000208DF873
:104D70004F0002980DF14F07B0F1004F25D02B20C6
:104D80000E9002984FF0020800280CDA4042029080
:104D90002D200E9007E00A210298FBF720FD30310C
:104DA000029007F8011DB8F10001A8F10108F2DC3A
:104DB00002980028EFD1791E0E980870307800F024
:104DC000200040F0450007F8020D12A8C01B00F1BA
:104DD00007081498007800B1012000EB0A0101983F
:104DE00001EBE07105984144401A401E0590E00334
:104DF00006D45B462146179A059800F05DF80544F5
:104E00001498007818B15A46179990476D1CE00322
:104E100024D55B462146179A059800F04DF80544C5
:104E20001CE00498002807DBDDE90301884203DD6C
:104E30000098405C179901E0179930205A46904736
:104E4000049805F10105401C04900198401E019052
:104E500004D12E205A46179990476D1CBAF10001D3
:104E6000AAF1010ADDDC05E017F8010B5A46179993
:104E700090476D1CB8F10001A8F10108F4DC5B4615
:104E80002146179A0598ABE62D0000002B00000084
:104E9000200000002DE9F041044600251E4617467B
:104EA000880404D405E039462020B0476D1C641EF8
:104EB000F9D52846BDE8F0812DE9F04104460025EA
:104EC0001E469046C80301D5302700E020278804FD
:104ED00004D505E041463846B0476D1C641EF9D53F
:104EE0002846BDE8F0814A68002A06D00A68531CAB
:104EF0000B6010704868401E4860704713B54FF64D
:104F0000FF73012269460248FDF792FD00981CBD1F
:104F10000C010020FCF7DAFEFFF72EF9FDF7CAFFBF
:104F2000FEF760F8FEF77AF8FEF794F8FEF7AEF8B1
:104F3000FEF7C8F8FEF7E2F8FCF774F901220F4912
:104F40000F48FDF703FD41F28830FCF7CBFC0D4D17
:104F50004FF47A742878012802D0FEF7A7FCF9E70D
:104F6000FDF7B8FD2046FCF7BDFCFFF765F92046CC
:104F7000FCF7B8FCFFF758F9ECE700001D00002033
:104F80000C0100201C00002095370008B5370008F0
:104F9000D5370008F53700081538000835380008FF
:104FA00085370008A5370008C5370008E537000831
:104FB0000538000825380008000000000000000047
:104FC00001020304060708090000000001020304AF
:104FD000DDDDDDDDDCBBBBDDDDDDDDDDDDDDDDDD46
:104FE0009888888888888888777777777788888886
:104FF000855555566666666666666666666888881E
:105000008333333222222222222222222228888D16
:10501000547269676765723A2044657074682063EA
:105020006F6E646974696F6E206D65742066697255
:105030007374202843757272656E743A20252E327F
:1050400066206D2C205365743A20252E3266206D23
:10505000292E0D0A0000000043757272656E7420DF
:1050600064657074683A20252E3266206D2028779A
:10507000616974696E6720666F7220252E32662022
:105080006D292C20456C61707365642064656C61CA
:10509000793A20256C75206D7320287761697469D1
:1050A0006E6720666F7220256C75206D73292E0D3A
:1050B0000A00000050756C736520436F6C6C65636B
:1050C000746F723A20526563656976656420414366
:1050D0004B204F4B2C2062757420646174612062F8
:1050E00079746520636F756E7420697320696E63CF
:1050F0006F72726563742028257520696E737465FC
:105100006164206F662034292E000000416E616CBE
:105110006F6720436F6C6C6563746F723A205265E1
:105120006365697665642041434B204F4B2C2062B8
:1051300075742064617461206279746520636F7591
:105140006E7420697320696E636F72726563742078
:1051500028257520696E7374656164206F6620343C
:10516000292E000053656E64696E672050756D705E
:1051700020537461727420636F6D6D616E642028BA
:10518000416464723A3078253032582C205370656F
:1051900065643A25752C2054696D653A256C752037
:1051A0006D73292E2E2E0000C8510008000000202B
:1051B00054000000044600081C520008540000205F
:1051C0002406000014460008000000000000000053
:1051D00000000000000000000000000000000000CF
:1051E00000000000000000000000000000000000BF
:1051F00000000000000000000100000000000000AE
:10520000000000000000000001000000100000008D
:0C521000000000000024F400000000007A
:04000005080001AD41
:00000001FF
