:020000040800F2
:10000000206200204D0200081B160008951300080E
:1000100019160008430400084919000800000000F0
:100020000000000000000000000000001F16000893
:1000300045040008000000001D16000821160008F5
:1000400067020008670200086702000867020008EC
:1000500067020008670200086702000867020008DC
:1000600067020008670200086702000867020008CC
:1000700067020008670200086702000867020008BC
:1000800067020008670200086702000867020008AC
:10009000670200086702000867020008670200089C
:1000A000670200086702000867020008670200088C
:1000B000670200086702000867020008670200087C
:1000C000670200086702000867020008670200086C
:1000D00067020008191900082519000831190008DD
:1000E000670200086702000867020008670200084C
:1000F000670200086702000867020008670200083C
:10010000670200086702000867020008670200082B
:10011000D5160008E116000867020008670200080B
:10012000670200086702000867020008670200080B
:1001300067020008670200086702000867020008FB
:1001400067020008670200086702000867020008EB
:100150006702000867020008670200083D190008EE
:1001600067020008670200086702000867020008CB
:10017000670200086702000867020008000000002C
:1001800067020008670200086702000867020008AB
:10019000670200086702000867020008670200089B
:1001A00000000000000000006702000800F002F8F4
:1001B00000F03CF80AA090E8000C82448344AAF1C5
:1001C0000107DA4501D100F031F8AFF2090EBAE8C3
:1001D0000F0013F0010F18BFFB1A43F0010318477B
:1001E000D4170000F4170000103A24BF78C878C173
:1001F000FAD8520724BF30C830C144BF04680C602D
:10020000704700000023002400250026103A28BF74
:1002100078C1FBD8520728BF30C148BF0B60704778
:100220001FB501F0B5FB1FBD10B510BD00F0CFF834
:100230001146FFF7F5FF01F098FB00F0EDF803B46D
:10024000FFF7F2FF03BC00F0F5F800000948804713
:1002500009480047FEE7FEE7FEE7FEE7FEE7FEE7A8
:10026000FEE7FEE7FEE7FEE704480549054A064BC0
:1002700070470000C5160008AD01000820020020EC
:1002800020620020202200202022002053EA020CBD
:1002900000F069802DE9F04B4FF00006002B1FBFE6
:1002A000B3FA83F503FA05F424FA05F65E4012BFAB
:1002B0001643B2FA82F502FA05F4C5F120051EBF15
:1002C00022FA05FC44EA0C04203556EA044C4FEAB5
:1002D000144418BF641C4FF000084FF0000990420E
:1002E00071EB030C39D3002919BFB1FA81F701FA78
:1002F00007F6B0FA80F700FA07F6C7F120071EBF2D
:1003000020FA07FC46EA0C062037B6FBF4FCA7EB04
:100310000507103F07F01F0BCBF120060CFA0BFB73
:100320002CFA06F644BFB3460026202FA4BF5E4633
:100330004FF0000B5BEA060C08BF4FF0010B19EB06
:100340000B09ABFB027C48EB0608C01B06FB02CC8A
:100350000BFB03CC71EB0C01C1E70B460246414697
:100360004846BDE8F08B13B54FF000004FF0000198
:10037000AFF30080BDE81C4070474FF0000200B5AD
:10038000134694469646203922BFA0E80C50A0E8B8
:100390000C50B1F12001BFF4F7AF090728BFA0E866
:1003A0000C5048BF0CC05DF804EB890028BF40F832
:1003B000042B08BF704748BF20F8022B11F0804F74
:1003C00018BF00F8012B704770477047704775469B
:1003D00000F02CF8AE4605006946534620F00700B1
:1003E000854618B020B5FFF73FFFBDE820404FF02D
:1003F00000064FF000074FF000084FF0000B21F00F
:100400000701AC46ACE8C009ACE8C009ACE8C009DB
:10041000ACE8C0098D46704710B50446AFF30080C4
:100420002046BDE81040FFF70ABF000000487047B3
:10043000C001002001491820ABBEFEE726000200E3
:100440007047FEE7704772B6FEE72DE9F0410446BB
:10045000876D00F075F9064694F8350000250228EE
:1004600006D08020606584F834500120BDE8F0811A
:100470002068016821F0160101602068416921F0BF
:1004800080014161206C08B9A06C20B1206801682E
:1004900021F0080101602068016821F0010101607C
:1004A0000CE000F04DF9801B052807D9202060657D
:1004B000032084F8350084F83450D7E720680068BA
:1004C000C007EED194F85C103F208840B86001204E
:1004D00084F8350084F834500020C7E790F83510D0
:1004E000022903D08021416501207047052180F851
:1004F00035100068016821F001010160002070479B
:100500002DE9F84FDFF8F8A10022012403254FF070
:100510000F090AF1040BAAF1040E00BF0B6804FADC
:1005200002F63340B34270D10F7907F00307012F71
:1005300001D0022F16D187684FEA420805FA08FC5D
:1005400027EA0C07D1F80CC00CFA08FC4CEA070C9F
:10055000C0F808C04768B7430E79C6F30016964046
:100560003E4346600E79F643B6070AD0C7684FEAA5
:10057000420C05FA0CF6B7438E6806FA0CF63E43B9
:10058000C6600E7906F00306022E10D1D60800EBE5
:100590008608D8F8206057074FEAD76C09FA0CF79D
:1005A000BE430F6907FA0CF73743C8F82070066896
:1005B0004FEA420C05FA0CF7BE430F7907F0030728
:1005C00007FA0CF7374307604E6816F4403F1CD01B
:1005D0004C4E376847F480473760366822F003078F
:1005E00006F480460096484E07EB060CDCF80868D7
:1005F00097073F0F09FA07F826EA0806DFF80C818B
:10060000404503D14FF0000841E072E0DFF800817F
:10061000404502D14FF0010839E0DFF8F88040454D
:1006200002D14FF0020832E0DFF8EC80404502D101
:100630004FF003082BE0DFF8E480404502D14FF093
:10064000040824E0DFF8D880404502D14FF00508C7
:100650001DE0DFF8D080404502D14FF0060816E0DB
:10066000DFF8C480404502D14FF007080FE0DFF803
:10067000BC80404502D14FF0080808E0DFF8B080A8
:10068000404502D14FF0090801E04FF00A0808FA8E
:1006900007F848EA0608CCF80888DAF800605746F8
:1006A000D1F804C09E435FEACC2C00D51E433E60C7
:1006B000DBF800605F46D1F804C09E435FEA8C2CF3
:1006C00000D51E433E60DEF800607746D1F804C0D6
:1006D0009E435FEA8C3C00D51E433E60084F083FB6
:1006E0003E68D1F804C09E435FEACC3C00D51E436F
:1006F0003E60521C102AFFF411AFBDE8F88F0000D5
:10070000083C0140443802400030014000000240F3
:100710000004024000080240000C024000100240A9
:100720000014024000180240001C02400020024059
:10073000002402400AB1816170470904FBE7000010
:10074000014880687047000000000020024881686E
:100750000278114481607047000000200B4810B5FA
:10076000016841F400710160016841F48061016039
:10077000016841F480710160032000F06FF80F20E0
:1007800000F006F800F024F8002010BD003C024004
:1007900070B50D4D04464FF47A712878B1FBF0F036
:1007A0000A490968B1FBF0F000F044FB48B9102C8D
:1007B00007D200222146501E00F030F800206C6065
:1007C00070BD012070BD0000000000200C00002062
:1007D0000A4808B5016841F480410160006800F4EE
:1007E000804000900548001F016841F08051016081
:1007F000006800F08050009008BD000044380240BE
:10080000002809DB00F01F0201219140400980000F
:1008100000F1E020C0F8001170470000F0B40E4B6A
:100820001B680C46C3F30223C3F10705042D00D94E
:100830000425191D072901D2002300E0DB1E012633
:1008400006FA05F1491E214099409E40761E164049
:100850003143F0BC01F079B80CED00E0064900F03E
:10086000070208684FF6FF03184040EA0220034AD7
:1008700010430860704700000CED00E00000FA052E
:100880002DE9F8431748016841F080510160006884
:10089000154F00F08050012600903E64FFF750FF96
:1008A00005464FF47A78114C05E000BFFFF748FF8A
:1008B000401B40450DD86068C003F7D57E64FFF744
:1008C0003FFF0546464607E0FFF73AFF401BB042B0
:1008D00002D90320BDE8F88360688003F4D50020C6
:1008E000F8E700004038024000000E42007000406F
:1008F0002DE9F0470E46050065D0DFF81481D8F8E1
:100900000000F7B200F00F00B04207D288F8007084
:10091000D8F8000000F00F00B04254D128683D4CD8
:10092000810712D5400703D5206840F4E0502060CD
:100930002878000703D5206840F4604020602068D4
:10094000A96820F0F000084320602878C0072DD067
:10095000304968680839012812D0022813D00328CA
:1009600011D00968890700292DDA216821F00301D7
:1009700001432160FFF7E4FE814641F2883A0EE030
:1009800009688903EFE709688901ECE7FFF7D8FEFA
:10099000A0EB0901514502D90320BDE8F08720688A
:1009A000696800F00C00B0EB810FEFD1D8F80010AF
:1009B000404601F00F01B14207D90770006800F00E
:1009C0000F00B04201D00120E7E72878400705D5A5
:1009D0002068E96820F4E050084320602878000788
:1009E00006D52068296920F4604040EAC1002060F3
:1009F00000F038F82168084AC1F30311515CC8407F
:100A00000649086006480068FFF7C2FE0020C4E7F8
:100A1000003C0240083802409A1900080C000020EF
:100A2000040000200448054900680968044AC1F32D
:100A30008221515CC84070470C00002008380240F9
:100A4000AA1900080448054900680968044AC1F366
:100A50004231515CC84070470C0000200838024009
:100A6000AA190008154810B5006810F00C021448C7
:100A700013D01449042A0FD0082A0ED10F4C241F7A
:100A80002268236802F03F025B0207D52068C0F3AA
:100A90008810A0FB010106E0084610BD2168C1F3E3
:100AA0008811A1FB00010023FFF7F0FB2168C1F3CF
:100AB0000141491C4900B0FBF1F010BD083802406B
:100AC0000024F40040787D012DE9F84F04006ED039
:100AD0002078DFF84C93C007A9F104054AD009F14A
:100AE00004000168C1F38101012908D00068C0F346
:100AF000810002280AD1D9F80000400206D52868F2
:100B0000800337D560680028E1D033E06068B0F535
:100B1000803F10D0B0F5A02F286810D020F480308E
:100B20002860286820F4802028606068A8B1FFF75A
:100B300007FE06460DE0286840F48030F4E740F4F4
:100B400080202860F7E700BFFFF7FAFD801B6428CC
:100B500073D828688003F7D50CE0FFF7F1FD06464F
:100B600005E000BFFFF7ECFD801B6428F0D8286883
:100B70008003F7D42078DFF8AC8280074FF0000ABA
:100B80003ED5A748001D016811F00C0F08D0006881
:100B9000C0F3810002280BD1D9F80000400207D42D
:100BA0002868800716D5E068012800D112E033E1FB
:100BB000E068B8B10120C8F80000FFF7C1FD0646A3
:100BC00005E000BFFFF7BCFD801B0228C0D82868E5
:100BD0008007F7D52868216920F0F80040EAC100B5
:100BE00028600DE0C8F800A0FFF7AAFD064604E063
:100BF000FFF7A6FD801B02281FD828688007F7D4BE
:100C00002078000722D5864F87486169703771B117
:100C100001210160FFF794FD064604E0FFF790FD17
:100C2000801B022809D838688007F7D50EE0C0F885
:100C300000A0FFF785FD064605E082E0FFF780FD96
:100C4000801B02287DD838688007F7D420784007B9
:100C500068D5DFF8CCB100270BF13C0BDBF80000C6
:100C6000C0000BD4DBF8001041F08051CBF800102D
:100C7000DBF80000012700F0805000906B4E3068D8
:100C8000C00510D4306840F480703060FFF758FD24
:100C9000009005E0FFF754FD0099401A022850D853
:100CA0003068C005F6D55E4EA0686C3601280FD0BE
:100CB0000528306810D020F001003060306820F046
:100CC00004003060A068B8B1FFF73AFD00900FE073
:100CD000306840F00100F4E740F004003060F7E7CE
:100CE000FFF72EFD0099411A41F28830814266D803
:100CF00030688007F4D50EE0FFF722FD009007E092
:100D0000FFF71EFD0099411A41F28830814256D802
:100D100030688007F4D42FB1DBF8001021F0805147
:100D2000CBF80010A069C8B33D49091D0968C1F39B
:100D3000810102294AD00228504607D0C8F8600035
:100D400000E03CE0FFF7FCFC04463BE04746C8F807
:100D50006000FFF7F5FC064605E000BFFFF7F0FC7A
:100D6000801B02282BD828688001F7D4D4E907011A
:100D70000843A16A2E4A490802EB0141626A41EA2E
:100D80008211084394F82C1040EA0161C9F8001060
:100D900001203866FFF7D4FC044606E03EE000BFC1
:100DA000FFF7CEFC001B022809D828688001F7D580
:100DB00034E000BFFFF7C4FC001B022802D9032067
:100DC000BDE8F88F28688001F4D427E00128F7D027
:100DD000D9F80000E26900F4800191421CD1226A36
:100DE00000F03F01914217D147F6C071626A01409D
:100DF000B1EB821F10D1A26A4FF0FF3300F44031F3
:100E000003EB5202B1EB024F06D194F82C1000F024
:100E10007060B0EB016F01D00120D1E70020CFE777
:100E20000438024000004742800E474200700040F4
:100E30000000FFFF10B5401EB0F1807F01D30120FC
:100E400010BD4FF0E02460610F21601700F07DFDC0
:100E50000020A06107202061002010BD704770476E
:100E6000F8B5016804460868CA684B6910F00F0FAE
:100E70004FF0000559D003F0010602F49077374394
:100E800065D0C10705D0D10503D5616C41F00101E2
:100E90006164410705D5D90703D0616C41F00201B7
:100EA0006164810705D5D90703D0616C41F0040165
:100EB0006164010707D502F02001314303D0616C62
:100EC00041F008016164616C00293AD0800604D5C4
:100ED000900602D5204600F037FC20684069616C1E
:100EE000C0F38010090700D460B3204600F005FC71
:100EF00020684069400621D52068143050E8001F62
:100F000021F0400140E80012002AF5D1E06BA8B1C1
:100F100072490165E06BFFF7E1FA002811D0E06B40
:100F2000016D01B0BDE8F040084783060FD5930678
:100F30000DD52046BDE8F84000F006BC2046FFF77E
:100F40008EFFF8BD2046FFF78AFF6564F8BD266B6B
:100F50002023012E7ED1C6067CD5D6067AD5086818
:100F60004868009048694FF0020640064DD5E26B94
:100F7000106840684FF480770004000C3AD0A18DCF
:100F8000814237D9E085D069B8422DD020680C3035
:100F900050E8001F21F4807140E80012002AF5D1CA
:100FA0002068143050E8001F21F0010140E80012D1
:100FB000002AF5D12068143050E8001F21F04001CC
:100FC00040E80012002AF5D184F8423025632068F9
:100FD0000C3050E8001F21F0100140E80012002AF8
:100FE000F5D1E06BFFF731FA6663A08DE18D401A11
:100FF00081B206E0A18D8142A8D1D069B842A5D1C5
:1010000066632046FFF72AFFF8BDA08DE18D401AE8
:1010100081B2E08D0028F7D00029F5D020680C308F
:1010200050E8002F22F4907240E80027002FF5D1FD
:101030002068143050E8002F22F0010240E8002719
:10104000002FF5D184F84230256320680C3050E839
:10105000002F00E006E022F0100240E80023002B01
:10106000F3D1CDE705062BD5150629D594F8410017
:101070002128C9D1A068B0F5805F01D12069B0B145
:10108000206A411C2162216800784860E08C401E83
:101090000004000CE084B7D12068C16821F0800111
:1010A000C1602068C16841F04001C160F8BD206A9C
:1010B0000088C0F308004860206A801C2062E5E7D1
:1010C0004006F3D55006F1D5CA68204622F040020A
:1010D000CA6084F8413000F05CF9F8BDED160008F4
:1010E00070B5040004D094F84100002510B106E06A
:1010F000012070BD84F84050204600F023F82420E1
:1011000084F841002068C16821F40051C160204684
:1011100000F07CFB2068016921F4904101612068A6
:10112000416921F02A0141612068C16841F4005100
:10113000C1606564202084F8410084F84200656342
:10114000002070BD2DE9F04786B0044614216846A2
:10115000FFF713F98449DFF80CC223680024824AA0
:101160001039032502260827804863451ED11368DD
:1011700043F400231360126802F4002205920A6807
:1011800042F001020A600968CDE9005601F0010150
:10119000CDE904716946CDE90245FFF7B1F90022B6
:1011A00011463420FFF73AFB342038E0DFF8C0C1A5
:1011B000DFF8C0A1634537D1106840F4801010609B
:1011C000106800F480100590086840F00400086082
:1011D000086800F004000590086840F00800086006
:1011E000086802AB00F0080005904FF48050CDE98C
:1011F000000683E8B00069465046FFF781F90420F5
:10120000CDE9000602AB694683E8B0005A48FFF713
:1012100077F9002211463520FFF700FB3520FFF754
:10122000EFFA06B0BDE8F087DFF85081DFF83891BB
:101230004FF0070C09F10409434523D1D9F80030D8
:1012400043F01003C9F80030D9F8002002F0100272
:1012500005920A6842F001020A60096802AA01F0D8
:10126000010105914FF4C061CDE9001682E830100C
:101270006946FFF745F9002211462520FFF7CEFA0F
:101280002520CCE7DFF8F88043451FD1136843F4ED
:1012900000331360126802F4003205920A6842F0CB
:1012A00001020A60096802AB01F0010105910C21FD
:1012B000CDE9001683E830106946FFF721F90022D6
:1012C00011462620FFF7AAFA2620A8E72D488342D8
:1012D00021D1106840F480201060106800F4802054
:1012E0000590086840F002000860086802AB00F052
:1012F000020005904FF44060CDE9000683E830100D
:1013000069462148FFF7FCF8002211462720FFF725
:1013100085FA272083E71D48834282D1D9F800202F
:1013200042F02002C9F80020D9F8000000F02000A7
:101330000590086840F004000860086802AA00F000
:1013400004000590C020CDE9000682E8B00069469F
:101350005046FFF7D5F8002211464720FFF75EFA06
:1013600047205CE7004C004040380240000002404B
:101370000050004000080240000C024000100140F4
:1013800000440040004800400004024000140140B6
:1013900070477047FEE700002DE9F04F87B0142139
:1013A0006846FEF7EAFF42480024016841F08001E8
:1013B0000160016801F080010591016841F00101BF
:1013C0000160016801F001010591016841F010011F
:1013D0000160016801F010010591016841F002010E
:1013E0000160016801F002010591016841F004010A
:1013F0000160016801F004010591016841F00801F4
:1014000001600068DFF8AC8000F008004FF403656D
:101410000590002229464046FFF78CF9DFF89890A6
:101420004FF40046002231464846FFF783F9DFF8C3
:101430008CA0002231465046FFF77CF9DFF880B0DF
:10144000F711002239465846FFF774F900220221AD
:101450001C48FFF76FF900950125CDE90154694655
:1014600040460394FFF74CF80096CDE901546946D5
:1014700048460394FFF744F8CDE90065CDE90254EE
:1014800069465046FFF73CF80097CDE9015469469C
:1014900058460394FFF734F802200090CDE9015438
:1014A000694608480394FFF72BF807B0BDE8F08FB2
:1014B00030380240000002400010024000040240A8
:1014C00000080240000C02400C4810B50A490160B7
:1014D0004FF4E1314160002181600C22C160C0E91C
:1014E00004128161C161FFF7FBFD002803D0BDE854
:1014F0001040FEF7A8BF10BD004C004010000020B7
:101500000C4810B50A4901604FF4E13141600021F7
:1015100081600C22C160C0E904128161C161FFF7E2
:10152000DFFD002803D0BDE81040FEF78CBF10BDE2
:1015300000500040580000200C4810B50A490160D6
:101540004FF4E1314160002181600C22C160C0E9AB
:1015500004128161C161FFF7C3FD002803D0BDE81B
:101560001040FEF770BF10BD00100140A000002029
:101570000C4810B50A4901604FF4E1314160002187
:1015800081600C22C160C0E904128161C161FFF772
:10159000A7FD002803D0BDE81040FEF754BF10BDE2
:1015A00000440040E80000200C4810B50A490160E2
:1015B0004FF4E1314160002181600C22C160C0E93B
:1015C00004128161C161FFF78BFD002803D0BDE8E3
:1015D0001040FEF738BF10BD004800403001002029
:1015E0000C4810B50A4901604FF4E1314160002117
:1015F00081600C22C160C0E904128161C161FFF702
:101600006FFD002803D0BDE81040FEF71CBF10BDE1
:101610000014014078010020FEE7FEE770477047A4
:10162000FFF794B830B593B030216846FEF7A5FEB9
:1016300014210CA8FEF7A1FE20480025016841F006
:1016400080510160006800F0805011901C480168D2
:1016500041F4404101600068022400F440401190D0
:101660000120039010200490009406940820CDE9F6
:101670000750B420CDE9090404200B906846FFF719
:1016800023FA08B172B6FEE7FFF7FAF808B172B6AE
:10169000FEE70CA90F2081E831004FF4A0500F9015
:1016A0004FF48050109005210CA8FFF721F9002875
:1016B00001D072B6FEE713B030BD000040380240E2
:1016C000007000400248016841F4700101607047F9
:1016D00088ED00E00148FFF7C3BB000010000020C8
:1016E0000148FFF7BDBB00005800002010B5806B1B
:1016F0000021C185FFF7B3FB10BD01680C3151E833
:10170000002F22F4907241E80023002BF5D10168EC
:10171000143151E8002F22F0010241E80023002B90
:10172000F5D1016B012909D101680C3151E8002F75
:1017300022F0100241E80023002BF5D1202180F88F
:10174000421000210163704708B590F84210222929
:1017500001D0022008BD82684FF480539A4201D123
:10176000016921B1816A9A421BD04AB10AE002683C
:10177000816A5268C2F308020A80816A891C08E003
:10178000026972B10268526802F07F020A70816ACF
:10179000491C8162C18D491E0904090CC18503D011
:1017A0001BE002685268F1E70168CA6822F0200273
:1017B000CA600168CA6822F48072CA6001684A6916
:1017C00022F001024A61202180F842100021416389
:1017D000026B012A03D0FFF7DBFD002008BD016387
:1017E00001680C3151E8002F22F0100241E800237B
:1017F000002BF5D101680A68D20602D50A6849684B
:101800000091818DFFF72AFBE7E7000070B50446E1
:1018100000680169E26821F44051114301612169C6
:10182000A068E26908436169114308432168CA68F6
:1018300049F20C639A430243CA6020684169A26975
:1018400021F440711143416131492068884202D03E
:101850003049884202D1FFF7F5F801E0FFF7E2F8DE
:10186000E2690023192164253226B2F5004F62682F
:1018700028D0A0FB0101930F9200FEF707FD01465F
:10188000B0FBF5F06FF01802504301EB800006EB5F
:101890000010B0FBF5F000F0F002B1FBF5F002EB48
:1018A0000012B1FBF5F06FF01803584301EB800014
:1018B00006EB0010B0FBF5F000F00F0021681044BB
:1018C000886070BDA0FB010192185B41FEF7DEFC51
:1018D0000146B0FBF5F00201B1FBF5F06FF0180323
:1018E000584301EB800006EBC000B0FBF5F000F0C0
:1018F000F80002EB4002B1FBF5F0584301EB800029
:1019000006EBC000B0FBF5F000F00700D6E70000E2
:1019100000100140001401400148FFF7A1BA000087
:10192000A00000200148FFF79BBA0000E80000205B
:101930000148FFF795BA0000300100200148FFF789
:101940008FBA000078010020FEE70907090E002881
:1019500004DB00F1E02080F80014704700F00F0075
:1019600000F1E02080F8141D7047FEF7F7FEFFF746
:1019700059FEFFF711FDFFF7A7FDFFF7C1FDFFF7C8
:10198000DBFDFFF7F5FDFFF70FFEFFF729FEFEE792
:101990004FF04070E1EE100A7047000000000000B8
:1019A000000001020304060708090000000001020C
:1019B00003040000D41900080000002010000000FB
:1019C000E8010008E419000810000020106200007F
:1019D00004020008010000001000000000000000E8
:0419E0000024F400EB
:04000005080001AD41
:00000001FF
